{
  "_format": "hh-sol-artifact-1",
  "contractName": "FixedRateAssetManager",
  "sourceName": "contracts/mocks/FixedRateAssetManager.sol",
  "abi": [
    {
      "inputs": [
        {
          "internalType": "contract IPolicyPool",
          "name": "policyPool_",
          "type": "address"
        }
      ],
      "stateMutability": "nonpayable",
      "type": "constructor"
    },
    {
      "anonymous": false,
      "inputs": [
        {
          "indexed": false,
          "internalType": "address",
          "name": "previousAdmin",
          "type": "address"
        },
        {
          "indexed": false,
          "internalType": "address",
          "name": "newAdmin",
          "type": "address"
        }
      ],
      "name": "AdminChanged",
      "type": "event"
    },
    {
      "anonymous": false,
      "inputs": [
        {
          "indexed": true,
          "internalType": "address",
          "name": "beacon",
          "type": "address"
        }
      ],
      "name": "BeaconUpgraded",
      "type": "event"
    },
    {
      "anonymous": false,
      "inputs": [
        {
          "indexed": false,
          "internalType": "bool",
          "name": "positive",
          "type": "bool"
        },
        {
          "indexed": false,
          "internalType": "uint256",
          "name": "amount",
          "type": "uint256"
        }
      ],
      "name": "EarningsDistributed",
      "type": "event"
    },
    {
      "anonymous": false,
      "inputs": [
        {
          "indexed": true,
          "internalType": "enum IPolicyPoolConfig.GovernanceActions",
          "name": "action",
          "type": "uint8"
        },
        {
          "indexed": false,
          "internalType": "uint256",
          "name": "value",
          "type": "uint256"
        }
      ],
      "name": "GovernanceAction",
      "type": "event"
    },
    {
      "anonymous": false,
      "inputs": [
        {
          "indexed": false,
          "internalType": "uint256",
          "name": "amount",
          "type": "uint256"
        }
      ],
      "name": "MoneyDeinvested",
      "type": "event"
    },
    {
      "anonymous": false,
      "inputs": [
        {
          "indexed": false,
          "internalType": "uint256",
          "name": "amount",
          "type": "uint256"
        }
      ],
      "name": "MoneyInvested",
      "type": "event"
    },
    {
      "anonymous": false,
      "inputs": [
        {
          "indexed": false,
          "internalType": "address",
          "name": "account",
          "type": "address"
        }
      ],
      "name": "Paused",
      "type": "event"
    },
    {
      "anonymous": false,
      "inputs": [
        {
          "indexed": false,
          "internalType": "address",
          "name": "account",
          "type": "address"
        }
      ],
      "name": "Unpaused",
      "type": "event"
    },
    {
      "anonymous": false,
      "inputs": [
        {
          "indexed": true,
          "internalType": "address",
          "name": "implementation",
          "type": "address"
        }
      ],
      "name": "Upgraded",
      "type": "event"
    },
    {
      "inputs": [],
      "name": "GUARDIAN_ROLE",
      "outputs": [
        {
          "internalType": "bytes32",
          "name": "",
          "type": "bytes32"
        }
      ],
      "stateMutability": "view",
      "type": "function"
    },
    {
      "inputs": [],
      "name": "LEVEL1_ROLE",
      "outputs": [
        {
          "internalType": "bytes32",
          "name": "",
          "type": "bytes32"
        }
      ],
      "stateMutability": "view",
      "type": "function"
    },
    {
      "inputs": [],
      "name": "LEVEL2_ROLE",
      "outputs": [
        {
          "internalType": "bytes32",
          "name": "",
          "type": "bytes32"
        }
      ],
      "stateMutability": "view",
      "type": "function"
    },
    {
      "inputs": [],
      "name": "LEVEL3_ROLE",
      "outputs": [
        {
          "internalType": "bytes32",
          "name": "",
          "type": "bytes32"
        }
      ],
      "stateMutability": "view",
      "type": "function"
    },
    {
      "inputs": [],
      "name": "TWEAK_EXPIRATION",
      "outputs": [
        {
          "internalType": "uint40",
          "name": "",
          "type": "uint40"
        }
      ],
      "stateMutability": "view",
      "type": "function"
    },
    {
      "inputs": [],
      "name": "checkpoint",
      "outputs": [],
      "stateMutability": "nonpayable",
      "type": "function"
    },
    {
      "inputs": [],
      "name": "currency",
      "outputs": [
        {
          "internalType": "contract IERC20Metadata",
          "name": "",
          "type": "address"
        }
      ],
      "stateMutability": "view",
      "type": "function"
    },
    {
      "inputs": [],
      "name": "deinvestAll",
      "outputs": [],
      "stateMutability": "nonpayable",
      "type": "function"
    },
    {
      "inputs": [],
      "name": "distributeEarnings",
      "outputs": [],
      "stateMutability": "nonpayable",
      "type": "function"
    },
    {
      "inputs": [],
      "name": "getInvestmentValue",
      "outputs": [
        {
          "internalType": "uint256",
          "name": "",
          "type": "uint256"
        }
      ],
      "stateMutability": "view",
      "type": "function"
    },
    {
      "inputs": [
        {
          "internalType": "uint256",
          "name": "liquidityMin_",
          "type": "uint256"
        },
        {
          "internalType": "uint256",
          "name": "liquidityMiddle_",
          "type": "uint256"
        },
        {
          "internalType": "uint256",
          "name": "liquidityMax_",
          "type": "uint256"
        },
        {
          "internalType": "uint256",
          "name": "interestRate_",
          "type": "uint256"
        }
      ],
      "name": "initialize",
      "outputs": [],
      "stateMutability": "nonpayable",
      "type": "function"
    },
    {
      "inputs": [],
      "name": "interestRate",
      "outputs": [
        {
          "internalType": "uint256",
          "name": "",
          "type": "uint256"
        }
      ],
      "stateMutability": "view",
      "type": "function"
    },
    {
      "inputs": [],
      "name": "lastMintBurn",
      "outputs": [
        {
          "internalType": "uint256",
          "name": "",
          "type": "uint256"
        }
      ],
      "stateMutability": "view",
      "type": "function"
    },
    {
      "inputs": [],
      "name": "lastTweak",
      "outputs": [
        {
          "internalType": "uint40",
          "name": "",
          "type": "uint40"
        },
        {
          "internalType": "uint56",
          "name": "",
          "type": "uint56"
        }
      ],
      "stateMutability": "view",
      "type": "function"
    },
    {
      "inputs": [],
      "name": "liquidityMax",
      "outputs": [
        {
          "internalType": "uint256",
          "name": "",
          "type": "uint256"
        }
      ],
      "stateMutability": "view",
      "type": "function"
    },
    {
      "inputs": [],
      "name": "liquidityMiddle",
      "outputs": [
        {
          "internalType": "uint256",
          "name": "",
          "type": "uint256"
        }
      ],
      "stateMutability": "view",
      "type": "function"
    },
    {
      "inputs": [],
      "name": "liquidityMin",
      "outputs": [
        {
          "internalType": "uint256",
          "name": "",
          "type": "uint256"
        }
      ],
      "stateMutability": "view",
      "type": "function"
    },
    {
      "inputs": [],
      "name": "pause",
      "outputs": [],
      "stateMutability": "nonpayable",
      "type": "function"
    },
    {
      "inputs": [],
      "name": "paused",
      "outputs": [
        {
          "internalType": "bool",
          "name": "",
          "type": "bool"
        }
      ],
      "stateMutability": "view",
      "type": "function"
    },
    {
      "inputs": [],
      "name": "policyPool",
      "outputs": [
        {
          "internalType": "contract IPolicyPool",
          "name": "",
          "type": "address"
        }
      ],
      "stateMutability": "view",
      "type": "function"
    },
    {
      "inputs": [],
      "name": "positive",
      "outputs": [
        {
          "internalType": "bool",
          "name": "",
          "type": "bool"
        }
      ],
      "stateMutability": "view",
      "type": "function"
    },
    {
      "inputs": [],
      "name": "rebalance",
      "outputs": [],
      "stateMutability": "nonpayable",
      "type": "function"
    },
    {
      "inputs": [
        {
          "internalType": "uint256",
          "name": "paymentAmount",
          "type": "uint256"
        }
      ],
      "name": "refillWallet",
      "outputs": [],
      "stateMutability": "nonpayable",
      "type": "function"
    },
    {
      "inputs": [
        {
          "internalType": "uint256",
          "name": "newValue",
          "type": "uint256"
        }
      ],
      "name": "setLiquidityMax",
      "outputs": [],
      "stateMutability": "nonpayable",
      "type": "function"
    },
    {
      "inputs": [
        {
          "internalType": "uint256",
          "name": "newValue",
          "type": "uint256"
        }
      ],
      "name": "setLiquidityMiddle",
      "outputs": [],
      "stateMutability": "nonpayable",
      "type": "function"
    },
    {
      "inputs": [
        {
          "internalType": "uint256",
          "name": "newValue",
          "type": "uint256"
        }
      ],
      "name": "setLiquidityMin",
      "outputs": [],
      "stateMutability": "nonpayable",
      "type": "function"
    },
    {
      "inputs": [
        {
          "internalType": "uint256",
          "name": "min",
          "type": "uint256"
        },
        {
          "internalType": "uint256",
          "name": "middle",
          "type": "uint256"
        },
        {
          "internalType": "uint256",
          "name": "max",
          "type": "uint256"
        }
      ],
      "name": "setLiquidityMultiple",
      "outputs": [],
      "stateMutability": "nonpayable",
      "type": "function"
    },
    {
      "inputs": [
        {
          "internalType": "bool",
          "name": "positive_",
          "type": "bool"
        }
      ],
      "name": "setPositive",
      "outputs": [],
      "stateMutability": "nonpayable",
      "type": "function"
    },
    {
      "inputs": [],
      "name": "totalInvestable",
      "outputs": [
        {
          "internalType": "uint256",
          "name": "",
          "type": "uint256"
        }
      ],
      "stateMutability": "view",
      "type": "function"
    },
    {
      "inputs": [],
      "name": "unpause",
      "outputs": [],
      "stateMutability": "nonpayable",
      "type": "function"
    },
    {
      "inputs": [
        {
          "internalType": "address",
          "name": "newImplementation",
          "type": "address"
        }
      ],
      "name": "upgradeTo",
      "outputs": [],
      "stateMutability": "nonpayable",
      "type": "function"
    },
    {
      "inputs": [
        {
          "internalType": "address",
          "name": "newImplementation",
          "type": "address"
        },
        {
          "internalType": "bytes",
          "name": "data",
          "type": "bytes"
        }
      ],
      "name": "upgradeToAndCall",
      "outputs": [],
      "stateMutability": "payable",
      "type": "function"
    }
  ],
  "bytecode": "0x60c06040523060601b6080523480156200001857600080fd5b5060405162003af338038062003af38339810160408190526200003b9162000051565b60601b6001600160601b03191660a05262000083565b6000602082840312156200006457600080fd5b81516001600160a01b03811681146200007c57600080fd5b9392505050565b60805160601c60a05160601c6139876200016c60003960008181610357015281816105d1015281816106680152818161071701528181610841015281816108b0015281816109fe01528181610bfd01528181610f0b0152818161105e0152818161125e015281816113500152818161146701528181611571015281816115d701528181611686015281816117620152818161180c015281816119cd0152818161205e0152818161210d015281816122cb0152818161238d015281816124420152612762015260008181610b0d01528181610b4d01528181610e400152610e8001526139876000f3fe6080604052600436106101e35760003560e01c80635c975abb116101025780638d7ddd9011610095578063d7d24afa11610064578063d7d24afa14610554578063e5a6b10f1461056e578063f67b2bad14610583578063f9c4fd1b146105b757600080fd5b80638d7ddd90146104ff578063bb79839114610514578063c2c4c5c11461052a578063cec16f3f1461053f57600080fd5b80637d7c2a1c116100d15780637d7c2a1c146104885780637ed5acfa1461049d5780638456cb59146104ca57806385a5a1ae146104df57600080fd5b80635c975abb1461041957806360a2da441461043d57806376577eae1461045d5780637c3a00fd1461047257600080fd5b8063468a8c9f1161017a5780634f1ef286116101495780634f1ef286146103a4578063548d49ee146103b75780635a89c5ac146103d75780635b494dd5146103f757600080fd5b8063468a8c9f146102ec5780634a47a3e0146103265780634d15eb03146103485780634dd93bd31461038f57600080fd5b806324ea54f4116101b657806324ea54f4146102805780633659cfe6146102a25780633b6612c8146102c25780633f4ba83a146102d757600080fd5b806305400115146101e85780630ae65a21146102105780631014a0c2146102405780631a2afb1d14610260575b600080fd5b3480156101f457600080fd5b506101fd6105cc565b6040519081526020015b60405180910390f35b34801561021c57600080fd5b5061023e61022b3660046134bf565b60d0805460ff1916911515919091179055565b005b34801561024c57600080fd5b5061023e61025b366004613516565b61083e565b34801561026c57600080fd5b5061023e61027b366004613516565b6109de565b34801561028c57600080fd5b506101fd60008051602061393283398151915281565b3480156102ae57600080fd5b5061023e6102bd3660046133de565b610b02565b3480156102ce57600080fd5b5060cc546101fd565b3480156102e357600080fd5b5061023e610bcb565b3480156102f857600080fd5b5060c9546040805164ffffffffff83168152600160281b90920466ffffffffffffff16602083015201610207565b34801561033257600080fd5b506101fd60008051602061391283398151915281565b34801561035457600080fd5b507f00000000000000000000000000000000000000000000000000000000000000005b6040516001600160a01b039091168152602001610207565b34801561039b57600080fd5b506101fd610cf7565b61023e6103b23660046133fb565b610e35565b3480156103c357600080fd5b5061023e6103d2366004613548565b610eeb565b3480156103e357600080fd5b5061023e6103f2366004613516565b61103e565b34801561040357600080fd5b506101fd6000805160206138cb83398151915281565b34801561042557600080fd5b5060975460ff165b6040519015158152602001610207565b34801561044957600080fd5b5061023e610458366004613574565b611155565b34801561046957600080fd5b5061023e6111e5565b34801561047e57600080fd5b506101fd60ce5481565b34801561049457600080fd5b5061023e61121a565b3480156104a957600080fd5b506104b46201518081565b60405164ffffffffff9091168152602001610207565b3480156104d657600080fd5b5061023e61133f565b3480156104eb57600080fd5b5061023e6104fa366004613516565b611447565b34801561050b57600080fd5b5060ca546101fd565b34801561052057600080fd5b506101fd60cf5481565b34801561053657600080fd5b5061023e61155e565b34801561054b57600080fd5b5061023e61156e565b34801561056057600080fd5b5060d05461042d9060ff1681565b34801561057a57600080fd5b5061037761175e565b34801561058f57600080fd5b506101fd7fbf372ca3ebecfe59ac256f17697941bbe63302aced610e8b0e3646f743c7beb281565b3480156105c357600080fd5b5060cb546101fd565b6000807f00000000000000000000000000000000000000000000000000000000000000006001600160a01b03166365e29c7e6040518163ffffffff1660e01b815260040160206040518083038186803b15801561062857600080fd5b505afa15801561063c573d6000803e3d6000fd5b505050506040513d601f19601f82011682018060405250810190610660919061352f565b90506000805b7f00000000000000000000000000000000000000000000000000000000000000006001600160a01b031663dea167d56040518163ffffffff1660e01b815260040160206040518083038186803b1580156106bf57600080fd5b505afa1580156106d3573d6000803e3d6000fd5b505050506040513d601f19601f820116820180604052508101906106f7919061352f565b81101561082c5760405163b0ec4bcf60e01b8152600481018290526000907f00000000000000000000000000000000000000000000000000000000000000006001600160a01b03169063b0ec4bcf9060240160206040518083038186803b15801561076157600080fd5b505afa158015610775573d6000803e3d6000fd5b505050506040513d601f19601f8201168201806040525081019061079991906134f9565b9050806001600160a01b03166365e29c7e6040518163ffffffff1660e01b815260040160206040518083038186803b1580156107d457600080fd5b505afa1580156107e8573d6000803e3d6000fd5b505050506040513d601f19601f8201168201806040525081019061080c919061352f565b6108169084613765565b92505080806108249061384a565b915050610666565b506108378183613765565b9250505090565b337f00000000000000000000000000000000000000000000000000000000000000006001600160a01b03161461088f5760405162461bcd60e51b815260040161088690613724565b60405180910390fd5b600061089961175e565b6040516370a0823160e01b81526001600160a01b037f00000000000000000000000000000000000000000000000000000000000000008116600483015291909116906370a082319060240160206040518083038186803b1580156108fc57600080fd5b505afa158015610910573d6000803e3d6000fd5b505050506040513d601f19601f82011682018060405250810190610934919061352f565b905081811061099b5760405162461bcd60e51b815260206004820152602d60248201527f4e6f206e65656420746f20726566696c6c207468652077616c6c657420666f7260448201526c081d1a1a5cc81c185e5b595b9d609a1b6064820152608401610886565b60006109a5610cf7565b905060008260cb54856109b89190613765565b6109c291906137be565b9050818111156109cf5750805b6109d8816117f6565b50505050565b6000805160206139128339815191526000805160206138cb8339815191527f00000000000000000000000000000000000000000000000000000000000000006001600160a01b03166379502c556040518163ffffffff1660e01b815260040160206040518083038186803b158015610a5557600080fd5b505afa158015610a69573d6000803e3d6000fd5b505050506040513d601f19601f82011682018060405250810190610a8d91906134f9565b6001600160a01b031663c5b8f5cf8383336040518463ffffffff1660e01b8152600401610abc939291906135c2565b60006040518083038186803b158015610ad457600080fd5b505afa158015610ae8573d6000803e3d6000fd5b50505050610af583611844565b610afd6118f8565b505050565b306001600160a01b037f0000000000000000000000000000000000000000000000000000000000000000161415610b4b5760405162461bcd60e51b815260040161088690613614565b7f00000000000000000000000000000000000000000000000000000000000000006001600160a01b0316610b7d61196d565b6001600160a01b031614610ba35760405162461bcd60e51b815260040161088690613660565b610bac8161199b565b60408051600080825260208201909252610bc891839190611ac0565b50565b6000805160206139328339815191527fbf372ca3ebecfe59ac256f17697941bbe63302aced610e8b0e3646f743c7beb27f00000000000000000000000000000000000000000000000000000000000000006001600160a01b03166379502c556040518163ffffffff1660e01b815260040160206040518083038186803b158015610c5457600080fd5b505afa158015610c68573d6000803e3d6000fd5b505050506040513d601f19601f82011682018060405250810190610c8c91906134f9565b6001600160a01b031663c5b8f5cf8383336040518463ffffffff1660e01b8152600401610cbb939291906135c2565b60006040518083038186803b158015610cd357600080fd5b505afa158015610ce7573d6000803e3d6000fd5b50505050610cf3611c04565b5050565b600080610d0261175e565b6040516370a0823160e01b81523060048201526001600160a01b0391909116906370a082319060240160206040518083038186803b158015610d4357600080fd5b505afa158015610d57573d6000803e3d6000fd5b505050506040513d601f19601f82011682018060405250810190610d7b919061352f565b90504260cf5410610d8b57919050565b600060cf5442610d9b91906137be565b60d05490915060009060ff1615610de5576301e133808260ce54610dbf919061379f565b610dc9919061377d565b610dde90676765c793fa10079d601b1b613765565b9050610e1a565b6301e133808260ce54610df8919061379f565b610e02919061377d565b610e1790676765c793fa10079d601b1b6137be565b90505b610e2d610e2682611c97565b8490611d1f565b935050505090565b306001600160a01b037f0000000000000000000000000000000000000000000000000000000000000000161415610e7e5760405162461bcd60e51b815260040161088690613614565b7f00000000000000000000000000000000000000000000000000000000000000006001600160a01b0316610eb061196d565b6001600160a01b031614610ed65760405162461bcd60e51b815260040161088690613660565b610edf8261199b565b610cf382826001611ac0565b6000805160206139128339815191526000805160206138cb8339815191527f00000000000000000000000000000000000000000000000000000000000000006001600160a01b03166379502c556040518163ffffffff1660e01b815260040160206040518083038186803b158015610f6257600080fd5b505afa158015610f76573d6000803e3d6000fd5b505050506040513d601f19601f82011682018060405250810190610f9a91906134f9565b6001600160a01b031663c5b8f5cf8383336040518463ffffffff1660e01b8152600401610fc9939291906135c2565b60006040518083038186803b158015610fe157600080fd5b505afa158015610ff5573d6000803e3d6000fd5b50505050600019851461100b5761100b85611844565b600019841461101d5761101d84611df9565b600019831461102f5761102f83611eb0565b6110376118f8565b5050505050565b6000805160206139128339815191526000805160206138cb8339815191527f00000000000000000000000000000000000000000000000000000000000000006001600160a01b03166379502c556040518163ffffffff1660e01b815260040160206040518083038186803b1580156110b557600080fd5b505afa1580156110c9573d6000803e3d6000fd5b505050506040513d601f19601f820116820180604052508101906110ed91906134f9565b6001600160a01b031663c5b8f5cf8383336040518463ffffffff1660e01b815260040161111c939291906135c2565b60006040518083038186803b15801561113457600080fd5b505afa158015611148573d6000803e3d6000fd5b50505050610af583611eb0565b600054610100900460ff168061116e575060005460ff16155b61118a5760405162461bcd60e51b8152600401610886906136d6565b600054610100900460ff161580156111ac576000805461ffff19166101011790555b6111b7858585611f64565b60ce8290554260cf5560d0805460ff191660011790558015611037576000805461ff00191690555050505050565b60975460ff16156112085760405162461bcd60e51b8152600401610886906136ac565b611218611213610cf7565b611fe5565b565b60975460ff161561123d5760405162461bcd60e51b8152600401610886906136ac565b600061124761175e565b6040516370a0823160e01b81526001600160a01b037f00000000000000000000000000000000000000000000000000000000000000008116600483015291909116906370a082319060240160206040518083038186803b1580156112aa57600080fd5b505afa1580156112be573d6000803e3d6000fd5b505050506040513d601f19601f820116820180604052508101906112e2919061352f565b905060cc5481111561130457610bc860cb54826112ff91906137be565b612377565b60ca54811015610bc857600061132e61131b610cf7565b8360cb5461132991906137be565b6123c7565b90508015610cf357610cf3816117f6565b6000805160206139328339815191527f00000000000000000000000000000000000000000000000000000000000000006001600160a01b03166379502c556040518163ffffffff1660e01b815260040160206040518083038186803b1580156113a757600080fd5b505afa1580156113bb573d6000803e3d6000fd5b505050506040513d601f19601f820116820180604052508101906113df91906134f9565b6040516312d9a6ad60e01b8152600481018390523360248201526001600160a01b0391909116906312d9a6ad9060440160006040518083038186803b15801561142757600080fd5b505afa15801561143b573d6000803e3d6000fd5b50505050610bc86123dd565b6000805160206139128339815191526000805160206138cb8339815191527f00000000000000000000000000000000000000000000000000000000000000006001600160a01b03166379502c556040518163ffffffff1660e01b815260040160206040518083038186803b1580156114be57600080fd5b505afa1580156114d2573d6000803e3d6000fd5b505050506040513d601f19601f820116820180604052508101906114f691906134f9565b6001600160a01b031663c5b8f5cf8383336040518463ffffffff1660e01b8152600401611525939291906135c2565b60006040518083038186803b15801561153d57600080fd5b505afa158015611551573d6000803e3d6000fd5b50505050610af583611df9565b6115666111e5565b61121861121a565b337f00000000000000000000000000000000000000000000000000000000000000006001600160a01b0316146115b65760405162461bcd60e51b815260040161088690613724565b60006115c061175e565b6040516370a0823160e01b81526001600160a01b037f00000000000000000000000000000000000000000000000000000000000000008116600483015291909116906370a082319060240160206040518083038186803b15801561162357600080fd5b505afa158015611637573d6000803e3d6000fd5b505050506040513d601f19601f8201168201806040525081019061165b919061352f565b9050611665612435565b600061166f61175e565b6040516370a0823160e01b81526001600160a01b037f00000000000000000000000000000000000000000000000000000000000000008116600483015291909116906370a082319060240160206040518083038186803b1580156116d257600080fd5b505afa1580156116e6573d6000803e3d6000fd5b505050506040513d601f19601f8201168201806040525081019061170a919061352f565b905061171961121383836137be565b600060cd557fb82d4e0870bf4ae7236ad1de74d6612d04d1b805b47d98c2f40088a193d87c6561174983836137be565b60405190815260200160405180910390a15050565b60007f00000000000000000000000000000000000000000000000000000000000000006001600160a01b031663e5a6b10f6040518163ffffffff1660e01b815260040160206040518083038186803b1580156117b957600080fd5b505afa1580156117cd573d6000803e3d6000fd5b505050506040513d601f19601f820116820180604052508101906117f191906134f9565b905090565b6117fe6124ea565b611807816126a2565b610bc87f00000000000000000000000000000000000000000000000000000000000000008261183461175e565b6001600160a01b031691906126fb565b600061185d60008051602061391283398151915261275e565b159050801580611880575061188060ca54836af8277896582678ac000000612871565b6118e75760405162461bcd60e51b815260206004820152603260248201527f547765616b2065786365656465643a206c69717569646974794d696e20747765604482015271616b73206f6e6c7920757020746f2033302560701b6064820152608401610886565b60ca829055610cf360138383612903565b60cb5460ca5411158015611910575060cc5460cb5411155b6112185760405162461bcd60e51b815260206004820152602860248201527f56616c69646174696f6e3a204c6971756964697479206c696d69747320617265604482015267081a5b9d985b1a5960c21b6064820152608401610886565b7f360894a13ba1a3210667c828492db98dca3e2076cc3735a920a3ca505d382bbc546001600160a01b031690565b6000805160206139328339815191527fbf372ca3ebecfe59ac256f17697941bbe63302aced610e8b0e3646f743c7beb27f00000000000000000000000000000000000000000000000000000000000000006001600160a01b03166379502c556040518163ffffffff1660e01b815260040160206040518083038186803b158015611a2457600080fd5b505afa158015611a38573d6000803e3d6000fd5b505050506040513d601f19601f82011682018060405250810190611a5c91906134f9565b6001600160a01b031663c5b8f5cf8383336040518463ffffffff1660e01b8152600401611a8b939291906135c2565b60006040518083038186803b158015611aa357600080fd5b505afa158015611ab7573d6000803e3d6000fd5b50505050505050565b6000611aca61196d565b9050611ad58461295c565b600083511180611ae25750815b15611af357611af18484612a01565b505b7f4910fdfa16fed3260ed0e7147f7cc6da11a60208b5b9406d12a635614ffd9143805460ff1661103757805460ff191660011781556040516001600160a01b0383166024820152611b7290869060440160408051601f198184030181529190526020810180516001600160e01b0316631b2ce7f360e11b179052612a01565b50805460ff19168155611b8361196d565b6001600160a01b0316826001600160a01b031614611bfb5760405162461bcd60e51b815260206004820152602f60248201527f45524331393637557067726164653a207570677261646520627265616b73206660448201526e75727468657220757067726164657360881b6064820152608401610886565b61103785612aec565b60975460ff16611c4d5760405162461bcd60e51b815260206004820152601460248201527314185d5cd8589b194e881b9bdd081c185d5cd95960621b6044820152606401610886565b6097805460ff191690557f5db9ee0a495bf2e6ff9c91a7834c1ba4fdd244a5e8aa4e537bd38aeae4b073aa335b6040516001600160a01b03909116815260200160405180910390a1565b600080611ca96002633b9aca0061377d565b90506000611cb78483613765565b905081811015611d095760405162461bcd60e51b815260206004820181905260248201527f726179546f5761643a204d617468204164646974696f6e204f766572666c6f776044820152606401610886565b611d17633b9aca008261377d565b949350505050565b6000821580611d2c575081155b15611d3957506000611df3565b81611d4d6002670de0b6b3a764000061377d565b611d59906000196137be565b611d63919061377d565b831115611dbe5760405162461bcd60e51b8152602060048201526024808201527f7761644d756c3a204d617468204d756c7469706c69636174696f6e204f766572604482015263666c6f7760e01b6064820152608401610886565b670de0b6b3a7640000611dd260028261377d565b611ddc848661379f565b611de69190613765565b611df0919061377d565b90505b92915050565b6000611e1260008051602061391283398151915261275e565b159050801580611e355750611e3560cb54836af8277896582678ac000000612871565b611e9f5760405162461bcd60e51b815260206004820152603560248201527f547765616b2065786365656465643a206c69717569646974794d6964646c6520604482015274747765616b73206f6e6c7920757020746f2033302560581b6064820152608401610886565b60cb829055610cf360148383612903565b6000611ec960008051602061391283398151915261275e565b159050801580611eec5750611eec60cc54836af8277896582678ac000000612871565b611f535760405162461bcd60e51b815260206004820152603260248201527f547765616b2065786365656465643a206c69717569646974794d617820747765604482015271616b73206f6e6c7920757020746f2033302560701b6064820152608401610886565b60cc829055610cf360158383612903565b600054610100900460ff1680611f7d575060005460ff16155b611f995760405162461bcd60e51b8152600401610886906136d6565b600054610100900460ff16158015611fbb576000805461ffff19166101011790555b611fc3612b2c565b611fce848484612ba7565b80156109d8576000805461ff001916905550505050565b60975460ff16156120085760405162461bcd60e51b8152600401610886906136ac565b60008060cd5483111561202d5760cd5461202290846137be565b90506001915061204c565b60cd54831015610afd578260cd5461204591906137be565b9050600091505b60006120566105cc565b90508160005b7f00000000000000000000000000000000000000000000000000000000000000006001600160a01b031663dea167d56040518163ffffffff1660e01b815260040160206040518083038186803b1580156120b557600080fd5b505afa1580156120c9573d6000803e3d6000fd5b505050506040513d601f19601f820116820180604052508101906120ed919061352f565b8110156122a65760405163b0ec4bcf60e01b8152600481018290526000907f00000000000000000000000000000000000000000000000000000000000000006001600160a01b03169063b0ec4bcf9060240160206040518083038186803b15801561215757600080fd5b505afa15801561216b573d6000803e3d6000fd5b505050506040513d601f19601f8201168201806040525081019061218f91906134f9565b9050600061221861221186846001600160a01b03166365e29c7e6040518163ffffffff1660e01b815260040160206040518083038186803b1580156121d357600080fd5b505afa1580156121e7573d6000803e3d6000fd5b505050506040513d601f19601f8201168201806040525081019061220b919061352f565b90612c15565b8790611d1f565b905080156122915760405163ab60016960e01b81526004810182905287151560248201526001600160a01b0383169063ab60016990604401600060405180830381600087803b15801561226a57600080fd5b505af115801561227e573d6000803e3d6000fd5b50505050808461228e91906137be565b93505b5050808061229e9061384a565b91505061205c565b5080156123305760405163ab60016960e01b81526004810182905284151560248201527f00000000000000000000000000000000000000000000000000000000000000006001600160a01b03169063ab60016990604401600060405180830381600087803b15801561231757600080fd5b505af115801561232b573d6000803e3d6000fd5b505050505b60cd859055604080518515158152602081018590527f91a6cbd27bc7cdd21da57fbb08ebfaf5cece633ca7dd5f1741bff39f4be3ad4f910160405180910390a15050505050565b61237f6124ea565b61238881612d15565b610bc87f000000000000000000000000000000000000000000000000000000000000000030836123b661175e565b6001600160a01b0316929190612d5c565b60008183106123d65781611df0565b5090919050565b60975460ff16156124005760405162461bcd60e51b8152600401610886906136ac565b6097805460ff191660011790557f62e78cea01bee320cd4e420270b5ea74000d11b0c9f74754ebdbfc544b05a258611c7a3390565b61243d6124ea565b6112187f000000000000000000000000000000000000000000000000000000000000000061246961175e565b6040516370a0823160e01b81523060048201526001600160a01b0391909116906370a082319060240160206040518083038186803b1580156124aa57600080fd5b505afa1580156124be573d6000803e3d6000fd5b505050506040513d601f19601f820116820180604052508101906124e2919061352f565b61183461175e565b4260cf54106124f557565b60006124ff61175e565b6040516370a0823160e01b81523060048201526001600160a01b0391909116906370a082319060240160206040518083038186803b15801561254057600080fd5b505afa158015612554573d6000803e3d6000fd5b505050506040513d601f19601f82011682018060405250810190612578919061352f565b90506000612584610cf7565b9050818111156126125761259661175e565b6001600160a01b03166340c10f19306125af85856137be565b6040516001600160e01b031960e085901b1681526001600160a01b0390921660048301526024820152604401600060405180830381600087803b1580156125f557600080fd5b505af1158015612609573d6000803e3d6000fd5b5050505061269a565b8181101561269a5761262261175e565b6001600160a01b0316639dc29fac3061263b84866137be565b6040516001600160e01b031960e085901b1681526001600160a01b0390921660048301526024820152604401600060405180830381600087803b15801561268157600080fd5b505af1158015612695573d6000803e3d6000fd5b505050505b50504260cf55565b6126ae60cd54826123c7565b60cd60008282546126bf91906137be565b90915550506040518181527fb82d4e0870bf4ae7236ad1de74d6612d04d1b805b47d98c2f40088a193d87c65906020015b60405180910390a150565b6040516001600160a01b038316602482015260448101829052610afd90849063a9059cbb60e01b906064015b60408051601f198184030181529190526020810180516001600160e01b03166001600160e01b031990931692909217909152612d94565b60007f00000000000000000000000000000000000000000000000000000000000000006001600160a01b03166379502c556040518163ffffffff1660e01b815260040160206040518083038186803b1580156127b957600080fd5b505afa1580156127cd573d6000803e3d6000fd5b505050506040513d601f19601f820116820180604052508101906127f191906134f9565b604051632474521560e21b8152600481018490523360248201526001600160a01b0391909116906391d148549060440160206040518083038186803b15801561283957600080fd5b505afa15801561284d573d6000803e3d6000fd5b505050506040513d601f19601f82011682018060405250810190611df391906134dc565b600082841415612883575060016128fc565b8361289d5750676765c793fa10079d601b1b8110156128fc565b826128aa575060006128fc565b828410156128dc5781676765c793fa10079d601b1b6128c98587612e66565b6128d391906137be565b111590506128fc565b816128e78486612e66565b6128d390676765c793fa10079d601b1b6137be565b9392505050565b80156129125761291283612f58565b82601b8111156129245761292461387b565b6040518381527f7bc647fe5043209e2019aa3503b79c1b0dd83eb61c56013d373a7584ff6bfb139060200160405180910390a2505050565b803b6129c05760405162461bcd60e51b815260206004820152602d60248201527f455243313936373a206e657720696d706c656d656e746174696f6e206973206e60448201526c1bdd08184818dbdb9d1c9858dd609a1b6064820152608401610886565b7f360894a13ba1a3210667c828492db98dca3e2076cc3735a920a3ca505d382bbc80546001600160a01b0319166001600160a01b0392909216919091179055565b6060823b612a605760405162461bcd60e51b815260206004820152602660248201527f416464726573733a2064656c65676174652063616c6c20746f206e6f6e2d636f6044820152651b9d1c9858dd60d21b6064820152608401610886565b600080846001600160a01b031684604051612a7b91906135a6565b600060405180830381855af49150503d8060008114612ab6576040519150601f19603f3d011682016040523d82523d6000602084013e612abb565b606091505b5091509150612ae382826040518060600160405280602781526020016138eb602791396130c1565b95945050505050565b612af58161295c565b6040516001600160a01b038216907fbc7cd75a20ee27fd9adebab32041f755214dbc6bffa90cc0225b39da2e5c2d3b90600090a250565b600054610100900460ff1680612b45575060005460ff16155b612b615760405162461bcd60e51b8152600401610886906136d6565b600054610100900460ff16158015612b83576000805461ffff19166101011790555b612b8b6130fa565b612b93613161565b8015610bc8576000805461ff001916905550565b600054610100900460ff1680612bc0575060005460ff16155b612bdc5760405162461bcd60e51b8152600401610886906136d6565b600054610100900460ff16158015612bfe576000805461ffff19166101011790555b60ca84905560cb83905560cc829055611fce6118f8565b600081612c645760405162461bcd60e51b815260206004820152601860248201527f7761644469763a204469766973696f6e206279207a65726f00000000000000006044820152606401610886565b6000612c7160028461377d565b9050670de0b6b3a7640000612c88826000196137be565b612c92919061377d565b841115612ced5760405162461bcd60e51b8152602060048201526024808201527f7761644469763a204d617468204d756c7469706c69636174696f6e204f766572604482015263666c6f7760e01b6064820152608401610886565b8281612d01670de0b6b3a76400008761379f565b612d0b9190613765565b611d17919061377d565b8060cd6000828254612d279190613765565b90915550506040518181527f0f0cdeac88e111e1dd9b9f043e8c671053dedfbaeccabfb144fd51a4f870fcf4906020016126f0565b6040516001600160a01b03808516602483015283166044820152606481018290526109d89085906323b872dd60e01b90608401612727565b6000612de9826040518060400160405280602081526020017f5361666545524332303a206c6f772d6c6576656c2063616c6c206661696c6564815250856001600160a01b03166131c89092919063ffffffff16565b805190915015610afd5780806020019051810190612e0791906134dc565b610afd5760405162461bcd60e51b815260206004820152602a60248201527f5361666545524332303a204552433230206f7065726174696f6e20646964206e6044820152691bdd081cdd58d8d9595960b21b6064820152608401610886565b600081612eb55760405162461bcd60e51b815260206004820152601860248201527f7261794469763a204469766973696f6e206279207a65726f00000000000000006044820152606401610886565b6000612ec260028461377d565b9050676765c793fa10079d601b1b612edc826000196137be565b612ee6919061377d565b841115612f415760405162461bcd60e51b8152602060048201526024808201527f7261794469763a204d617468204d756c7469706c69636174696f6e204f766572604482015263666c6f7760e01b6064820152608401610886565b8281612d01676765c793fa10079d601b1b8761379f565b6000600182601b811115612f6e57612f6e61387b565b612f7891906137fb565b60c954600160ff929092169190911b91506201518090612f9f9064ffffffffff16426137d5565b64ffffffffff161115612fe15760c9805466ffffffffffffff8316600160281b026bffffffffffffffffffffffff1990911664ffffffffff4216171790555050565b60c954600160281b9004811666ffffffffffffff166130435760c9805464ffffffffff421664ffffffffff1966ffffffffffffff808616600160281b808604929092161702166bffffffffffffffffffffffff19909216919091171790555050565b60405162461bcd60e51b815260206004820152604760248201527f596f7520616c726561647920747765616b6564207468697320706172616d657460448201527f657220726563656e746c792e2057616974206265666f726520747765616b696e606482015266339030b3b0b4b760c91b608482015260a401610886565b606083156130d05750816128fc565b8251156130e05782518084602001fd5b8160405162461bcd60e51b815260040161088691906135e1565b600054610100900460ff1680613113575060005460ff16155b61312f5760405162461bcd60e51b8152600401610886906136d6565b600054610100900460ff16158015613151576000805461ffff19166101011790555b6131596131d7565b612b936131d7565b600054610100900460ff168061317a575060005460ff16155b6131965760405162461bcd60e51b8152600401610886906136d6565b600054610100900460ff161580156131b8576000805461ffff19166101011790555b6131c06131d7565b612b93613241565b6060611d1784846000856132b6565b600054610100900460ff16806131f0575060005460ff16155b61320c5760405162461bcd60e51b8152600401610886906136d6565b600054610100900460ff16158015612b93576000805461ffff19166101011790558015610bc8576000805461ff001916905550565b600054610100900460ff168061325a575060005460ff16155b6132765760405162461bcd60e51b8152600401610886906136d6565b600054610100900460ff16158015613298576000805461ffff19166101011790555b6097805460ff191690558015610bc8576000805461ff001916905550565b6060824710156133175760405162461bcd60e51b815260206004820152602660248201527f416464726573733a20696e73756666696369656e742062616c616e636520666f6044820152651c8818d85b1b60d21b6064820152608401610886565b843b6133655760405162461bcd60e51b815260206004820152601d60248201527f416464726573733a2063616c6c20746f206e6f6e2d636f6e74726163740000006044820152606401610886565b600080866001600160a01b0316858760405161338191906135a6565b60006040518083038185875af1925050503d80600081146133be576040519150601f19603f3d011682016040523d82523d6000602084013e6133c3565b606091505b50915091506133d38282866130c1565b979650505050505050565b6000602082840312156133f057600080fd5b81356128fc816138a7565b6000806040838503121561340e57600080fd5b8235613419816138a7565b9150602083013567ffffffffffffffff8082111561343657600080fd5b818501915085601f83011261344a57600080fd5b81358181111561345c5761345c613891565b604051601f8201601f19908116603f0116810190838211818310171561348457613484613891565b8160405282815288602084870101111561349d57600080fd5b8260208601602083013760006020848301015280955050505050509250929050565b6000602082840312156134d157600080fd5b81356128fc816138bc565b6000602082840312156134ee57600080fd5b81516128fc816138bc565b60006020828403121561350b57600080fd5b81516128fc816138a7565b60006020828403121561352857600080fd5b5035919050565b60006020828403121561354157600080fd5b5051919050565b60008060006060848603121561355d57600080fd5b505081359360208301359350604090920135919050565b6000806000806080858703121561358a57600080fd5b5050823594602084013594506040840135936060013592509050565b600082516135b881846020870161381e565b9190910192915050565b92835260208301919091526001600160a01b0316604082015260600190565b602081526000825180602084015261360081604085016020870161381e565b601f01601f19169190910160400192915050565b6020808252602c908201527f46756e6374696f6e206d7573742062652063616c6c6564207468726f7567682060408201526b19195b1959d85d1958d85b1b60a21b606082015260800190565b6020808252602c908201527f46756e6374696f6e206d7573742062652063616c6c6564207468726f7567682060408201526b6163746976652070726f787960a01b606082015260800190565b60208082526010908201526f14185d5cd8589b194e881c185d5cd95960821b604082015260600190565b6020808252602e908201527f496e697469616c697a61626c653a20636f6e747261637420697320616c72656160408201526d191e481a5b9a5d1a585b1a5e995960921b606082015260800190565b60208082526021908201527f5468652063616c6c6572206d7573742062652074686520506f6c696379506f6f6040820152601b60fa1b606082015260800190565b6000821982111561377857613778613865565b500190565b60008261379a57634e487b7160e01b600052601260045260246000fd5b500490565b60008160001904831182151516156137b9576137b9613865565b500290565b6000828210156137d0576137d0613865565b500390565b600064ffffffffff838116908316818110156137f3576137f3613865565b039392505050565b600060ff821660ff84168082101561381557613815613865565b90039392505050565b60005b83811015613839578181015183820152602001613821565b838111156109d85750506000910152565b600060001982141561385e5761385e613865565b5060010190565b634e487b7160e01b600052601160045260246000fd5b634e487b7160e01b600052602160045260246000fd5b634e487b7160e01b600052604160045260246000fd5b6001600160a01b0381168114610bc857600080fd5b8015158114610bc857600080fdfe5ec196419322369c6bac572d883f4d990ae5ec82f7d93cdf89b85dbb05b63c27416464726573733a206c6f772d6c6576656c2064656c65676174652063616c6c206661696c6564a82e22387fca439f316d78ca566f383218ab8ae1b3e830178c9c82cbd16749c055435dd261a4b9b3364963f7738a7a662ad9c84396d64be3365284bb7f0a5041a26469706673582212204839f70aa95878800f203d501652ee4d2bd22952322f96cd4dc1f3a2b5bd036364736f6c63430008060033",
  "linkReferences": {},
  "deployedLinkReferences": {}
}