{
  "_format": "hh-sol-artifact-1",
  "contractName": "PolicyPool",
  "sourceName": "contracts/PolicyPool.sol",
  "abi": [
    {
      "inputs": [
        {
          "internalType": "contract IPolicyPoolConfig",
          "name": "config_",
          "type": "address"
        },
        {
          "internalType": "contract IPolicyNFT",
          "name": "policyNFT_",
          "type": "address"
        },
        {
          "internalType": "contract IERC20Metadata",
          "name": "currency_",
          "type": "address"
        }
      ],
      "stateMutability": "nonpayable",
      "type": "constructor"
    },
    {
      "anonymous": false,
      "inputs": [
        {
          "indexed": false,
          "internalType": "address",
          "name": "previousAdmin",
          "type": "address"
        },
        {
          "indexed": false,
          "internalType": "address",
          "name": "newAdmin",
          "type": "address"
        }
      ],
      "name": "AdminChanged",
      "type": "event"
    },
    {
      "anonymous": false,
      "inputs": [
        {
          "indexed": true,
          "internalType": "address",
          "name": "beacon",
          "type": "address"
        }
      ],
      "name": "BeaconUpgraded",
      "type": "event"
    },
    {
      "anonymous": false,
      "inputs": [
        {
          "indexed": true,
          "internalType": "contract IEToken",
          "name": "eToken",
          "type": "address"
        },
        {
          "indexed": false,
          "internalType": "enum DataTypes.ETokenStatus",
          "name": "newStatus",
          "type": "uint8"
        }
      ],
      "name": "ETokenStatusChanged",
      "type": "event"
    },
    {
      "anonymous": false,
      "inputs": [
        {
          "indexed": true,
          "internalType": "contract IRiskModule",
          "name": "riskModule",
          "type": "address"
        },
        {
          "components": [
            {
              "internalType": "uint256",
              "name": "id",
              "type": "uint256"
            },
            {
              "internalType": "uint256",
              "name": "payout",
              "type": "uint256"
            },
            {
              "internalType": "uint256",
              "name": "premium",
              "type": "uint256"
            },
            {
              "internalType": "uint256",
              "name": "scr",
              "type": "uint256"
            },
            {
              "internalType": "uint256",
              "name": "lossProb",
              "type": "uint256"
            },
            {
              "internalType": "uint256",
              "name": "purePremium",
              "type": "uint256"
            },
            {
              "internalType": "uint256",
              "name": "premiumForEnsuro",
              "type": "uint256"
            },
            {
              "internalType": "uint256",
              "name": "premiumForRm",
              "type": "uint256"
            },
            {
              "internalType": "uint256",
              "name": "premiumForLps",
              "type": "uint256"
            },
            {
              "internalType": "contract IRiskModule",
              "name": "riskModule",
              "type": "address"
            },
            {
              "internalType": "uint40",
              "name": "start",
              "type": "uint40"
            },
            {
              "internalType": "uint40",
              "name": "expiration",
              "type": "uint40"
            }
          ],
          "indexed": false,
          "internalType": "struct Policy.PolicyData",
          "name": "policy",
          "type": "tuple"
        }
      ],
      "name": "NewPolicy",
      "type": "event"
    },
    {
      "anonymous": false,
      "inputs": [
        {
          "indexed": false,
          "internalType": "address",
          "name": "account",
          "type": "address"
        }
      ],
      "name": "Paused",
      "type": "event"
    },
    {
      "anonymous": false,
      "inputs": [
        {
          "indexed": true,
          "internalType": "contract IRiskModule",
          "name": "riskModule",
          "type": "address"
        },
        {
          "indexed": true,
          "internalType": "uint256",
          "name": "policyId",
          "type": "uint256"
        }
      ],
      "name": "PolicyRebalanced",
      "type": "event"
    },
    {
      "anonymous": false,
      "inputs": [
        {
          "indexed": true,
          "internalType": "contract IRiskModule",
          "name": "riskModule",
          "type": "address"
        },
        {
          "indexed": true,
          "internalType": "uint256",
          "name": "policyId",
          "type": "uint256"
        },
        {
          "indexed": false,
          "internalType": "uint256",
          "name": "payout",
          "type": "uint256"
        }
      ],
      "name": "PolicyResolved",
      "type": "event"
    },
    {
      "anonymous": false,
      "inputs": [
        {
          "indexed": false,
          "internalType": "address",
          "name": "account",
          "type": "address"
        }
      ],
      "name": "Unpaused",
      "type": "event"
    },
    {
      "anonymous": false,
      "inputs": [
        {
          "indexed": true,
          "internalType": "address",
          "name": "implementation",
          "type": "address"
        }
      ],
      "name": "Upgraded",
      "type": "event"
    },
    {
      "anonymous": false,
      "inputs": [
        {
          "indexed": false,
          "internalType": "bool",
          "name": "moneyIn",
          "type": "bool"
        },
        {
          "indexed": false,
          "internalType": "uint256",
          "name": "value",
          "type": "uint256"
        }
      ],
      "name": "WonPremiumsInOut",
      "type": "event"
    },
    {
      "inputs": [],
      "name": "GUARDIAN_ROLE",
      "outputs": [
        {
          "internalType": "bytes32",
          "name": "",
          "type": "bytes32"
        }
      ],
      "stateMutability": "view",
      "type": "function"
    },
    {
      "inputs": [],
      "name": "LEVEL1_ROLE",
      "outputs": [
        {
          "internalType": "bytes32",
          "name": "",
          "type": "bytes32"
        }
      ],
      "stateMutability": "view",
      "type": "function"
    },
    {
      "inputs": [],
      "name": "LEVEL2_ROLE",
      "outputs": [
        {
          "internalType": "bytes32",
          "name": "",
          "type": "bytes32"
        }
      ],
      "stateMutability": "view",
      "type": "function"
    },
    {
      "inputs": [],
      "name": "LEVEL3_ROLE",
      "outputs": [
        {
          "internalType": "bytes32",
          "name": "",
          "type": "bytes32"
        }
      ],
      "stateMutability": "view",
      "type": "function"
    },
    {
      "inputs": [],
      "name": "MAX_ETOKENS",
      "outputs": [
        {
          "internalType": "uint256",
          "name": "",
          "type": "uint256"
        }
      ],
      "stateMutability": "view",
      "type": "function"
    },
    {
      "inputs": [],
      "name": "NEGLIGIBLE_AMOUNT",
      "outputs": [
        {
          "internalType": "uint256",
          "name": "",
          "type": "uint256"
        }
      ],
      "stateMutability": "view",
      "type": "function"
    },
    {
      "inputs": [],
      "name": "REBALANCE_ROLE",
      "outputs": [
        {
          "internalType": "bytes32",
          "name": "",
          "type": "bytes32"
        }
      ],
      "stateMutability": "view",
      "type": "function"
    },
    {
      "inputs": [],
      "name": "WITHDRAW_WON_PREMIUMS_ROLE",
      "outputs": [
        {
          "internalType": "bytes32",
          "name": "",
          "type": "bytes32"
        }
      ],
      "stateMutability": "view",
      "type": "function"
    },
    {
      "inputs": [],
      "name": "activePremiums",
      "outputs": [
        {
          "internalType": "uint256",
          "name": "",
          "type": "uint256"
        }
      ],
      "stateMutability": "view",
      "type": "function"
    },
    {
      "inputs": [],
      "name": "activePurePremiums",
      "outputs": [
        {
          "internalType": "uint256",
          "name": "",
          "type": "uint256"
        }
      ],
      "stateMutability": "view",
      "type": "function"
    },
    {
      "inputs": [
        {
          "internalType": "contract IEToken",
          "name": "eToken",
          "type": "address"
        }
      ],
      "name": "addEToken",
      "outputs": [],
      "stateMutability": "nonpayable",
      "type": "function"
    },
    {
      "inputs": [
        {
          "internalType": "uint256",
          "name": "amount",
          "type": "uint256"
        },
        {
          "internalType": "bool",
          "name": "positive",
          "type": "bool"
        }
      ],
      "name": "assetEarnings",
      "outputs": [],
      "stateMutability": "nonpayable",
      "type": "function"
    },
    {
      "inputs": [],
      "name": "borrowedActivePP",
      "outputs": [
        {
          "internalType": "uint256",
          "name": "",
          "type": "uint256"
        }
      ],
      "stateMutability": "view",
      "type": "function"
    },
    {
      "inputs": [
        {
          "internalType": "contract IEToken",
          "name": "eToken",
          "type": "address"
        },
        {
          "internalType": "enum DataTypes.ETokenStatus",
          "name": "newStatus",
          "type": "uint8"
        }
      ],
      "name": "changeETokenStatus",
      "outputs": [],
      "stateMutability": "nonpayable",
      "type": "function"
    },
    {
      "inputs": [],
      "name": "config",
      "outputs": [
        {
          "internalType": "contract IPolicyPoolConfig",
          "name": "",
          "type": "address"
        }
      ],
      "stateMutability": "view",
      "type": "function"
    },
    {
      "inputs": [],
      "name": "currency",
      "outputs": [
        {
          "internalType": "contract IERC20Metadata",
          "name": "",
          "type": "address"
        }
      ],
      "stateMutability": "view",
      "type": "function"
    },
    {
      "inputs": [
        {
          "internalType": "contract IEToken",
          "name": "eToken",
          "type": "address"
        },
        {
          "internalType": "uint256",
          "name": "amount",
          "type": "uint256"
        }
      ],
      "name": "deposit",
      "outputs": [],
      "stateMutability": "nonpayable",
      "type": "function"
    },
    {
      "inputs": [
        {
          "components": [
            {
              "internalType": "uint256",
              "name": "id",
              "type": "uint256"
            },
            {
              "internalType": "uint256",
              "name": "payout",
              "type": "uint256"
            },
            {
              "internalType": "uint256",
              "name": "premium",
              "type": "uint256"
            },
            {
              "internalType": "uint256",
              "name": "scr",
              "type": "uint256"
            },
            {
              "internalType": "uint256",
              "name": "lossProb",
              "type": "uint256"
            },
            {
              "internalType": "uint256",
              "name": "purePremium",
              "type": "uint256"
            },
            {
              "internalType": "uint256",
              "name": "premiumForEnsuro",
              "type": "uint256"
            },
            {
              "internalType": "uint256",
              "name": "premiumForRm",
              "type": "uint256"
            },
            {
              "internalType": "uint256",
              "name": "premiumForLps",
              "type": "uint256"
            },
            {
              "internalType": "contract IRiskModule",
              "name": "riskModule",
              "type": "address"
            },
            {
              "internalType": "uint40",
              "name": "start",
              "type": "uint40"
            },
            {
              "internalType": "uint40",
              "name": "expiration",
              "type": "uint40"
            }
          ],
          "internalType": "struct Policy.PolicyData",
          "name": "policy",
          "type": "tuple"
        }
      ],
      "name": "expirePolicy",
      "outputs": [],
      "stateMutability": "nonpayable",
      "type": "function"
    },
    {
      "inputs": [
        {
          "internalType": "uint256",
          "name": "index",
          "type": "uint256"
        }
      ],
      "name": "getETokenAt",
      "outputs": [
        {
          "internalType": "contract IEToken",
          "name": "",
          "type": "address"
        }
      ],
      "stateMutability": "view",
      "type": "function"
    },
    {
      "inputs": [],
      "name": "getETokenCount",
      "outputs": [
        {
          "internalType": "uint256",
          "name": "",
          "type": "uint256"
        }
      ],
      "stateMutability": "view",
      "type": "function"
    },
    {
      "inputs": [
        {
          "internalType": "contract IEToken",
          "name": "eToken",
          "type": "address"
        }
      ],
      "name": "getETokenStatus",
      "outputs": [
        {
          "internalType": "enum DataTypes.ETokenStatus",
          "name": "",
          "type": "uint8"
        }
      ],
      "stateMutability": "view",
      "type": "function"
    },
    {
      "inputs": [],
      "name": "getInvestable",
      "outputs": [
        {
          "internalType": "uint256",
          "name": "",
          "type": "uint256"
        }
      ],
      "stateMutability": "view",
      "type": "function"
    },
    {
      "inputs": [
        {
          "internalType": "uint256",
          "name": "policyId",
          "type": "uint256"
        },
        {
          "internalType": "contract IEToken",
          "name": "etoken",
          "type": "address"
        }
      ],
      "name": "getPolicyFund",
      "outputs": [
        {
          "internalType": "uint256",
          "name": "",
          "type": "uint256"
        }
      ],
      "stateMutability": "view",
      "type": "function"
    },
    {
      "inputs": [
        {
          "internalType": "uint256",
          "name": "policyId",
          "type": "uint256"
        },
        {
          "internalType": "uint256",
          "name": "index",
          "type": "uint256"
        }
      ],
      "name": "getPolicyFundAt",
      "outputs": [
        {
          "internalType": "contract IEToken",
          "name": "",
          "type": "address"
        },
        {
          "internalType": "uint256",
          "name": "",
          "type": "uint256"
        }
      ],
      "stateMutability": "view",
      "type": "function"
    },
    {
      "inputs": [
        {
          "internalType": "uint256",
          "name": "policyId",
          "type": "uint256"
        }
      ],
      "name": "getPolicyFundCount",
      "outputs": [
        {
          "internalType": "uint256",
          "name": "",
          "type": "uint256"
        }
      ],
      "stateMutability": "view",
      "type": "function"
    },
    {
      "inputs": [],
      "name": "initialize",
      "outputs": [],
      "stateMutability": "nonpayable",
      "type": "function"
    },
    {
      "inputs": [
        {
          "components": [
            {
              "internalType": "uint256",
              "name": "id",
              "type": "uint256"
            },
            {
              "internalType": "uint256",
              "name": "payout",
              "type": "uint256"
            },
            {
              "internalType": "uint256",
              "name": "premium",
              "type": "uint256"
            },
            {
              "internalType": "uint256",
              "name": "scr",
              "type": "uint256"
            },
            {
              "internalType": "uint256",
              "name": "lossProb",
              "type": "uint256"
            },
            {
              "internalType": "uint256",
              "name": "purePremium",
              "type": "uint256"
            },
            {
              "internalType": "uint256",
              "name": "premiumForEnsuro",
              "type": "uint256"
            },
            {
              "internalType": "uint256",
              "name": "premiumForRm",
              "type": "uint256"
            },
            {
              "internalType": "uint256",
              "name": "premiumForLps",
              "type": "uint256"
            },
            {
              "internalType": "contract IRiskModule",
              "name": "riskModule",
              "type": "address"
            },
            {
              "internalType": "uint40",
              "name": "start",
              "type": "uint40"
            },
            {
              "internalType": "uint40",
              "name": "expiration",
              "type": "uint40"
            }
          ],
          "internalType": "struct Policy.PolicyData",
          "name": "policy",
          "type": "tuple"
        },
        {
          "internalType": "address",
          "name": "customer",
          "type": "address"
        }
      ],
      "name": "newPolicy",
      "outputs": [
        {
          "internalType": "uint256",
          "name": "",
          "type": "uint256"
        }
      ],
      "stateMutability": "nonpayable",
      "type": "function"
    },
    {
      "inputs": [],
      "name": "pause",
      "outputs": [],
      "stateMutability": "nonpayable",
      "type": "function"
    },
    {
      "inputs": [],
      "name": "paused",
      "outputs": [
        {
          "internalType": "bool",
          "name": "",
          "type": "bool"
        }
      ],
      "stateMutability": "view",
      "type": "function"
    },
    {
      "inputs": [],
      "name": "policyNFT",
      "outputs": [
        {
          "internalType": "address",
          "name": "",
          "type": "address"
        }
      ],
      "stateMutability": "view",
      "type": "function"
    },
    {
      "inputs": [],
      "name": "purePremiums",
      "outputs": [
        {
          "internalType": "uint256",
          "name": "",
          "type": "uint256"
        }
      ],
      "stateMutability": "view",
      "type": "function"
    },
    {
      "inputs": [
        {
          "components": [
            {
              "internalType": "uint256",
              "name": "id",
              "type": "uint256"
            },
            {
              "internalType": "uint256",
              "name": "payout",
              "type": "uint256"
            },
            {
              "internalType": "uint256",
              "name": "premium",
              "type": "uint256"
            },
            {
              "internalType": "uint256",
              "name": "scr",
              "type": "uint256"
            },
            {
              "internalType": "uint256",
              "name": "lossProb",
              "type": "uint256"
            },
            {
              "internalType": "uint256",
              "name": "purePremium",
              "type": "uint256"
            },
            {
              "internalType": "uint256",
              "name": "premiumForEnsuro",
              "type": "uint256"
            },
            {
              "internalType": "uint256",
              "name": "premiumForRm",
              "type": "uint256"
            },
            {
              "internalType": "uint256",
              "name": "premiumForLps",
              "type": "uint256"
            },
            {
              "internalType": "contract IRiskModule",
              "name": "riskModule",
              "type": "address"
            },
            {
              "internalType": "uint40",
              "name": "start",
              "type": "uint40"
            },
            {
              "internalType": "uint40",
              "name": "expiration",
              "type": "uint40"
            }
          ],
          "internalType": "struct Policy.PolicyData",
          "name": "policy",
          "type": "tuple"
        }
      ],
      "name": "rebalancePolicy",
      "outputs": [],
      "stateMutability": "nonpayable",
      "type": "function"
    },
    {
      "inputs": [
        {
          "internalType": "uint256",
          "name": "amount",
          "type": "uint256"
        }
      ],
      "name": "receiveGrant",
      "outputs": [],
      "stateMutability": "nonpayable",
      "type": "function"
    },
    {
      "inputs": [
        {
          "internalType": "contract IEToken",
          "name": "eToken",
          "type": "address"
        }
      ],
      "name": "removeEToken",
      "outputs": [],
      "stateMutability": "nonpayable",
      "type": "function"
    },
    {
      "inputs": [
        {
          "internalType": "contract IEToken",
          "name": "eToken",
          "type": "address"
        }
      ],
      "name": "repayETokenLoan",
      "outputs": [
        {
          "internalType": "uint256",
          "name": "",
          "type": "uint256"
        }
      ],
      "stateMutability": "nonpayable",
      "type": "function"
    },
    {
      "inputs": [
        {
          "components": [
            {
              "internalType": "uint256",
              "name": "id",
              "type": "uint256"
            },
            {
              "internalType": "uint256",
              "name": "payout",
              "type": "uint256"
            },
            {
              "internalType": "uint256",
              "name": "premium",
              "type": "uint256"
            },
            {
              "internalType": "uint256",
              "name": "scr",
              "type": "uint256"
            },
            {
              "internalType": "uint256",
              "name": "lossProb",
              "type": "uint256"
            },
            {
              "internalType": "uint256",
              "name": "purePremium",
              "type": "uint256"
            },
            {
              "internalType": "uint256",
              "name": "premiumForEnsuro",
              "type": "uint256"
            },
            {
              "internalType": "uint256",
              "name": "premiumForRm",
              "type": "uint256"
            },
            {
              "internalType": "uint256",
              "name": "premiumForLps",
              "type": "uint256"
            },
            {
              "internalType": "contract IRiskModule",
              "name": "riskModule",
              "type": "address"
            },
            {
              "internalType": "uint40",
              "name": "start",
              "type": "uint40"
            },
            {
              "internalType": "uint40",
              "name": "expiration",
              "type": "uint40"
            }
          ],
          "internalType": "struct Policy.PolicyData",
          "name": "policy",
          "type": "tuple"
        },
        {
          "internalType": "uint256",
          "name": "payout",
          "type": "uint256"
        }
      ],
      "name": "resolvePolicy",
      "outputs": [],
      "stateMutability": "nonpayable",
      "type": "function"
    },
    {
      "inputs": [
        {
          "components": [
            {
              "internalType": "uint256",
              "name": "id",
              "type": "uint256"
            },
            {
              "internalType": "uint256",
              "name": "payout",
              "type": "uint256"
            },
            {
              "internalType": "uint256",
              "name": "premium",
              "type": "uint256"
            },
            {
              "internalType": "uint256",
              "name": "scr",
              "type": "uint256"
            },
            {
              "internalType": "uint256",
              "name": "lossProb",
              "type": "uint256"
            },
            {
              "internalType": "uint256",
              "name": "purePremium",
              "type": "uint256"
            },
            {
              "internalType": "uint256",
              "name": "premiumForEnsuro",
              "type": "uint256"
            },
            {
              "internalType": "uint256",
              "name": "premiumForRm",
              "type": "uint256"
            },
            {
              "internalType": "uint256",
              "name": "premiumForLps",
              "type": "uint256"
            },
            {
              "internalType": "contract IRiskModule",
              "name": "riskModule",
              "type": "address"
            },
            {
              "internalType": "uint40",
              "name": "start",
              "type": "uint40"
            },
            {
              "internalType": "uint40",
              "name": "expiration",
              "type": "uint40"
            }
          ],
          "internalType": "struct Policy.PolicyData",
          "name": "policy",
          "type": "tuple"
        },
        {
          "internalType": "bool",
          "name": "customerWon",
          "type": "bool"
        }
      ],
      "name": "resolvePolicyFullPayout",
      "outputs": [],
      "stateMutability": "nonpayable",
      "type": "function"
    },
    {
      "inputs": [
        {
          "internalType": "contract IAssetManager",
          "name": "newAssetManager",
          "type": "address"
        }
      ],
      "name": "setAssetManager",
      "outputs": [],
      "stateMutability": "nonpayable",
      "type": "function"
    },
    {
      "inputs": [],
      "name": "totalETokenSupply",
      "outputs": [
        {
          "internalType": "uint256",
          "name": "",
          "type": "uint256"
        }
      ],
      "stateMutability": "view",
      "type": "function"
    },
    {
      "inputs": [],
      "name": "unpause",
      "outputs": [],
      "stateMutability": "nonpayable",
      "type": "function"
    },
    {
      "inputs": [
        {
          "internalType": "address",
          "name": "newImplementation",
          "type": "address"
        }
      ],
      "name": "upgradeTo",
      "outputs": [],
      "stateMutability": "nonpayable",
      "type": "function"
    },
    {
      "inputs": [
        {
          "internalType": "address",
          "name": "newImplementation",
          "type": "address"
        },
        {
          "internalType": "bytes",
          "name": "data",
          "type": "bytes"
        }
      ],
      "name": "upgradeToAndCall",
      "outputs": [],
      "stateMutability": "payable",
      "type": "function"
    },
    {
      "inputs": [
        {
          "internalType": "contract IEToken",
          "name": "eToken",
          "type": "address"
        },
        {
          "internalType": "uint256",
          "name": "amount",
          "type": "uint256"
        }
      ],
      "name": "withdraw",
      "outputs": [
        {
          "internalType": "uint256",
          "name": "",
          "type": "uint256"
        }
      ],
      "stateMutability": "nonpayable",
      "type": "function"
    },
    {
      "inputs": [
        {
          "internalType": "uint256",
          "name": "amount",
          "type": "uint256"
        }
      ],
      "name": "withdrawWonPremiums",
      "outputs": [
        {
          "internalType": "uint256",
          "name": "",
          "type": "uint256"
        }
      ],
      "stateMutability": "nonpayable",
      "type": "function"
    },
    {
      "inputs": [],
      "name": "wonPurePremiums",
      "outputs": [
        {
          "internalType": "uint256",
          "name": "",
          "type": "uint256"
        }
      ],
      "stateMutability": "view",
      "type": "function"
    }
  ],
  "bytecode": "0x6101206040523060601b6080523480156200001957600080fd5b50604051620060d2380380620060d28339810160408190526200003c9162000105565b6001600160601b0319606084811b821660c05283811b82166101005282901b1660e0526040805163313ce56760e01b815290516003916001600160a01b0384169163313ce56791600480820192602092909190829003018186803b158015620000a457600080fd5b505afa158015620000b9573d6000803e3d6000fd5b505050506040513d601f19601f82011682018060405250810190620000df919062000159565b620000eb91906200028f565b620000f890600a620001ce565b60a05250620002e4915050565b6000806000606084860312156200011b57600080fd5b83516200012881620002cb565b60208501519093506200013b81620002cb565b60408501519092506200014e81620002cb565b809150509250925092565b6000602082840312156200016c57600080fd5b815160ff811681146200017e57600080fd5b9392505050565b600181815b80851115620001c6578160001904821115620001aa57620001aa620002b5565b80851615620001b857918102915b93841c93908002906200018a565b509250929050565b60006200017e60ff841683600082620001ea5750600162000289565b81620001f95750600062000289565b81600181146200021257600281146200021d576200023d565b600191505062000289565b60ff841115620002315762000231620002b5565b50506001821b62000289565b5060208310610133831016604e8410600b841016171562000262575081810a62000289565b6200026e838362000185565b8060001904821115620002855762000285620002b5565b0290505b92915050565b600060ff821660ff841680821015620002ac57620002ac620002b5565b90039392505050565b634e487b7160e01b600052601160045260246000fd5b6001600160a01b0381168114620002e157600080fd5b50565b60805160601c60a05160c05160601c60e05160601c6101005160601c615c856200044d600039600081816106a201528181612474015281816133ea0152613d5d0152600081816107ab01528181610eac01528181611022015281816111410152818161164e01528181612428015281816138b10152614a2c01526000818161053d01528181610c2901528181610c9601528181610d2a01528181610dc901528181610edb015281816112e4015281816116e80152818161179a0152818161187201528181611a2501528181611dde01528181611f88015281816123bb015281816127610152818161285801528181612a7601528181612e5e0152818161325f015281816132dd01528181613542015281816135f5015281816136f1015281816137a40152613e9001526000818161038601528181612b8401528181612bb8015261426c015260008181610b2001528181610b60015281816111fb015261123b0152615c856000f3fe6080604052600436106102725760003560e01c80638129fc1c1161014f578063b63d382e116100c1578063e823584a1161007a578063e823584a146107cf578063ea1a7679146107e4578063f02839c1146107f9578063f3fef3a314610819578063f67b2bad14610839578063fcbb17fe1461085b57600080fd5b8063b63d382e146106e6578063b77ddfea14610706578063ca143d181461071b578063ce937e7b14610748578063dea167d514610787578063e5a6b10f1461079c57600080fd5b80638ca23bc9116101135780638ca23bc9146105ff57806398e88ca8146106335780639e556b2b14610653578063ab60016914610673578063af02808a14610693578063b0ec4bcf146106c657600080fd5b80638129fc1c1461057557806381ced71f1461058a5780638456cb59146105aa578063846253d1146105bf5780638a9defff146105df57600080fd5b806347e7ef24116101e85780635b494dd5116101ac5780635b494dd51461048d5780635c975abb146104c157806363c0f4b1146104e457806365b71008146104f957806365e29c7e1461051957806379502c551461052e57600080fd5b806347e7ef24146103dd5780634a47a3e0146103fd5780634f1ef28614610431578063536c9a43146104445780635680e1451461045957600080fd5b806326ccbd221161023a57806326ccbd221461031f5780632a2be82d146103345780633659cfe614610354578063396512fd146103745780633f4ba83a146103a857806343060237146103bd57600080fd5b8063066dda0e146102775780631a548a27146102995780631c5c4aea146102bd578063220c262b146102dd57806324ea54f4146102fd575b600080fd5b34801561028357600080fd5b5061029761029236600461568e565b61087b565b005b3480156102a557600080fd5b5060cf545b6040519081526020015b60405180910390f35b3480156102c957600080fd5b506102aa6102d8366004615736565b6108d6565b3480156102e957600080fd5b506102aa6102f836600461578d565b6108f3565b34801561030957600080fd5b506102aa600080516020615c3083398151915281565b34801561032b57600080fd5b506102aa610935565b34801561034057600080fd5b506102aa61034f366004615509565b610959565b34801561036057600080fd5b5061029761036f366004615509565b610b15565b34801561038057600080fd5b506102aa7f000000000000000000000000000000000000000000000000000000000000000081565b3480156103b457600080fd5b50610297610bde565b3480156103c957600080fd5b506102976103d8366004615509565b610c8b565b3480156103e957600080fd5b506102976103f8366004615645565b61109e565b34801561040957600080fd5b506102aa7fa82e22387fca439f316d78ca566f383218ab8ae1b3e830178c9c82cbd16749c081565b61029761043f366004615543565b6111f0565b34801561045057600080fd5b5060d1546102aa565b34801561046557600080fd5b506102aa7f2c09deb013d6a86a9063c95b5e2b10937d1128a3937347eb7e00408ed9fb1a9c81565b34801561049957600080fd5b506102aa7f5ec196419322369c6bac572d883f4d990ae5ec82f7d93cdf89b85dbb05b63c2781565b3480156104cd57600080fd5b5060335460ff1660405190151581526020016102b4565b3480156104f057600080fd5b506102aa600a81565b34801561050557600080fd5b50610297610514366004615509565b6112a6565b34801561052557600080fd5b506102aa6114c3565b34801561053a57600080fd5b507f00000000000000000000000000000000000000000000000000000000000000005b6040516001600160a01b0390911681526020016102b4565b34801561058157600080fd5b506102976115be565b34801561059657600080fd5b506102976105a5366004615736565b611641565b3480156105b657600080fd5b506102976116bc565b3480156105cb57600080fd5b506102aa6105da366004615736565b611752565b3480156105eb57600080fd5b506102976105fa366004615671565b611948565b34801561060b57600080fd5b506102aa7fa23b11d346b90fc279e0a917152caf41f3c1247b12211b7cbc0e0e3f8b79405781565b34801561063f57600080fd5b5061029761064e366004615671565b6119e7565b34801561065f57600080fd5b5061029761066e3660046156bd565b611d9f565b34801561067f57600080fd5b5061029761068e366004615768565b611ddc565b34801561069f57600080fd5b507f000000000000000000000000000000000000000000000000000000000000000061055d565b3480156106d257600080fd5b5061055d6106e1366004615736565b611f1e565b3480156106f257600080fd5b50610297610701366004615509565b611f5c565b34801561071257600080fd5b506102aa61220b565b34801561072757600080fd5b5061073b610736366004615509565b6122c8565b6040516102b4919061580b565b34801561075457600080fd5b506107686107633660046157b2565b6122d5565b604080516001600160a01b0390931683526020830191909152016102b4565b34801561079357600080fd5b506102aa6122fb565b3480156107a857600080fd5b507f000000000000000000000000000000000000000000000000000000000000000061055d565b3480156107db57600080fd5b5060d0546102aa565b3480156107f057600080fd5b5060ce546102aa565b34801561080557600080fd5b506102aa610814366004615707565b612307565b34801561082557600080fd5b506102aa610834366004615645565b6125a0565b34801561084557600080fd5b506102aa600080516020615be983398151915281565b34801561086757600080fd5b50610297610876366004615608565b612716565b60335460ff16156108a75760405162461bcd60e51b815260040161089e906158fe565b60405180910390fd5b6108d26108b9368490038401846156ea565b826108c55760006108cb565b83602001355b6000612984565b5050565b600081815260cd602052604081206108ed90612ce9565b92915050565b600082815260cd602052604081208190819061090f9085612cf4565b9150915081156109225791506108ed9050565b6000925050506108ed565b505092915050565b600060d05460d15460cf5461094a9190615a7a565b6109549190615ad3565b905090565b600061096760335460ff1690565b156109845760405162461bcd60e51b815260040161089e906158fe565b60008061099260c985612d10565b915091508180156109cf575060018160038111156109b2576109b2615b6d565b14806109cf575060028160038111156109cd576109cd615b6d565b145b610a125760405162461bcd60e51b815260206004820152601460248201527365546f6b656e206973206e6f742061637469766560601b604482015260640161089e565b6000846001600160a01b03166352a2783b6040518163ffffffff1660e01b815260040160206040518083038186803b158015610a4d57600080fd5b505afa158015610a61573d6000803e3d6000fd5b505050506040513d601f19601f82011682018060405250810190610a85919061574f565b90506000610a9282612d43565b90506001600160a01b038616631c0f4f81610aad8385615ad3565b6040518263ffffffff1660e01b8152600401610acb91815260200190565b600060405180830381600087803b158015610ae557600080fd5b505af1158015610af9573d6000803e3d6000fd5b505050508082610b099190615ad3565b9450505050505b919050565b306001600160a01b037f0000000000000000000000000000000000000000000000000000000000000000161415610b5e5760405162461bcd60e51b815260040161089e90615866565b7f00000000000000000000000000000000000000000000000000000000000000006001600160a01b0316610b90612de5565b6001600160a01b031614610bb65760405162461bcd60e51b815260040161089e906158b2565b610bbf81612e13565b60408051600080825260208201909252610bdb91839190612ebd565b50565b60405163c5b8f5cf60e01b8152600080516020615c3083398151915260048201819052600080516020615be98339815191526024830181905233604484015290916001600160a01b037f0000000000000000000000000000000000000000000000000000000000000000169063c5b8f5cf9060640160006040518083038186803b158015610c6b57600080fd5b505afa158015610c7f573d6000803e3d6000fd5b505050506108d2613001565b336001600160a01b037f00000000000000000000000000000000000000000000000000000000000000001614610d1d5760405162461bcd60e51b815260206004820152603160248201527f4f6e6c792074686520506f6c696379506f6f6c436f6e6669672063616e20636860448201527030b733b29030b9b9b2ba26b0b730b3b2b960791b606482015260840161089e565b60006001600160a01b03167f00000000000000000000000000000000000000000000000000000000000000006001600160a01b03166394217ad16040518163ffffffff1660e01b815260040160206040518083038186803b158015610d8157600080fd5b505afa158015610d95573d6000803e3d6000fd5b505050506040513d601f19601f82011682018060405250810190610db99190615526565b6001600160a01b031614610fec577f00000000000000000000000000000000000000000000000000000000000000006001600160a01b03166394217ad16040518163ffffffff1660e01b815260040160206040518083038186803b158015610e2057600080fd5b505afa158015610e34573d6000803e3d6000fd5b505050506040513d601f19601f82011682018060405250810190610e589190615526565b6001600160a01b031663cec16f3f6040518163ffffffff1660e01b8152600401600060405180830381600087803b158015610e9257600080fd5b505af1158015610ea6573d6000803e3d6000fd5b505050507f00000000000000000000000000000000000000000000000000000000000000006001600160a01b031663095ea7b37f00000000000000000000000000000000000000000000000000000000000000006001600160a01b03166394217ad16040518163ffffffff1660e01b815260040160206040518083038186803b158015610f3257600080fd5b505afa158015610f46573d6000803e3d6000fd5b505050506040513d601f19601f82011682018060405250810190610f6a9190615526565b6040516001600160e01b031960e084901b1681526001600160a01b03909116600482015260006024820152604401602060405180830381600087803b158015610fb257600080fd5b505af1158015610fc6573d6000803e3d6000fd5b505050506040513d601f19601f82011682018060405250810190610fea91906155eb565b505b6001600160a01b03811615610bdb5760405163095ea7b360e01b81526001600160a01b03828116600483015260001960248301527f0000000000000000000000000000000000000000000000000000000000000000169063095ea7b390604401602060405180830381600087803b15801561106657600080fd5b505af115801561107a573d6000803e3d6000fd5b505050506040513d601f19601f820116820180604052508101906108d291906155eb565b60335460ff16156110c15760405162461bcd60e51b815260040161089e906158fe565b6000806110cf60c985612d10565b915091508180156110f1575060018160038111156110ef576110ef615b6d565b145b6111345760405162461bcd60e51b815260206004820152601460248201527365546f6b656e206973206e6f742061637469766560601b604482015260640161089e565b6111696001600160a01b037f000000000000000000000000000000000000000000000000000000000000000016333086613094565b6040516311f9fbc960e21b8152336004820152602481018490526001600160a01b038516906347e7ef2490604401602060405180830381600087803b1580156111b157600080fd5b505af11580156111c5573d6000803e3d6000fd5b505050506040513d601f19601f820116820180604052508101906111e9919061574f565b5050505050565b306001600160a01b037f00000000000000000000000000000000000000000000000000000000000000001614156112395760405162461bcd60e51b815260040161089e90615866565b7f00000000000000000000000000000000000000000000000000000000000000006001600160a01b031661126b612de5565b6001600160a01b0316146112915760405162461bcd60e51b815260040161089e906158b2565b61129a82612e13565b6108d282826001612ebd565b6040516312d9a6ad60e01b81527f5ec196419322369c6bac572d883f4d990ae5ec82f7d93cdf89b85dbb05b63c2760048201819052336024830152907f00000000000000000000000000000000000000000000000000000000000000006001600160a01b0316906312d9a6ad9060440160006040518083038186803b15801561132e57600080fd5b505afa158015611342573d6000803e3d6000fd5b506002925061134f915050565b61135a60c984613105565b600381111561136b5761136b615b6d565b146113b05760405162461bcd60e51b815260206004820152601560248201527411551bdad95b881b9bdd0819195c1c9958d85d1959605a1b604482015260640161089e565b816001600160a01b03166318160ddd6040518163ffffffff1660e01b815260040160206040518083038186803b1580156113e957600080fd5b505afa1580156113fd573d6000803e3d6000fd5b505050506040513d601f19601f82011682018060405250810190611421919061574f565b1561147d5760405162461bcd60e51b815260206004820152602660248201527f45546f6b656e20686173206c69717569646974792c2063616e27742062652072604482015265195b5bdd995960d21b606482015260840161089e565b816001600160a01b03167f84b036748e342a63da09ea533edd13275c8f2eb94ba67374cd3c7f4d6461d52c60006040516114b7919061580b565b60405180910390a25050565b600080805b6114d260c9612ce9565b81101561157a5760006114e660c983613129565b509050806001600160a01b03166352a2783b6040518163ffffffff1660e01b815260040160206040518083038186803b15801561152257600080fd5b505afa158015611536573d6000803e3d6000fd5b505050506040513d601f19601f8201168201806040525081019061155a919061574f565b6115649084615a7a565b925050808061157290615b3c565b9150506114c8565b50600060d05460d15460ce546115909190615a7a565b61159a9190615ad3565b9050818111156115b5576115ae8282615ad3565b9250505090565b60009250505090565b600054610100900460ff16806115d7575060005460ff16155b6115f35760405162461bcd60e51b815260040161089e90615928565b600054610100900460ff16158015611615576000805461ffff19166101011790555b61161d613138565b61162561319f565b61162d613206565b8015610bdb576000805461ff001916905550565b6116766001600160a01b037f000000000000000000000000000000000000000000000000000000000000000016333084613094565b61167f8161346f565b6040805160018152602081018390527fd60d524f1cae273480bb0a4ddfb992b6ac0b61c8e12ffbe2e4e31463f9e90199910160405180910390a150565b6040516312d9a6ad60e01b8152600080516020615c3083398151915260048201819052336024830152907f00000000000000000000000000000000000000000000000000000000000000006001600160a01b0316906312d9a6ad9060440160006040518083038186803b15801561173257600080fd5b505afa158015611746573d6000803e3d6000fd5b50505050610bdb6134d4565b6040516312d9a6ad60e01b81527fa23b11d346b90fc279e0a917152caf41f3c1247b12211b7cbc0e0e3f8b794057600482018190523360248301526000916001600160a01b037f000000000000000000000000000000000000000000000000000000000000000016906312d9a6ad9060440160006040518083038186803b1580156117dc57600080fd5b505afa1580156117f0573d6000803e3d6000fd5b5050505060d1548311156118045760d15492505b600083116118545760405162461bcd60e51b815260206004820152601760248201527f4e6f207072656d69756d7320746f207769746864726177000000000000000000604482015260640161089e565b8260d160008282546118669190615ad3565b925050819055506119077f00000000000000000000000000000000000000000000000000000000000000006001600160a01b03166361d027b36040518163ffffffff1660e01b815260040160206040518083038186803b1580156118c957600080fd5b505afa1580156118dd573d6000803e3d6000fd5b505050506040513d601f19601f820116820180604052508101906119019190615526565b8461352c565b6040805160008152602081018590527fd60d524f1cae273480bb0a4ddfb992b6ac0b61c8e12ffbe2e4e31463f9e90199910160405180910390a15090919050565b60335460ff161561196b5760405162461bcd60e51b815260040161089e906158fe565b4261197e610180830161016084016157d4565b64ffffffffff1611156119cc5760405162461bcd60e51b8152602060048201526016602482015275141bdb1a58de481b9bdd08195e1c1a5c9959081e595d60521b604482015260640161089e565b610bdb6119de368390038301836156ea565b60006001612984565b6040516312d9a6ad60e01b81527f2c09deb013d6a86a9063c95b5e2b10937d1128a3937347eb7e00408ed9fb1a9c60048201819052336024830152907f00000000000000000000000000000000000000000000000000000000000000006001600160a01b0316906312d9a6ad9060440160006040518083038186803b158015611a6f57600080fd5b505afa158015611a83573d6000803e3d6000fd5b50505050611a9360335460ff1690565b15611ab05760405162461bcd60e51b815260040161089e906158fe565b611ac7611ac2368490038401846156ea565b6138d8565b8135600090815260cd6020526040812090805b611ae460c9612ce9565b811015611d2e57600080611af960c984613129565b909250905060008080611b0c8886612cf4565b915091508115611b96576001600160a01b038516634438bcbb611b3c611b37368e90038e018e6156ea565b61393e565b836040518363ffffffff1660e01b8152600401611b63929190918252602082015260400190565b600060405180830381600087803b158015611b7d57600080fd5b505af1158015611b91573d6000803e3d6000fd5b505050505b6001846003811115611baa57611baa615b6d565b148015611c6857506001600160a01b0385166333487154611bd36101408d016101208e01615509565b611be56101808e016101608f016157d4565b6040516001600160e01b031960e085901b1681526001600160a01b03909216600483015264ffffffffff16602482015260440160206040518083038186803b158015611c3057600080fd5b505afa158015611c44573d6000803e3d6000fd5b505050506040513d601f19601f82011682018060405250810190611c6891906155eb565b15611ce157846001600160a01b031663e5ae143f6040518163ffffffff1660e01b815260040160206040518083038186803b158015611ca657600080fd5b505afa158015611cba573d6000803e3d6000fd5b505050506040513d601f19601f82011682018060405250810190611cde919061574f565b92505b82611cfd578115611cf857611cf68886613998565b505b611d16565b611d088886856139a4565b50611d138388615a7a565b96505b50505050508080611d2690615b3c565b915050611ada565b50611d506060850135611d49611b37368890038801886156ea565b83856139b9565b8335611d6461014086016101208701615509565b6001600160a01b03167f5b6693e57e2edc10453988a22e50a605795daee9a5dde66f5267b0dee0a6b60660405160405180910390a350505050565b60335460ff1615611dc25760405162461bcd60e51b815260040161089e906158fe565b6108d2611dd4368490038401846156ea565b826000612984565b7f00000000000000000000000000000000000000000000000000000000000000006001600160a01b03166394217ad16040518163ffffffff1660e01b815260040160206040518083038186803b158015611e3557600080fd5b505afa158015611e49573d6000803e3d6000fd5b505050506040513d601f19601f82011682018060405250810190611e6d9190615526565b6001600160a01b0316336001600160a01b031614611ede5760405162461bcd60e51b815260206004820152602860248201527f4f6e6c792061737365744d616e616765722063616e2063616c6c207468697320604482015267333ab731ba34b7b760c11b606482015260840161089e565b60335460ff1615611f015760405162461bcd60e51b815260040161089e906158fe565b8015611f10576108d28261346f565b611f1982612d43565b505050565b60008080611f2d60c985613129565b90925090506000816003811115611f4657611f46615b6d565b14611f52575092915050565b5060009392505050565b6040516312d9a6ad60e01b8152600080516020615be983398151915260048201819052336024830152907f00000000000000000000000000000000000000000000000000000000000000006001600160a01b0316906312d9a6ad9060440160006040518083038186803b158015611fd257600080fd5b505afa158015611fe6573d6000803e3d6000fd5b50505050600a611ff660c9612ce9565b1061204d5760405162461bcd60e51b815260206004820152602160248201527f4d6178696d756d206e756d626572206f662045546f6b656e73207265616368656044820152601960fa1b606482015260840161089e565b61205860c983613b0c565b156120a55760405162461bcd60e51b815260206004820152601a60248201527f65546f6b656e20616c726561647920696e2074686520706f6f6c000000000000604482015260640161089e565b6001600160a01b0382166120f25760405162461bcd60e51b815260206004820152601460248201527365546f6b656e2063616e2774206265207a65726f60601b604482015260640161089e565b306001600160a01b0316826001600160a01b0316634d15eb036040518163ffffffff1660e01b815260040160206040518083038186803b15801561213557600080fd5b505afa158015612149573d6000803e3d6000fd5b505050506040513d601f19601f8201168201806040525081019061216d9190615526565b6001600160a01b0316146121c35760405162461bcd60e51b815260206004820152601e60248201527f45546f6b656e206e6f74206c696e6b656420746f207468697320706f6f6c0000604482015260640161089e565b6121d060c9836001613b18565b50816001600160a01b03167f84b036748e342a63da09ea533edd13275c8f2eb94ba67374cd3c7f4d6461d52c60016040516114b7919061580b565b600080805b61221a60c9612ce9565b8110156122c257600061222e60c983613129565b509050806001600160a01b03166318160ddd6040518163ffffffff1660e01b815260040160206040518083038186803b15801561226a57600080fd5b505afa15801561227e573d6000803e3d6000fd5b505050506040513d601f19601f820116820180604052508101906122a2919061574f565b6122ac9084615a7a565b92505080806122ba90615b3c565b915050612210565b50919050565b60006108ed60c983613105565b600082815260cd6020526040812081906122ef9084613b36565b915091505b9250929050565b600061095460c9612ce9565b600061231560335460ff1690565b156123325760405162461bcd60e51b815260040161089e906158fe565b6101208301516001600160a01b038116331461239c5760405162461bcd60e51b815260206004820152602360248201527f4f6e6c792074686520524d2063616e20637265617465206e657720706f6c696360448201526269657360e81b606482015260840161089e565b604051635dfdc5d760e11b81526001600160a01b0382811660048301527f0000000000000000000000000000000000000000000000000000000000000000169063bbfb8bae9060240160006040518083038186803b1580156123fd57600080fd5b505afa158015612411573d6000803e3d6000fd5b505050604085015161245291506001600160a01b037f0000000000000000000000000000000000000000000000000000000000000000169085903090613094565b6040516340d097c360e01b81526001600160a01b0384811660048301526000917f0000000000000000000000000000000000000000000000000000000000000000909116906340d097c390602401602060405180830381600087803b1580156124ba57600080fd5b505af11580156124ce573d6000803e3d6000fd5b505050506040513d601f19601f820116820180604052508101906124f2919061574f565b808652905061250085613b45565b600082815260cc602052604081209190915560a086015160cf80549192909161252a908490615a7a565b9091555050604085015160ce8054600090612546908490615a7a565b90915550612555905085613b75565b816001600160a01b03167ff8da20dc84e4c9850943fcd1a0587142b2bac3fef70840ccee41f5edd22bc4778660405161258e9190615976565b60405180910390a25050915192915050565b60006125ae60335460ff1690565b156125cb5760405162461bcd60e51b815260040161089e906158fe565b6000806125d960c986612d10565b91509150818015612616575060018160038111156125f9576125f9615b6d565b14806126165750600281600381111561261457612614615b6d565b145b6126745760405162461bcd60e51b815260206004820152602960248201527f65546f6b656e206e6f7420666f756e64206f7220776974686472617773206e6f6044820152681d08185b1b1bddd95960ba1b606482015260840161089e565b60405163f3fef3a360e01b8152336004820181905260248201869052906000906001600160a01b0388169063f3fef3a390604401602060405180830381600087803b1580156126c257600080fd5b505af11580156126d6573d6000803e3d6000fd5b505050506040513d601f19601f820116820180604052508101906126fa919061574f565b9050801561270c5761270c828261352c565b9695505050505050565b60405163c5b8f5cf60e01b8152600080516020615c3083398151915260048201819052600080516020615be98339815191526024830181905233604484015290916001600160a01b037f0000000000000000000000000000000000000000000000000000000000000000169063c5b8f5cf9060640160006040518083038186803b1580156127a357600080fd5b505afa1580156127b7573d6000803e3d6000fd5b505050506127cf8460c9613b0c90919063ffffffff16565b6128135760405162461bcd60e51b8152602060048201526015602482015274149a5cdac8135bd91d5b19481b9bdd08199bdd5b99605a1b604482015260640161089e565b600383600381111561282757612827615b6d565b1415806128da5750604051632474521560e21b8152600080516020615c3083398151915260048201523360248201527f00000000000000000000000000000000000000000000000000000000000000006001600160a01b0316906391d148549060440160206040518083038186803b1580156128a257600080fd5b505afa1580156128b6573d6000803e3d6000fd5b505050506040513d601f19601f820116820180604052508101906128da91906155eb565b6129305760405162461bcd60e51b815260206004820152602160248201527f4f6e6c7920475541524449414e2063616e2073757370656e642065546f6b656e6044820152607360f81b606482015260840161089e565b61293c60c98585613b18565b50836001600160a01b03167f84b036748e342a63da09ea533edd13275c8f2eb94ba67374cd3c7f4d6461d52c84604051612976919061580b565b60405180910390a250505050565b61298d836138d8565b61012083015181806129a757506001600160a01b03811633145b6129f35760405162461bcd60e51b815260206004820181905260248201527f4f6e6c792074686520524d2063616e207265736f6c766520706f6c6963696573604482015260640161089e565b821580612a0b57504284610160015164ffffffffff16115b612a575760405162461bcd60e51b815260206004820152601860248201527f43616e277420706179206578706972656420706f6c6963790000000000000000604482015260640161089e565b6040516310f199ef60e31b81526001600160a01b0382811660048301527f0000000000000000000000000000000000000000000000000000000000000000169063878ccf789060240160006040518083038186803b158015612ab857600080fd5b505afa158015612acc573d6000803e3d6000fd5b505050508360200151831115612b1d5760405162461bcd60e51b81526020600482015260166024820152751c185e5bdd5d080f881c1bdb1a58de4b9c185e5bdd5d60521b604482015260640161089e565b60008084119050846040015160ce6000828254612b3a9190615ad3565b909155505060a085015160cf8054600090612b56908490615ad3565b909155506000905080612b6a878488613d33565b915091508215612c43576000612b808884613f89565b90507f0000000000000000000000000000000000000000000000000000000000000000811115612bb657612bb381614195565b90505b7f0000000000000000000000000000000000000000000000000000000000000000811115612c3d5760405162461bcd60e51b815260206004820152602e60248201527f446f6e2774206b6e6f7720776865726520746f2074616b65207468652072657360448201526d74206f6620746865206d6f6e657960901b606482015260840161089e565b50612c50565b612c4d87826142b4565b90505b612c598161346f565b86600001518761012001516001600160a01b03167f54f4a270ea08f88dc23b2520d6b063fecb24d956c4496f447926d736338f545e88604051612c9e91815260200190565b60405180910390a38651600090815260cc602090815260408083208390558951835260cd909152812090818181818181612cd882826153f9565b505050505050505050505050505050565b60006108ed82614596565b6000808080612d0386866145a1565b9097909650945050505050565b6000808080612d1f86866145a1565b9150915081816003811115612d3657612d36615b6d565b9350935050509250929050565b600060d1548211612d6d578160d16000828254612d609190615ad3565b9091555060009392505050565b60d15415612d8a5760d154612d829083615ad3565b600060d15591505b60d05460cf541115612de15760d05460cf54612da69190615ad3565b8211612dbe578160d06000828254612d609190615a7a565b60d05460cf54612dce9190615ad3565b612dd89083615ad3565b60cf5460d05591505b5090565b7f360894a13ba1a3210667c828492db98dca3e2076cc3735a920a3ca505d382bbc546001600160a01b031690565b60405163c5b8f5cf60e01b8152600080516020615c3083398151915260048201819052600080516020615be98339815191526024830181905233604484015290916001600160a01b037f0000000000000000000000000000000000000000000000000000000000000000169063c5b8f5cf9060640160006040518083038186803b158015612ea057600080fd5b505afa158015612eb4573d6000803e3d6000fd5b50505050505050565b6000612ec7612de5565b9050612ed2846145e4565b600083511180612edf5750815b15612ef057612eee8484614689565b505b7f4910fdfa16fed3260ed0e7147f7cc6da11a60208b5b9406d12a635614ffd9143805460ff166111e957805460ff191660011781556040516001600160a01b0383166024820152612f6f90869060440160408051601f198184030181529190526020810180516001600160e01b0316631b2ce7f360e11b179052614689565b50805460ff19168155612f80612de5565b6001600160a01b0316826001600160a01b031614612ff85760405162461bcd60e51b815260206004820152602f60248201527f45524331393637557067726164653a207570677261646520627265616b73206660448201526e75727468657220757067726164657360881b606482015260840161089e565b6111e985614774565b60335460ff1661304a5760405162461bcd60e51b815260206004820152601460248201527314185d5cd8589b194e881b9bdd081c185d5cd95960621b604482015260640161089e565b6033805460ff191690557f5db9ee0a495bf2e6ff9c91a7834c1ba4fdd244a5e8aa4e537bd38aeae4b073aa335b6040516001600160a01b03909116815260200160405180910390a1565b6040516001600160a01b03808516602483015283166044820152606481018290526130ff9085906323b872dd60e01b906084015b60408051601f198184030181529190526020810180516001600160e01b03166001600160e01b0319909316929092179091526147b4565b50505050565b60006131118383614886565b600381111561312257613122615b6d565b9392505050565b6000808080612d1f8686614900565b600054610100900460ff1680613151575060005460ff16155b61316d5760405162461bcd60e51b815260040161089e90615928565b600054610100900460ff1615801561318f576000805461ffff19166101011790555b613197614935565b61162d614935565b600054610100900460ff16806131b8575060005460ff16155b6131d45760405162461bcd60e51b815260040161089e90615928565b600054610100900460ff161580156131f6576000805461ffff19166101011790555b6131fe614935565b61162d61499f565b600054610100900460ff168061321f575060005460ff16155b61323b5760405162461bcd60e51b815260040161089e90615928565b600054610100900460ff1615801561325d576000805461ffff19166101011790555b7f00000000000000000000000000000000000000000000000000000000000000006001600160a01b031663948cb7196040518163ffffffff1660e01b8152600401600060405180830381600087803b1580156132b857600080fd5b505af11580156132cc573d6000803e3d6000fd5b5050505060006001600160a01b03167f00000000000000000000000000000000000000000000000000000000000000006001600160a01b03166394217ad16040518163ffffffff1660e01b815260040160206040518083038186803b15801561333457600080fd5b505afa158015613348573d6000803e3d6000fd5b505050506040513d601f19601f8201168201806040525081019061336c9190615526565b6001600160a01b0316146133e85760405162461bcd60e51b815260206004820152603a60248201527f41737365744d616e616765722063616e277420626520736574206265666f726560448201527f20506f6c696379506f6f6c20696e697469616c697a6174696f6e000000000000606482015260840161089e565b7f00000000000000000000000000000000000000000000000000000000000000006001600160a01b031663948cb7196040518163ffffffff1660e01b8152600401600060405180830381600087803b15801561344357600080fd5b505af1158015613457573d6000803e3d6000fd5b505050508015610bdb576000805461ff001916905550565b806134775750565b8060d0541061349d578060d060008282546134929190615ad3565b90915550610bdb9050565b60d054156134ba5760d0546134b29082615ad3565b600060d05590505b8060d160008282546134cc9190615a7a565b909155505050565b60335460ff16156134f75760405162461bcd60e51b815260040161089e906158fe565b6033805460ff191660011790557f62e78cea01bee320cd4e420270b5ea74000d11b0c9f74754ebdbfc544b05a2586130773390565b80613535575050565b60006001600160a01b03167f00000000000000000000000000000000000000000000000000000000000000006001600160a01b03166394217ad16040518163ffffffff1660e01b815260040160206040518083038186803b15801561359957600080fd5b505afa1580156135ad573d6000803e3d6000fd5b505050506040513d601f19601f820116820180604052508101906135d19190615526565b6001600160a01b0316141580156135ee5750806135ec614a14565b105b156136e4577f00000000000000000000000000000000000000000000000000000000000000006001600160a01b03166394217ad16040518163ffffffff1660e01b815260040160206040518083038186803b15801561364c57600080fd5b505afa158015613660573d6000803e3d6000fd5b505050506040513d601f19601f820116820180604052508101906136849190615526565b6001600160a01b0316631014a0c2826040518263ffffffff1660e01b81526004016136b191815260200190565b600060405180830381600087803b1580156136cb57600080fd5b505af11580156136df573d6000803e3d6000fd5b505050505b60006001600160a01b03167f00000000000000000000000000000000000000000000000000000000000000006001600160a01b0316631455cd286040518163ffffffff1660e01b815260040160206040518083038186803b15801561374857600080fd5b505afa15801561375c573d6000803e3d6000fd5b505050506040513d601f19601f820116820180604052508101906137809190615526565b6001600160a01b03161415801561379d57508061379b614a14565b105b156138a4577f00000000000000000000000000000000000000000000000000000000000000006001600160a01b0316631455cd286040518163ffffffff1660e01b815260040160206040518083038186803b1580156137fb57600080fd5b505afa15801561380f573d6000803e3d6000fd5b505050506040513d601f19601f820116820180604052508101906138339190615526565b6001600160a01b031663ee842dda613849614a14565b6138539084615ad3565b6040518263ffffffff1660e01b815260040161387191815260200190565b600060405180830381600087803b15801561388b57600080fd5b505af115801561389f573d6000803e3d6000fd5b505050505b6108d26001600160a01b037f0000000000000000000000000000000000000000000000000000000000000000168383614aae565b8051158015906138ff57508051600090815260cc60205260409020546138fd82613b45565b145b610bdb5760405162461bcd60e51b815260206004820152601060248201526f141bdb1a58de481b9bdd08199bdd5b9960821b604482015260640161089e565b60006108ed61399383606001518461014001518561016001516139619190615aea565b64ffffffffff166139729190615ab4565b61010085015161398d906a1a1601fc4ea7109e000000614ade565b90614baf565b614caf565b60006131228383614d2d565b60006139b1848484614d54565b949350505050565b83821015613a175760405162461bcd60e51b815260206004820152602560248201527f4e6f7420656e6f75676874206f6365616e20746f20636f7665722074686520706044820152646f6c69637960d81b606482015260840161089e565b8360005b613a2483612ce9565b811015613b045760008080613a398685613b36565b915091506001613a4887612ce9565b613a529190615ad3565b841015613a6e57613a678761398d8b84614ade565b9250613a72565b8492505b60405163837c83a360e01b815260048101899052602481018490526001600160a01b0383169063837c83a390604401600060405180830381600087803b158015613abb57600080fd5b505af1158015613acf573d6000803e3d6000fd5b50613ae19250889150849050856139a4565b50613aec8386615ad3565b94505050508080613afc90615b3c565b915050613a1b565b505050505050565b60006131228383614d7b565b60006139b18484846003811115613b3157613b31615b6d565b614d54565b6000808080612d038686614900565b600081604051602001613b589190615976565b604051602081830303815290604052805190602001209050919050565b8051600090815260cd60205260408120815b613b9160c9612ce9565b811015613d1a57600080613ba660c984613129565b90925090506001816003811115613bbf57613bbf615b6d565b14613bcb575050613d08565b610120860151610160870151604051630cd21c5560e21b81526001600160a01b03928316600482015264ffffffffff90911660248201529083169063334871549060440160206040518083038186803b158015613c2757600080fd5b505afa158015613c3b573d6000803e3d6000fd5b505050506040513d601f19601f82011682018060405250810190613c5f91906155eb565b613c6a575050613d08565b6000826001600160a01b031663e5ae143f6040518163ffffffff1660e01b815260040160206040518083038186803b158015613ca557600080fd5b505afa158015613cb9573d6000803e3d6000fd5b505050506040513d601f19601f82011682018060405250810190613cdd919061574f565b905080613cec57505050613d08565b613cf68187615a7a565b9550613d038584836139a4565b505050505b80613d1281615b3c565b915050613b87565b50611f198360600151613d2c8561393e565b84846139b9565b600080600080808615613e085787516040516331a9108f60e11b8152613dea916001600160a01b037f00000000000000000000000000000000000000000000000000000000000000001691636352211e91613d949160040190815260200190565b60206040518083038186803b158015613dac57600080fd5b505afa158015613dc0573d6000803e3d6000fd5b505050506040513d601f19601f82011682018060405250810190613de49190615526565b8761352c565b613df48887614d87565b92509050613e0181612d43565b9250613f7c565b613e8b8861012001516001600160a01b031663521eb2736040518163ffffffff1660e01b815260040160206040518083038186803b158015613e4957600080fd5b505afa158015613e5d573d6000803e3d6000fd5b505050506040513d601f19601f82011682018060405250810190613e819190615526565b8960e0015161352c565b613f297f00000000000000000000000000000000000000000000000000000000000000006001600160a01b03166361d027b36040518163ffffffff1660e01b815260040160206040518083038186803b158015613ee757600080fd5b505afa158015613efb573d6000803e3d6000fd5b505050506040513d601f19601f82011682018060405250810190613f1f9190615526565b8960c0015161352c565b8760a00151915060cf5460d0541115613f7c57613f5560cf5460d054613f4f9190615ad3565b83614dca565b90508060d06000828254613f699190615ad3565b90915550613f7990508183615ad3565b91505b5090969095509350505050565b60008080613f968561393e565b9050600080613fa487614dd9565b8851600090815260cd602052604081209294509092505b613fc482612ce9565b81101561418857600080613fd88484613b36565b604051634438bcbb60e01b8152600481018a90526024810182905291935091506001600160a01b03831690634438bcbb90604401600060405180830381600087803b15801561402657600080fd5b505af115801561403a573d6000803e3d6000fd5b50505060608c015161404e91508290614baf565b90506001600160a01b03821663aa69d74b6140698784614ade565b6040516001600160e01b031960e084901b16815260048101919091528815156024820152604401600060405180830381600087803b1580156140aa57600080fd5b505af11580156140be573d6000803e3d6000fd5b5050505060008a11156141735760006140d78b83614ade565b604051630c1ceca560e21b815260048101829052600160248201529091506001600160a01b03841690633073b29490604401602060405180830381600087803b15801561412357600080fd5b505af1158015614137573d6000803e3d6000fd5b505050506040513d601f19601f8201168201806040525081019061415b919061574f565b6141659082615ad3565b61416f908a615a7a565b9850505b5050808061418090615b3c565b915050613fbb565b5093979650505050505050565b6000805b6141a360c9612ce9565b8110156142ad576000806141b860c984613129565b909250905060018160038111156141d1576141d1615b6d565b146141dd57505061429b565b604051630c1ceca560e21b815260048101869052600060248201526001600160a01b03831690633073b29490604401602060405180830381600087803b15801561422657600080fd5b505af115801561423a573d6000803e3d6000fd5b505050506040513d601f19601f8201168201806040525081019061425e919061574f565b6142689086615ad3565b94507f000000000000000000000000000000000000000000000000000000000000000085116142985750506142ad565b50505b806142a581615b3c565b915050614199565b5090919050565b6000806142c08461393e565b90506000806142ce86614dd9565b8751600090815260cd602052604081209294509092505b6142ee82612ce9565b81101561458a576000806143028484613b36565b604051634438bcbb60e01b8152600481018a90526024810182905291935091506001600160a01b03831690634438bcbb90604401600060405180830381600087803b15801561435057600080fd5b505af1158015614364573d6000803e3d6000fd5b50505060608b015161437891508290614baf565b90506001600160a01b03821663aa69d74b6143938784614ade565b6040516001600160e01b031960e084901b16815260048101919091528815156024820152604401600060405180830381600087803b1580156143d457600080fd5b505af11580156143e8573d6000803e3d6000fd5b5050505060008911801561446c57506000826001600160a01b03166352a2783b6040518163ffffffff1660e01b815260040160206040518083038186803b15801561443257600080fd5b505afa158015614446573d6000803e3d6000fd5b505050506040513d601f19601f8201168201806040525081019061446a919061574f565b115b156145755760a08a01516000906144839083614ade565b90506145088a614503856001600160a01b03166352a2783b6040518163ffffffff1660e01b815260040160206040518083038186803b1580156144c557600080fd5b505afa1580156144d9573d6000803e3d6000fd5b505050506040513d601f19601f820116820180604052508101906144fd919061574f565b84614dca565b614dca565b604051631c0f4f8160e01b8152600481018290529091506001600160a01b03841690631c0f4f8190602401600060405180830381600087803b15801561454d57600080fd5b505af1158015614561573d6000803e3d6000fd5b50505050808a6145719190615ad3565b9950505b5050808061458290615b3c565b9150506142e5565b50949695505050505050565b60006108ed82614e25565b6001600160a01b03811660009081526002830160205260408120548190806145d9576145cd8585614d7b565b600092509250506122f4565b6001925090506122f4565b803b6146485760405162461bcd60e51b815260206004820152602d60248201527f455243313936373a206e657720696d706c656d656e746174696f6e206973206e60448201526c1bdd08184818dbdb9d1c9858dd609a1b606482015260840161089e565b7f360894a13ba1a3210667c828492db98dca3e2076cc3735a920a3ca505d382bbc80546001600160a01b0319166001600160a01b0392909216919091179055565b6060823b6146e85760405162461bcd60e51b815260206004820152602660248201527f416464726573733a2064656c65676174652063616c6c20746f206e6f6e2d636f6044820152651b9d1c9858dd60d21b606482015260840161089e565b600080846001600160a01b03168460405161470391906157ef565b600060405180830381855af49150503d806000811461473e576040519150601f19603f3d011682016040523d82523d6000602084013e614743565b606091505b509150915061476b8282604051806060016040528060278152602001615c0960279139614e2f565b95945050505050565b61477d816145e4565b6040516001600160a01b038216907fbc7cd75a20ee27fd9adebab32041f755214dbc6bffa90cc0225b39da2e5c2d3b90600090a250565b6000614809826040518060400160405280602081526020017f5361666545524332303a206c6f772d6c6576656c2063616c6c206661696c6564815250856001600160a01b0316614e689092919063ffffffff16565b805190915015611f19578080602001905181019061482791906155eb565b611f195760405162461bcd60e51b815260206004820152602a60248201527f5361666545524332303a204552433230206f7065726174696f6e20646964206e6044820152691bdd081cdd58d8d9595960b21b606482015260840161089e565b6001600160a01b0381166000908152600283016020526040812054801515806148b457506148b48484614d7b565b6131225760405162461bcd60e51b815260206004820152601e60248201527f456e756d657261626c654d61703a206e6f6e6578697374656e74206b65790000604482015260640161089e565b6000808061490e8585614e77565b6001600160a01b038116600090815260029690960160205260409095205494959350505050565b600054610100900460ff168061494e575060005460ff16155b61496a5760405162461bcd60e51b815260040161089e90615928565b600054610100900460ff1615801561162d576000805461ffff19166101011790558015610bdb576000805461ff001916905550565b600054610100900460ff16806149b8575060005460ff16155b6149d45760405162461bcd60e51b815260040161089e90615928565b600054610100900460ff161580156149f6576000805461ffff19166101011790555b6033805460ff191690558015610bdb576000805461ff001916905550565b6040516370a0823160e01b81523060048201526000907f00000000000000000000000000000000000000000000000000000000000000006001600160a01b0316906370a082319060240160206040518083038186803b158015614a7657600080fd5b505afa158015614a8a573d6000803e3d6000fd5b505050506040513d601f19601f82011682018060405250810190610954919061574f565b6040516001600160a01b038316602482015260448101829052611f1990849063a9059cbb60e01b906064016130c8565b6000821580614aeb575081155b15614af8575060006108ed565b81614b0c6002670de0b6b3a7640000615a92565b614b1890600019615ad3565b614b229190615a92565b831115614b7d5760405162461bcd60e51b8152602060048201526024808201527f7761644d756c3a204d617468204d756c7469706c69636174696f6e204f766572604482015263666c6f7760e01b606482015260840161089e565b670de0b6b3a7640000614b91600282615a92565b614b9b8486615ab4565b614ba59190615a7a565b6131229190615a92565b600081614bfe5760405162461bcd60e51b815260206004820152601860248201527f7761644469763a204469766973696f6e206279207a65726f0000000000000000604482015260640161089e565b6000614c0b600284615a92565b9050670de0b6b3a7640000614c2282600019615ad3565b614c2c9190615a92565b841115614c875760405162461bcd60e51b8152602060048201526024808201527f7761644469763a204d617468204d756c7469706c69636174696f6e204f766572604482015263666c6f7760e01b606482015260840161089e565b8281614c9b670de0b6b3a764000087615ab4565b614ca59190615a7a565b6139b19190615a92565b600080614cc0633b9aca0084615ab4565b905082614cd1633b9aca0083615a92565b146108ed5760405162461bcd60e51b815260206004820152602660248201527f776164546f5261643a204d617468204d756c7469706c69636174696f6e204f766044820152656572666c6f7760d01b606482015260840161089e565b6001600160a01b038116600090815260028301602052604081208190556131228383614e83565b6001600160a01b038216600090815260028401602052604081208290556139b18484614e98565b60006131228383614ead565b60008060008461010001518560400151614da19190615ad3565b9050838110614dc0576000614db68583615ad3565b92509250506122f4565b6145cd8185615ad3565b60008183106142ad5781613122565b6000806000614de784614ecf565b90508084610100015110614e1257600181856101000151614e089190615ad3565b9250925050915091565b600084610100015182614e089190615ad3565b60006108ed825490565b60608315614e3e575081613122565b825115614e4e5782518084602001fd5b8160405162461bcd60e51b815260040161089e9190615833565b60606139b18484600085614f36565b6000613122838361505e565b6000613122836001600160a01b038416615088565b6000613122836001600160a01b03841661517b565b6001600160a01b03811660009081526001830160205260408120541515613122565b60008082610140015164ffffffffff1642614eea9190615ad3565b9050613122614f316e0612d847b578e7643c28ac00000000614f2b614f0e8761393e565b614f189086615ab4565b614f258860600151614caf565b906151ca565b90615285565b615379565b606082471015614f975760405162461bcd60e51b815260206004820152602660248201527f416464726573733a20696e73756666696369656e742062616c616e636520666f6044820152651c8818d85b1b60d21b606482015260840161089e565b843b614fe55760405162461bcd60e51b815260206004820152601d60248201527f416464726573733a2063616c6c20746f206e6f6e2d636f6e7472616374000000604482015260640161089e565b600080866001600160a01b0316858760405161500191906157ef565b60006040518083038185875af1925050503d806000811461503e576040519150601f19603f3d011682016040523d82523d6000602084013e615043565b606091505b5091509150615053828286614e2f565b979650505050505050565b600082600001828154811061507557615075615b99565b9060005260206000200154905092915050565b600081815260018301602052604081205480156151715760006150ac600183615ad3565b85549091506000906150c090600190615ad3565b90508181146151255760008660000182815481106150e0576150e0615b99565b906000526020600020015490508087600001848154811061510357615103615b99565b6000918252602080832090910192909255918252600188019052604090208390555b855486908061513657615136615b83565b6001900381819060005260206000200160009055905585600101600086815260200190815260200160002060009055600193505050506108ed565b60009150506108ed565b60008181526001830160205260408120546151c2575081546001818101845560008481526020808220909301849055845484825282860190935260409020919091556108ed565b5060006108ed565b60008215806151d7575081155b156151e4575060006108ed565b816151fc60026b033b2e3c9fd0803ce8000000615a92565b61520890600019615ad3565b6152129190615a92565b83111561526d5760405162461bcd60e51b8152602060048201526024808201527f7261794d756c3a204d617468204d756c7469706c69636174696f6e204f766572604482015263666c6f7760e01b606482015260840161089e565b6b033b2e3c9fd0803ce8000000614b91600282615a92565b6000816152d45760405162461bcd60e51b815260206004820152601860248201527f7261794469763a204469766973696f6e206279207a65726f0000000000000000604482015260640161089e565b60006152e1600284615a92565b90506b033b2e3c9fd0803ce80000006152fc82600019615ad3565b6153069190615a92565b8411156153615760405162461bcd60e51b8152602060048201526024808201527f7261794469763a204d617468204d756c7469706c69636174696f6e204f766572604482015263666c6f7760e01b606482015260840161089e565b8281614c9b6b033b2e3c9fd0803ce800000087615ab4565b60008061538b6002633b9aca00615a92565b905060006153998483615a7a565b9050818110156153eb5760405162461bcd60e51b815260206004820181905260248201527f726179546f5761643a204d617468204164646974696f6e204f766572666c6f77604482015260640161089e565b6139b1633b9aca0082615a92565b5080546000825590600052602060002090810190610bdb91905b80821115612de15760008155600101615413565b8035610b1081615bc5565b600061018082840312156122c257600080fd5b6000610180828403121561545857600080fd5b615460615a1f565b9050813581526020820135602082015260408201356040820152606082013560608201526080820135608082015260a082013560a082015260c082013560c082015260e082013560e08201526101008083013581830152506101206154c6818401615427565b908201526101406154d88382016154f4565b908201526101606154ea8382016154f4565b9082015292915050565b803564ffffffffff81168114610b1057600080fd5b60006020828403121561551b57600080fd5b813561312281615bc5565b60006020828403121561553857600080fd5b815161312281615bc5565b6000806040838503121561555657600080fd5b823561556181615bc5565b915060208381013567ffffffffffffffff8082111561557f57600080fd5b818601915086601f83011261559357600080fd5b8135818111156155a5576155a5615baf565b6155b7601f8201601f19168501615a49565b915080825287848285010111156155cd57600080fd5b80848401858401376000848284010152508093505050509250929050565b6000602082840312156155fd57600080fd5b815161312281615bda565b6000806040838503121561561b57600080fd5b823561562681615bc5565b915060208301356004811061563a57600080fd5b809150509250929050565b6000806040838503121561565857600080fd5b823561566381615bc5565b946020939093013593505050565b6000610180828403121561568457600080fd5b6131228383615432565b6000806101a083850312156156a257600080fd5b6156ac8484615432565b915061018083013561563a81615bda565b6000806101a083850312156156d157600080fd5b6156db8484615432565b94610180939093013593505050565b600061018082840312156156fd57600080fd5b6131228383615445565b6000806101a0838503121561571b57600080fd5b6157258484615445565b915061018083013561563a81615bc5565b60006020828403121561574857600080fd5b5035919050565b60006020828403121561576157600080fd5b5051919050565b6000806040838503121561577b57600080fd5b82359150602083013561563a81615bda565b600080604083850312156157a057600080fd5b82359150602083013561563a81615bc5565b600080604083850312156157c557600080fd5b50508035926020909101359150565b6000602082840312156157e657600080fd5b613122826154f4565b60008251615801818460208701615b10565b9190910192915050565b602081016004831061582d57634e487b7160e01b600052602160045260246000fd5b91905290565b6020815260008251806020840152615852816040850160208701615b10565b601f01601f19169190910160400192915050565b6020808252602c908201527f46756e6374696f6e206d7573742062652063616c6c6564207468726f7567682060408201526b19195b1959d85d1958d85b1b60a21b606082015260800190565b6020808252602c908201527f46756e6374696f6e206d7573742062652063616c6c6564207468726f7567682060408201526b6163746976652070726f787960a01b606082015260800190565b60208082526010908201526f14185d5cd8589b194e881c185d5cd95960821b604082015260600190565b6020808252602e908201527f496e697469616c697a61626c653a20636f6e747261637420697320616c72656160408201526d191e481a5b9a5d1a585b1a5e995960921b606082015260800190565b600061018082019050825182526020830151602083015260408301516040830152606083015160608301526080830151608083015260a083015160a083015260c083015160c083015260e083015160e0830152610100808401518184015250610120808401516159f0828501826001600160a01b03169052565b50506101408381015164ffffffffff81168483015250506101608381015164ffffffffff81168483015261092d565b604051610180810167ffffffffffffffff81118282101715615a4357615a43615baf565b60405290565b604051601f8201601f1916810167ffffffffffffffff81118282101715615a7257615a72615baf565b604052919050565b60008219821115615a8d57615a8d615b57565b500190565b600082615aaf57634e487b7160e01b600052601260045260246000fd5b500490565b6000816000190483118215151615615ace57615ace615b57565b500290565b600082821015615ae557615ae5615b57565b500390565b600064ffffffffff83811690831681811015615b0857615b08615b57565b039392505050565b60005b83811015615b2b578181015183820152602001615b13565b838111156130ff5750506000910152565b6000600019821415615b5057615b50615b57565b5060010190565b634e487b7160e01b600052601160045260246000fd5b634e487b7160e01b600052602160045260246000fd5b634e487b7160e01b600052603160045260246000fd5b634e487b7160e01b600052603260045260246000fd5b634e487b7160e01b600052604160045260246000fd5b6001600160a01b0381168114610bdb57600080fd5b8015158114610bdb57600080fdfebf372ca3ebecfe59ac256f17697941bbe63302aced610e8b0e3646f743c7beb2416464726573733a206c6f772d6c6576656c2064656c65676174652063616c6c206661696c656455435dd261a4b9b3364963f7738a7a662ad9c84396d64be3365284bb7f0a5041a2646970667358221220661186f77d3cff0a9a8be095e30791050f2ce35920c93dbe479a1827ae71838364736f6c63430008060033",
  "linkReferences": {},
  "deployedLinkReferences": {}
}