{
  "_format": "hh-sol-artifact-1",
  "contractName": "TrustfulRiskModule",
  "sourceName": "contracts/TrustfulRiskModule.sol",
  "abi": [
    {
      "inputs": [
        {
          "internalType": "contract IPolicyPool",
          "name": "policyPool_",
          "type": "address"
        }
      ],
      "stateMutability": "nonpayable",
      "type": "constructor"
    },
    {
      "anonymous": false,
      "inputs": [
        {
          "indexed": false,
          "internalType": "address",
          "name": "previousAdmin",
          "type": "address"
        },
        {
          "indexed": false,
          "internalType": "address",
          "name": "newAdmin",
          "type": "address"
        }
      ],
      "name": "AdminChanged",
      "type": "event"
    },
    {
      "anonymous": false,
      "inputs": [
        {
          "indexed": true,
          "internalType": "address",
          "name": "beacon",
          "type": "address"
        }
      ],
      "name": "BeaconUpgraded",
      "type": "event"
    },
    {
      "anonymous": false,
      "inputs": [
        {
          "indexed": true,
          "internalType": "enum IPolicyPoolConfig.GovernanceActions",
          "name": "action",
          "type": "uint8"
        },
        {
          "indexed": false,
          "internalType": "uint256",
          "name": "value",
          "type": "uint256"
        }
      ],
      "name": "GovernanceAction",
      "type": "event"
    },
    {
      "anonymous": false,
      "inputs": [
        {
          "indexed": false,
          "internalType": "address",
          "name": "account",
          "type": "address"
        }
      ],
      "name": "Paused",
      "type": "event"
    },
    {
      "anonymous": false,
      "inputs": [
        {
          "indexed": true,
          "internalType": "bytes32",
          "name": "role",
          "type": "bytes32"
        },
        {
          "indexed": true,
          "internalType": "bytes32",
          "name": "previousAdminRole",
          "type": "bytes32"
        },
        {
          "indexed": true,
          "internalType": "bytes32",
          "name": "newAdminRole",
          "type": "bytes32"
        }
      ],
      "name": "RoleAdminChanged",
      "type": "event"
    },
    {
      "anonymous": false,
      "inputs": [
        {
          "indexed": true,
          "internalType": "bytes32",
          "name": "role",
          "type": "bytes32"
        },
        {
          "indexed": true,
          "internalType": "address",
          "name": "account",
          "type": "address"
        },
        {
          "indexed": true,
          "internalType": "address",
          "name": "sender",
          "type": "address"
        }
      ],
      "name": "RoleGranted",
      "type": "event"
    },
    {
      "anonymous": false,
      "inputs": [
        {
          "indexed": true,
          "internalType": "bytes32",
          "name": "role",
          "type": "bytes32"
        },
        {
          "indexed": true,
          "internalType": "address",
          "name": "account",
          "type": "address"
        },
        {
          "indexed": true,
          "internalType": "address",
          "name": "sender",
          "type": "address"
        }
      ],
      "name": "RoleRevoked",
      "type": "event"
    },
    {
      "anonymous": false,
      "inputs": [
        {
          "indexed": false,
          "internalType": "address",
          "name": "account",
          "type": "address"
        }
      ],
      "name": "Unpaused",
      "type": "event"
    },
    {
      "anonymous": false,
      "inputs": [
        {
          "indexed": true,
          "internalType": "address",
          "name": "implementation",
          "type": "address"
        }
      ],
      "name": "Upgraded",
      "type": "event"
    },
    {
      "inputs": [],
      "name": "DEFAULT_ADMIN_ROLE",
      "outputs": [
        {
          "internalType": "bytes32",
          "name": "",
          "type": "bytes32"
        }
      ],
      "stateMutability": "view",
      "type": "function"
    },
    {
      "inputs": [],
      "name": "GUARDIAN_ROLE",
      "outputs": [
        {
          "internalType": "bytes32",
          "name": "",
          "type": "bytes32"
        }
      ],
      "stateMutability": "view",
      "type": "function"
    },
    {
      "inputs": [],
      "name": "LEVEL1_ROLE",
      "outputs": [
        {
          "internalType": "bytes32",
          "name": "",
          "type": "bytes32"
        }
      ],
      "stateMutability": "view",
      "type": "function"
    },
    {
      "inputs": [],
      "name": "LEVEL2_ROLE",
      "outputs": [
        {
          "internalType": "bytes32",
          "name": "",
          "type": "bytes32"
        }
      ],
      "stateMutability": "view",
      "type": "function"
    },
    {
      "inputs": [],
      "name": "LEVEL3_ROLE",
      "outputs": [
        {
          "internalType": "bytes32",
          "name": "",
          "type": "bytes32"
        }
      ],
      "stateMutability": "view",
      "type": "function"
    },
    {
      "inputs": [],
      "name": "PRICER_ROLE",
      "outputs": [
        {
          "internalType": "bytes32",
          "name": "",
          "type": "bytes32"
        }
      ],
      "stateMutability": "view",
      "type": "function"
    },
    {
      "inputs": [],
      "name": "RESOLVER_ROLE",
      "outputs": [
        {
          "internalType": "bytes32",
          "name": "",
          "type": "bytes32"
        }
      ],
      "stateMutability": "view",
      "type": "function"
    },
    {
      "inputs": [],
      "name": "RM_PROVIDER_ROLE",
      "outputs": [
        {
          "internalType": "bytes32",
          "name": "",
          "type": "bytes32"
        }
      ],
      "stateMutability": "view",
      "type": "function"
    },
    {
      "inputs": [],
      "name": "TWEAK_EXPIRATION",
      "outputs": [
        {
          "internalType": "uint40",
          "name": "",
          "type": "uint40"
        }
      ],
      "stateMutability": "view",
      "type": "function"
    },
    {
      "inputs": [],
      "name": "currency",
      "outputs": [
        {
          "internalType": "contract IERC20Metadata",
          "name": "",
          "type": "address"
        }
      ],
      "stateMutability": "view",
      "type": "function"
    },
    {
      "inputs": [],
      "name": "ensuroFee",
      "outputs": [
        {
          "internalType": "uint256",
          "name": "",
          "type": "uint256"
        }
      ],
      "stateMutability": "view",
      "type": "function"
    },
    {
      "inputs": [
        {
          "internalType": "uint256",
          "name": "payout",
          "type": "uint256"
        },
        {
          "internalType": "uint256",
          "name": "lossProb",
          "type": "uint256"
        },
        {
          "internalType": "uint40",
          "name": "expiration",
          "type": "uint40"
        }
      ],
      "name": "getMinimumPremium",
      "outputs": [
        {
          "internalType": "uint256",
          "name": "",
          "type": "uint256"
        }
      ],
      "stateMutability": "view",
      "type": "function"
    },
    {
      "inputs": [
        {
          "internalType": "bytes32",
          "name": "role",
          "type": "bytes32"
        }
      ],
      "name": "getRoleAdmin",
      "outputs": [
        {
          "internalType": "bytes32",
          "name": "",
          "type": "bytes32"
        }
      ],
      "stateMutability": "view",
      "type": "function"
    },
    {
      "inputs": [
        {
          "internalType": "bytes32",
          "name": "role",
          "type": "bytes32"
        },
        {
          "internalType": "address",
          "name": "account",
          "type": "address"
        }
      ],
      "name": "grantRole",
      "outputs": [],
      "stateMutability": "nonpayable",
      "type": "function"
    },
    {
      "inputs": [
        {
          "internalType": "bytes32",
          "name": "role",
          "type": "bytes32"
        },
        {
          "internalType": "address",
          "name": "account",
          "type": "address"
        }
      ],
      "name": "hasRole",
      "outputs": [
        {
          "internalType": "bool",
          "name": "",
          "type": "bool"
        }
      ],
      "stateMutability": "view",
      "type": "function"
    },
    {
      "inputs": [
        {
          "internalType": "string",
          "name": "name_",
          "type": "string"
        },
        {
          "internalType": "uint256",
          "name": "scrPercentage_",
          "type": "uint256"
        },
        {
          "internalType": "uint256",
          "name": "ensuroFee_",
          "type": "uint256"
        },
        {
          "internalType": "uint256",
          "name": "scrInterestRate_",
          "type": "uint256"
        },
        {
          "internalType": "uint256",
          "name": "maxScrPerPolicy_",
          "type": "uint256"
        },
        {
          "internalType": "uint256",
          "name": "scrLimit_",
          "type": "uint256"
        },
        {
          "internalType": "address",
          "name": "wallet_",
          "type": "address"
        }
      ],
      "name": "initialize",
      "outputs": [],
      "stateMutability": "nonpayable",
      "type": "function"
    },
    {
      "inputs": [],
      "name": "lastTweak",
      "outputs": [
        {
          "internalType": "uint40",
          "name": "",
          "type": "uint40"
        },
        {
          "internalType": "uint56",
          "name": "",
          "type": "uint56"
        }
      ],
      "stateMutability": "view",
      "type": "function"
    },
    {
      "inputs": [],
      "name": "maxScrPerPolicy",
      "outputs": [
        {
          "internalType": "uint256",
          "name": "",
          "type": "uint256"
        }
      ],
      "stateMutability": "view",
      "type": "function"
    },
    {
      "inputs": [],
      "name": "moc",
      "outputs": [
        {
          "internalType": "uint256",
          "name": "",
          "type": "uint256"
        }
      ],
      "stateMutability": "view",
      "type": "function"
    },
    {
      "inputs": [],
      "name": "name",
      "outputs": [
        {
          "internalType": "string",
          "name": "",
          "type": "string"
        }
      ],
      "stateMutability": "view",
      "type": "function"
    },
    {
      "inputs": [
        {
          "internalType": "uint256",
          "name": "payout",
          "type": "uint256"
        },
        {
          "internalType": "uint256",
          "name": "premium",
          "type": "uint256"
        },
        {
          "internalType": "uint256",
          "name": "lossProb",
          "type": "uint256"
        },
        {
          "internalType": "uint40",
          "name": "expiration",
          "type": "uint40"
        },
        {
          "internalType": "address",
          "name": "customer",
          "type": "address"
        }
      ],
      "name": "newPolicy",
      "outputs": [
        {
          "internalType": "uint256",
          "name": "",
          "type": "uint256"
        }
      ],
      "stateMutability": "nonpayable",
      "type": "function"
    },
    {
      "inputs": [],
      "name": "pause",
      "outputs": [],
      "stateMutability": "nonpayable",
      "type": "function"
    },
    {
      "inputs": [],
      "name": "paused",
      "outputs": [
        {
          "internalType": "bool",
          "name": "",
          "type": "bool"
        }
      ],
      "stateMutability": "view",
      "type": "function"
    },
    {
      "inputs": [],
      "name": "policyPool",
      "outputs": [
        {
          "internalType": "contract IPolicyPool",
          "name": "",
          "type": "address"
        }
      ],
      "stateMutability": "view",
      "type": "function"
    },
    {
      "inputs": [
        {
          "internalType": "bytes32",
          "name": "role",
          "type": "bytes32"
        },
        {
          "internalType": "address",
          "name": "account",
          "type": "address"
        }
      ],
      "name": "renounceRole",
      "outputs": [],
      "stateMutability": "nonpayable",
      "type": "function"
    },
    {
      "inputs": [
        {
          "components": [
            {
              "internalType": "uint256",
              "name": "id",
              "type": "uint256"
            },
            {
              "internalType": "uint256",
              "name": "payout",
              "type": "uint256"
            },
            {
              "internalType": "uint256",
              "name": "premium",
              "type": "uint256"
            },
            {
              "internalType": "uint256",
              "name": "scr",
              "type": "uint256"
            },
            {
              "internalType": "uint256",
              "name": "lossProb",
              "type": "uint256"
            },
            {
              "internalType": "uint256",
              "name": "purePremium",
              "type": "uint256"
            },
            {
              "internalType": "uint256",
              "name": "premiumForEnsuro",
              "type": "uint256"
            },
            {
              "internalType": "uint256",
              "name": "premiumForRm",
              "type": "uint256"
            },
            {
              "internalType": "uint256",
              "name": "premiumForLps",
              "type": "uint256"
            },
            {
              "internalType": "contract IRiskModule",
              "name": "riskModule",
              "type": "address"
            },
            {
              "internalType": "uint40",
              "name": "start",
              "type": "uint40"
            },
            {
              "internalType": "uint40",
              "name": "expiration",
              "type": "uint40"
            }
          ],
          "internalType": "struct Policy.PolicyData",
          "name": "policy",
          "type": "tuple"
        },
        {
          "internalType": "uint256",
          "name": "payout",
          "type": "uint256"
        }
      ],
      "name": "resolvePolicy",
      "outputs": [],
      "stateMutability": "nonpayable",
      "type": "function"
    },
    {
      "inputs": [
        {
          "components": [
            {
              "internalType": "uint256",
              "name": "id",
              "type": "uint256"
            },
            {
              "internalType": "uint256",
              "name": "payout",
              "type": "uint256"
            },
            {
              "internalType": "uint256",
              "name": "premium",
              "type": "uint256"
            },
            {
              "internalType": "uint256",
              "name": "scr",
              "type": "uint256"
            },
            {
              "internalType": "uint256",
              "name": "lossProb",
              "type": "uint256"
            },
            {
              "internalType": "uint256",
              "name": "purePremium",
              "type": "uint256"
            },
            {
              "internalType": "uint256",
              "name": "premiumForEnsuro",
              "type": "uint256"
            },
            {
              "internalType": "uint256",
              "name": "premiumForRm",
              "type": "uint256"
            },
            {
              "internalType": "uint256",
              "name": "premiumForLps",
              "type": "uint256"
            },
            {
              "internalType": "contract IRiskModule",
              "name": "riskModule",
              "type": "address"
            },
            {
              "internalType": "uint40",
              "name": "start",
              "type": "uint40"
            },
            {
              "internalType": "uint40",
              "name": "expiration",
              "type": "uint40"
            }
          ],
          "internalType": "struct Policy.PolicyData",
          "name": "policy",
          "type": "tuple"
        },
        {
          "internalType": "bool",
          "name": "customerWon",
          "type": "bool"
        }
      ],
      "name": "resolvePolicyFullPayout",
      "outputs": [],
      "stateMutability": "nonpayable",
      "type": "function"
    },
    {
      "inputs": [
        {
          "internalType": "bytes32",
          "name": "role",
          "type": "bytes32"
        },
        {
          "internalType": "address",
          "name": "account",
          "type": "address"
        }
      ],
      "name": "revokeRole",
      "outputs": [],
      "stateMutability": "nonpayable",
      "type": "function"
    },
    {
      "inputs": [],
      "name": "scrInterestRate",
      "outputs": [
        {
          "internalType": "uint256",
          "name": "",
          "type": "uint256"
        }
      ],
      "stateMutability": "view",
      "type": "function"
    },
    {
      "inputs": [],
      "name": "scrLimit",
      "outputs": [
        {
          "internalType": "uint256",
          "name": "",
          "type": "uint256"
        }
      ],
      "stateMutability": "view",
      "type": "function"
    },
    {
      "inputs": [],
      "name": "scrPercentage",
      "outputs": [
        {
          "internalType": "uint256",
          "name": "",
          "type": "uint256"
        }
      ],
      "stateMutability": "view",
      "type": "function"
    },
    {
      "inputs": [
        {
          "internalType": "uint256",
          "name": "newEnsuroFee",
          "type": "uint256"
        }
      ],
      "name": "setEnsuroFee",
      "outputs": [],
      "stateMutability": "nonpayable",
      "type": "function"
    },
    {
      "inputs": [
        {
          "internalType": "uint256",
          "name": "newMaxScrPerPolicy",
          "type": "uint256"
        }
      ],
      "name": "setMaxScrPerPolicy",
      "outputs": [],
      "stateMutability": "nonpayable",
      "type": "function"
    },
    {
      "inputs": [
        {
          "internalType": "uint256",
          "name": "newMoc",
          "type": "uint256"
        }
      ],
      "name": "setMoc",
      "outputs": [],
      "stateMutability": "nonpayable",
      "type": "function"
    },
    {
      "inputs": [
        {
          "internalType": "uint256",
          "name": "newScrInterestRate",
          "type": "uint256"
        }
      ],
      "name": "setScrInterestRate",
      "outputs": [],
      "stateMutability": "nonpayable",
      "type": "function"
    },
    {
      "inputs": [
        {
          "internalType": "uint256",
          "name": "newScrLimit",
          "type": "uint256"
        }
      ],
      "name": "setScrLimit",
      "outputs": [],
      "stateMutability": "nonpayable",
      "type": "function"
    },
    {
      "inputs": [
        {
          "internalType": "uint256",
          "name": "newScrPercentage",
          "type": "uint256"
        }
      ],
      "name": "setScrPercentage",
      "outputs": [],
      "stateMutability": "nonpayable",
      "type": "function"
    },
    {
      "inputs": [
        {
          "internalType": "address",
          "name": "wallet_",
          "type": "address"
        }
      ],
      "name": "setWallet",
      "outputs": [],
      "stateMutability": "nonpayable",
      "type": "function"
    },
    {
      "inputs": [
        {
          "internalType": "bytes4",
          "name": "interfaceId",
          "type": "bytes4"
        }
      ],
      "name": "supportsInterface",
      "outputs": [
        {
          "internalType": "bool",
          "name": "",
          "type": "bool"
        }
      ],
      "stateMutability": "view",
      "type": "function"
    },
    {
      "inputs": [],
      "name": "totalScr",
      "outputs": [
        {
          "internalType": "uint256",
          "name": "",
          "type": "uint256"
        }
      ],
      "stateMutability": "view",
      "type": "function"
    },
    {
      "inputs": [],
      "name": "unpause",
      "outputs": [],
      "stateMutability": "nonpayable",
      "type": "function"
    },
    {
      "inputs": [
        {
          "internalType": "address",
          "name": "newImplementation",
          "type": "address"
        }
      ],
      "name": "upgradeTo",
      "outputs": [],
      "stateMutability": "nonpayable",
      "type": "function"
    },
    {
      "inputs": [
        {
          "internalType": "address",
          "name": "newImplementation",
          "type": "address"
        },
        {
          "internalType": "bytes",
          "name": "data",
          "type": "bytes"
        }
      ],
      "name": "upgradeToAndCall",
      "outputs": [],
      "stateMutability": "payable",
      "type": "function"
    },
    {
      "inputs": [],
      "name": "wallet",
      "outputs": [
        {
          "internalType": "address",
          "name": "",
          "type": "address"
        }
      ],
      "stateMutability": "view",
      "type": "function"
    }
  ],
  "bytecode": "0x60c06040523060601b6080523480156200001857600080fd5b50604051620049e2380380620049e28339810160408190526200003b9162000051565b60601b6001600160601b03191660a05262000083565b6000602082840312156200006457600080fd5b81516001600160a01b03811681146200007c57600080fd5b9392505050565b60805160601c60a05160601c6148a76200013b6000396000818161047c015281816108d3015281816109f401528181610bc301528181610ef4015281816111790152818161141901528181611470015281816116510152818161185c0152818161191001528181611af101528181611cd601528181611ee10152818161254c015281816129ba01528181612a680152612c5c015260008181610e1601528181610e5601528181610ff5015261103501526148a76000f3fe6080604052600436106102675760003560e01c80636f6b256911610144578063bf8e934d116100b6578063deaa59df1161007a578063deaa59df14610763578063e5a6b10f14610783578063e61735c014610798578063f33323a4146107b8578063f67b2bad146107d8578063fbb81279146107fa57600080fd5b8063bf8e934d146106e1578063ca996de3146106f7578063d44499a81461070d578063d547741f14610723578063dab5d88d1461074357600080fd5b806391d148541161010857806391d14854146106225780639d90724d146106425780639e556b2b14610658578063a217fddf14610678578063a9a24f271461068d578063b9ea870a146106c157600080fd5b80636f6b25691461056c57806378fab2601461058c5780637ed5acfa146105c05780638456cb59146105ed5780638bac3a241461060257600080fd5b806341ea6a0f116101dd578063521eb273116101a1578063521eb273146104c757806353428253146104e65780635b494dd5146104fc5780635c975abb1461051e5780635d505fe7146105365780636f0dbe6f1461054c57600080fd5b806341ea6a0f146103fa578063468a8c9f146104105780634a47a3e01461044b5780634d15eb031461046d5780634f1ef286146104b457600080fd5b8063248a9ca31161022f578063248a9ca31461032557806324ea54f4146103635780632f2ff15d1461038557806336568abe146103a55780633659cfe6146103c55780633f4ba83a146103e557600080fd5b806301ffc9a71461026c578063066dda0e146102a157806306fdde03146102c3578063089a8504146102e557806322875d6314610305575b600080fd5b34801561027857600080fd5b5061028c6102873660046140b0565b61082e565b60405190151581526020015b60405180910390f35b3480156102ad57600080fd5b506102c16102bc36600461418d565b610865565b005b3480156102cf57600080fd5b506102d8610941565b60405161029891906143e4565b3480156102f157600080fd5b506102c1610300366004614067565b6109d4565b34801561031157600080fd5b506102c1610320366004614067565b610ba3565b34801561033157600080fd5b50610355610340366004614067565b600090815260c9602052604090206001015490565b604051908152602001610298565b34801561036f57600080fd5b5061035560008051602061485283398151915281565b34801561039157600080fd5b506102c16103a0366004614080565b610d67565b3480156103b157600080fd5b506102c16103c0366004614080565b610d8d565b3480156103d157600080fd5b506102c16103e0366004613fc9565b610e0b565b3480156103f157600080fd5b506102c1610ed4565b34801561040657600080fd5b5061013454610355565b34801561041c57600080fd5b5061012d546040805164ffffffffff83168152600160281b90920466ffffffffffffff16602083015201610298565b34801561045757600080fd5b5061035560008051602061483283398151915281565b34801561047957600080fd5b507f00000000000000000000000000000000000000000000000000000000000000005b6040516001600160a01b039091168152602001610298565b6102c16104c2366004613fe6565b610fea565b3480156104d357600080fd5b50610136546001600160a01b031661049c565b3480156104f257600080fd5b5061013054610355565b34801561050857600080fd5b506103556000805160206147eb83398151915281565b34801561052a57600080fd5b5060fb5460ff1661028c565b34801561054257600080fd5b5061013354610355565b34801561055857600080fd5b506102c16105673660046140f7565b6110a0565b34801561057857600080fd5b50610355610587366004614202565b611122565b34801561059857600080fd5b506103557f92a19c77d2ea87c7f81d50c74403cb2f401780f3ad919571121efe2bdb427eb181565b3480156105cc57600080fd5b506105d76201518081565b60405164ffffffffff9091168152602001610298565b3480156105f957600080fd5b506102c1611168565b34801561060e57600080fd5b5061035561061d366004614256565b611270565b34801561062e57600080fd5b5061028c61063d366004614080565b611389565b34801561064e57600080fd5b5061013254610355565b34801561066457600080fd5b506102c16106733660046141bc565b6113b4565b34801561068457600080fd5b50610355600081565b34801561069957600080fd5b506103557f0df0a8869cf58168a14cd7ac426ff1b8c6ff5d5c800c6f44803f3431dcb3bad181565b3480156106cd57600080fd5b506102c16106dc366004614067565b611450565b3480156106ed57600080fd5b5061012f54610355565b34801561070357600080fd5b5061013554610355565b34801561071957600080fd5b5061013154610355565b34801561072f57600080fd5b506102c161073e366004614080565b61160b565b34801561074f57600080fd5b506102c161075e366004614067565b611631565b34801561076f57600080fd5b506102c161077e366004613fc9565b6117f8565b34801561078f57600080fd5b5061049c611858565b3480156107a457600080fd5b506102c16107b3366004614067565b6118f0565b3480156107c457600080fd5b506102c16107d3366004614067565b611ab5565b3480156107e457600080fd5b506103556000805160206147cb83398151915281565b34801561080657600080fd5b506103557fc6823861ee2bb2198ce6b1fd6faf4c8f44f745bc804aca4a762f67e0d507fd8a81565b60006001600160e01b03198216637965db0b60e01b148061085f57506301ffc9a760e01b6001600160e01b03198316145b92915050565b7f92a19c77d2ea87c7f81d50c74403cb2f401780f3ad919571121efe2bdb427eb16108908133611e79565b60fb5460ff16156108bc5760405162461bcd60e51b81526004016108b3906144af565b60405180910390fd5b604051630336ed0760e11b81526001600160a01b037f0000000000000000000000000000000000000000000000000000000000000000169063066dda0e9061090a9086908690600401614527565b600060405180830381600087803b15801561092457600080fd5b505af1158015610938573d6000803e3d6000fd5b50505050505050565b606061012e80546109519061471a565b80601f016020809104026020016040519081016040528092919081815260200182805461097d9061471a565b80156109ca5780601f1061099f576101008083540402835291602001916109ca565b820191906000526020600020905b8154815290600101906020018083116109ad57829003601f168201915b5050505050905090565b6000805160206148328339815191526000805160206147eb8339815191527f00000000000000000000000000000000000000000000000000000000000000006001600160a01b03166379502c556040518163ffffffff1660e01b815260040160206040518083038186803b158015610a4b57600080fd5b505afa158015610a5f573d6000803e3d6000fd5b505050506040513d601f19601f82011682018060405250810190610a8391906140da565b6001600160a01b031663c5b8f5cf8383336040518463ffffffff1660e01b8152600401610ab2939291906143c5565b60006040518083038186803b158015610aca57600080fd5b505afa158015610ade573d6000803e3d6000fd5b505050506000610afb600080516020614832833981519152611edd565b159050801580610b1f5750610b1f61013154856af8277896582678ac000000611ff0565b610b835760405162461bcd60e51b815260206004820152602f60248201527f547765616b2065786365656465643a20656e7375726f46656520747765616b7360448201526e206f6e6c7920757020746f2033302560881b60648201526084016108b3565b610131849055610b95600a858361207b565b50610b9e6120d4565b505050565b6000805160206148328339815191526000805160206147eb8339815191527f00000000000000000000000000000000000000000000000000000000000000006001600160a01b03166379502c556040518163ffffffff1660e01b815260040160206040518083038186803b158015610c1a57600080fd5b505afa158015610c2e573d6000803e3d6000fd5b505050506040513d601f19601f82011682018060405250810190610c5291906140da565b6001600160a01b031663c5b8f5cf8383336040518463ffffffff1660e01b8152600401610c81939291906143c5565b60006040518083038186803b158015610c9957600080fd5b505afa158015610cad573d6000803e3d6000fd5b505050506000610cca600080516020614832833981519152611edd565b159050801580610ceb5750610ceb6101335485670429d069189e00006123a2565b610d555760405162461bcd60e51b815260206004820152603560248201527f547765616b2065786365656465643a206d6178536372506572506f6c69637920604482015274747765616b73206f6e6c7920757020746f2033302560581b60648201526084016108b3565b610133849055610b95600b858361207b565b600082815260c96020526040902060010154610d838133611e79565b610b9e8383612411565b6001600160a01b0381163314610dfd5760405162461bcd60e51b815260206004820152602f60248201527f416363657373436f6e74726f6c3a2063616e206f6e6c792072656e6f756e636560448201526e103937b632b9903337b91039b2b63360891b60648201526084016108b3565b610e078282612497565b5050565b306001600160a01b037f0000000000000000000000000000000000000000000000000000000000000000161415610e545760405162461bcd60e51b81526004016108b390614417565b7f00000000000000000000000000000000000000000000000000000000000000006001600160a01b0316610e866124fe565b6001600160a01b031614610eac5760405162461bcd60e51b81526004016108b390614463565b610eb58161252c565b60408051600080825260208201909252610ed191839190612636565b50565b6000805160206148528339815191526000805160206147cb8339815191527f00000000000000000000000000000000000000000000000000000000000000006001600160a01b03166379502c556040518163ffffffff1660e01b815260040160206040518083038186803b158015610f4b57600080fd5b505afa158015610f5f573d6000803e3d6000fd5b505050506040513d601f19601f82011682018060405250810190610f8391906140da565b6001600160a01b031663c5b8f5cf8383336040518463ffffffff1660e01b8152600401610fb2939291906143c5565b60006040518083038186803b158015610fca57600080fd5b505afa158015610fde573d6000803e3d6000fd5b50505050610e07612781565b306001600160a01b037f00000000000000000000000000000000000000000000000000000000000000001614156110335760405162461bcd60e51b81526004016108b390614417565b7f00000000000000000000000000000000000000000000000000000000000000006001600160a01b03166110656124fe565b6001600160a01b03161461108b5760405162461bcd60e51b81526004016108b390614463565b6110948261252c565b610e0782826001612636565b600054610100900460ff16806110b9575060005460ff16155b6110d55760405162461bcd60e51b81526004016108b3906144d9565b600054610100900460ff161580156110f7576000805461ffff19166101011790555b61110688888888888888612814565b8015611118576000805461ff00191690555b5050505050505050565b60007fc6823861ee2bb2198ce6b1fd6faf4c8f44f745bc804aca4a762f67e0d507fd8a61114f8133611e79565b61115c878787878761288a565b51979650505050505050565b6000805160206148528339815191527f00000000000000000000000000000000000000000000000000000000000000006001600160a01b03166379502c556040518163ffffffff1660e01b815260040160206040518083038186803b1580156111d057600080fd5b505afa1580156111e4573d6000803e3d6000fd5b505050506040513d601f19601f8201168201806040525081019061120891906140da565b6040516312d9a6ad60e01b8152600481018390523360248201526001600160a01b0391909116906312d9a6ad9060440160006040518083038186803b15801561125057600080fd5b505afa158015611264573d6000803e3d6000fd5b50505050610ed1612cf2565b6000806112a161129c61128d6112866101305490565b8790612d4a565b61129688612e21565b90612d4a565b612e9f565b905060006112bc6112b561129c6101315490565b8390612f27565b9050600081836112d96112d261129c61012f5490565b8a90612f27565b6112e39190614677565b6112ed9190614677565b9050600061132d61129c6e0612d847b578e7643c28ac000000006113184264ffffffffff8b16614677565b610132545b6113279190614658565b90612fda565b90506113398282612f27565b6113439083614677565b915060006113518383612f27565b905061137a670de27d72f9c740008261136a878961461e565b611374919061461e565b90612f27565b955050505050505b9392505050565b600091825260c9602090815260408084206001600160a01b0393909316845291905290205460ff1690565b7f92a19c77d2ea87c7f81d50c74403cb2f401780f3ad919571121efe2bdb427eb16113df8133611e79565b60fb5460ff16156114025760405162461bcd60e51b81526004016108b3906144af565b604051639e556b2b60e01b81526001600160a01b037f00000000000000000000000000000000000000000000000000000000000000001690639e556b2b9061090a9086908690600401614546565b6000805160206148328339815191526000805160206147eb8339815191527f00000000000000000000000000000000000000000000000000000000000000006001600160a01b03166379502c556040518163ffffffff1660e01b815260040160206040518083038186803b1580156114c757600080fd5b505afa1580156114db573d6000803e3d6000fd5b505050506040513d601f19601f820116820180604052508101906114ff91906140da565b6001600160a01b031663c5b8f5cf8383336040518463ffffffff1660e01b815260040161152e939291906143c5565b60006040518083038186803b15801561154657600080fd5b505afa15801561155a573d6000803e3d6000fd5b505050506000611577600080516020614832833981519152611edd565b15905080158061159b575061159b61013054856a52b7d2dcc80cd2e4000000611ff0565b6115f95760405162461bcd60e51b815260206004820152602960248201527f547765616b2065786365656465643a206d6f6320747765616b73206f6e6c7920604482015268757020746f2031302560b81b60648201526084016108b3565b610130849055610b956008858361207b565b600082815260c960205260409020600101546116278133611e79565b610b9e8383612497565b6000805160206148328339815191526000805160206147eb8339815191527f00000000000000000000000000000000000000000000000000000000000000006001600160a01b03166379502c556040518163ffffffff1660e01b815260040160206040518083038186803b1580156116a857600080fd5b505afa1580156116bc573d6000803e3d6000fd5b505050506040513d601f19601f820116820180604052508101906116e091906140da565b6001600160a01b031663c5b8f5cf8383336040518463ffffffff1660e01b815260040161170f939291906143c5565b60006040518083038186803b15801561172757600080fd5b505afa15801561173b573d6000803e3d6000fd5b505050506000611758600080516020614832833981519152611edd565b15905080158061177c575061177c61013254856af8277896582678ac000000611ff0565b6117e65760405162461bcd60e51b815260206004820152603560248201527f547765616b2065786365656465643a20736372496e7465726573745261746520604482015274747765616b73206f6e6c7920757020746f2033302560581b60648201526084016108b3565b610132849055610b956009858361207b565b7f0df0a8869cf58168a14cd7ac426ff1b8c6ff5d5c800c6f44803f3431dcb3bad16118238133611e79565b61013680546001600160a01b0319166001600160a01b03841690811790915561185090600f90600061207b565b610e076120d4565b60007f00000000000000000000000000000000000000000000000000000000000000006001600160a01b031663e5a6b10f6040518163ffffffff1660e01b815260040160206040518083038186803b1580156118b357600080fd5b505afa1580156118c7573d6000803e3d6000fd5b505050506040513d601f19601f820116820180604052508101906118eb91906140da565b905090565b6000805160206148328339815191526000805160206147eb8339815191527f00000000000000000000000000000000000000000000000000000000000000006001600160a01b03166379502c556040518163ffffffff1660e01b815260040160206040518083038186803b15801561196757600080fd5b505afa15801561197b573d6000803e3d6000fd5b505050506040513d601f19601f8201168201806040525081019061199f91906140da565b6001600160a01b031663c5b8f5cf8383336040518463ffffffff1660e01b81526004016119ce939291906143c5565b60006040518083038186803b1580156119e657600080fd5b505afa1580156119fa573d6000803e3d6000fd5b505050506000611a17600080516020614832833981519152611edd565b159050801580611a3b5750611a3b61012f54856a52b7d2dcc80cd2e4000000611ff0565b611aa35760405162461bcd60e51b815260206004820152603360248201527f547765616b2065786365656465643a2073637250657263656e7461676520747760448201527265616b73206f6e6c7920757020746f2031302560681b60648201526084016108b3565b61012f849055610b956007858361207b565b6000805160206147cb8339815191526000805160206148328339815191526000805160206147eb833981519152611aeb83611edd565b611be0577f00000000000000000000000000000000000000000000000000000000000000006001600160a01b03166379502c556040518163ffffffff1660e01b815260040160206040518083038186803b158015611b4857600080fd5b505afa158015611b5c573d6000803e3d6000fd5b505050506040513d601f19601f82011682018060405250810190611b8091906140da565b6001600160a01b031663c5b8f5cf8383336040518463ffffffff1660e01b8152600401611baf939291906143c5565b60006040518083038186803b158015611bc757600080fd5b505afa158015611bdb573d6000803e3d6000fd5b505050505b6000611bf9600080516020614832833981519152611edd565b158015611c1a5750611c186000805160206147cb833981519152611edd565b155b9050801580611c3a5750611c3a610134548667016345785d8a00006123a2565b611c9d5760405162461bcd60e51b815260206004820152602e60248201527f547765616b2065786365656465643a207363724c696d697420747765616b732060448201526d6f6e6c7920757020746f2031302560901b60648201526084016108b3565b6101345485111580611cc15750611cc16000805160206147cb833981519152611edd565b80611d67575084611d6567016345785d8a00007f00000000000000000000000000000000000000000000000000000000000000006001600160a01b031663b77ddfea6040518163ffffffff1660e01b815260040160206040518083038186803b158015611d2d57600080fd5b505afa158015611d41573d6000803e3d6000fd5b505050506040513d601f19601f8201168201806040525081019061137491906141e9565b115b611dee5760405162461bcd60e51b815260206004820152604c60248201527f547765616b2065786365656465643a20496e6372656173652c203e3d3130252060448201527f6f662074686520746f74616c206c69717569646974792c20726571756972657360648201526b204c4556454c315f524f4c4560a01b608482015260a4016108b3565b61013554851015611e585760405162461bcd60e51b815260206004820152602e60248201527f43616e27742073657420534352206c657373207468616e2063757272656e742060448201526d29a1a91030b63637b1b0ba34b7b760911b60648201526084016108b3565b610134859055611e6a600c868361207b565b50611e736120d4565b50505050565b611e838282611389565b610e0757611e9b816001600160a01b031660146130e0565b611ea68360206130e0565b604051602001611eb7929190614350565b60408051601f198184030181529082905262461bcd60e51b82526108b3916004016143e4565b60007f00000000000000000000000000000000000000000000000000000000000000006001600160a01b03166379502c556040518163ffffffff1660e01b815260040160206040518083038186803b158015611f3857600080fd5b505afa158015611f4c573d6000803e3d6000fd5b505050506040513d601f19601f82011682018060405250810190611f7091906140da565b604051632474521560e21b8152600481018490523360248201526001600160a01b0391909116906391d148549060440160206040518083038186803b158015611fb857600080fd5b505afa158015611fcc573d6000803e3d6000fd5b505050506040513d601f19601f8201168201806040525081019061085f919061404a565b60008284141561200257506001611382565b8361201c5750676765c793fa10079d601b1b811015611382565b8261202957506000611382565b8284101561205b5781676765c793fa10079d601b1b6120488587612fda565b6120529190614677565b11159050611382565b816120668486612fda565b61205290676765c793fa10079d601b1b614677565b801561208a5761208a8361327c565b82601b81111561209c5761209c614765565b6040518381527f7bc647fe5043209e2019aa3503b79c1b0dd83eb61c56013d373a7584ff6bfb139060200160405180910390a2505050565b676765c793fa10079d601b1b61012f54111580156120f55750600061012f54115b61214f5760405162461bcd60e51b815260206004820152602560248201527f56616c69646174696f6e3a2073637250657263656e74616765206d757374206260448201526465203c3d3160d81b60648201526084016108b3565b612165676765c793fa10079d601b1b6002614658565b610130541115801561218f57506121886002676765c793fa10079d601b1b614636565b6101305410155b6121db5760405162461bcd60e51b815260206004820181905260248201527f56616c69646174696f6e3a206d6f63206d757374206265205b302e352c20325d60448201526064016108b3565b676765c793fa10079d601b1b6101315411156122445760405162461bcd60e51b815260206004820152602260248201527f56616c69646174696f6e3a20656e7375726f466565206d757374206265203c3d604482015261203160f01b60648201526084016108b3565b676765c793fa10079d601b1b6101325411156122ba5760405162461bcd60e51b815260206004820152602f60248201527f56616c69646174696f6e3a20736372496e74657265737452617465206d75737460448201526e206265203c3d20312028313030252960881b60648201526084016108b3565b610135546101345410156123365760405162461bcd60e51b815260206004820152603760248201527f56616c69646174696f6e3a207363724c696d69742063616e2774206265206c6560448201527f7373207468616e2061637475616c20746f74616c53637200000000000000000060648201526084016108b3565b610136546001600160a01b03166123a05760405162461bcd60e51b815260206004820152602860248201527f56616c69646174696f6e3a2057616c6c65742063616e2774206265207a65726f604482015267206164647265737360c01b60648201526084016108b3565b565b6000828414156123b457506001611382565b836123cb5750670de0b6b3a7640000811015611382565b826123d857506000611382565b828410156123f45781670de0b6b3a764000061204885876133e9565b816123ff84866133e9565b61205290670de0b6b3a7640000614677565b61241b8282611389565b610e0757600082815260c9602090815260408083206001600160a01b03851684529091529020805460ff191660011790556124533390565b6001600160a01b0316816001600160a01b0316837f2f8788117e7eff1d82e926ec794901d17c78024a50270940304540a733656f0d60405160405180910390a45050565b6124a18282611389565b15610e0757600082815260c9602090815260408083206001600160a01b0385168085529252808320805460ff1916905551339285917ff6391f5c32d9c69d2a47ea670b442974b53935d1edc7fd64eb21e047a839171b9190a45050565b7f360894a13ba1a3210667c828492db98dca3e2076cc3735a920a3ca505d382bbc546001600160a01b031690565b6000805160206148528339815191526000805160206147cb8339815191527f00000000000000000000000000000000000000000000000000000000000000006001600160a01b03166379502c556040518163ffffffff1660e01b815260040160206040518083038186803b1580156125a357600080fd5b505afa1580156125b7573d6000803e3d6000fd5b505050506040513d601f19601f820116820180604052508101906125db91906140da565b6001600160a01b031663c5b8f5cf8383336040518463ffffffff1660e01b815260040161260a939291906143c5565b60006040518083038186803b15801561262257600080fd5b505afa158015610938573d6000803e3d6000fd5b60006126406124fe565b905061264b846134d5565b6000835111806126585750815b1561266957612667848461357a565b505b7f4910fdfa16fed3260ed0e7147f7cc6da11a60208b5b9406d12a635614ffd9143805460ff1661277a57805460ff191660011781556040516001600160a01b03831660248201526126e890869060440160408051601f198184030181529190526020810180516001600160e01b0316631b2ce7f360e11b17905261357a565b50805460ff191681556126f96124fe565b6001600160a01b0316826001600160a01b0316146127715760405162461bcd60e51b815260206004820152602f60248201527f45524331393637557067726164653a207570677261646520627265616b73206660448201526e75727468657220757067726164657360881b60648201526084016108b3565b61277a85613665565b5050505050565b60fb5460ff166127ca5760405162461bcd60e51b815260206004820152601460248201527314185d5cd8589b194e881b9bdd081c185d5cd95960621b60448201526064016108b3565b60fb805460ff191690557f5db9ee0a495bf2e6ff9c91a7834c1ba4fdd244a5e8aa4e537bd38aeae4b073aa335b6040516001600160a01b03909116815260200160405180910390a1565b600054610100900460ff168061282d575060005460ff16155b6128495760405162461bcd60e51b81526004016108b3906144d9565b600054610100900460ff1615801561286b576000805461ffff19166101011790555b6128736136a5565b61287b613728565b6111068888888888888861378f565b612892613e04565b60fb5460ff16156128b55760405162461bcd60e51b81526004016108b3906144af565b8585106129045760405162461bcd60e51b815260206004820181905260248201527f5072656d69756d206d757374206265206c657373207468616e207061796f757460448201526064016108b3565b4264ffffffffff168364ffffffffff16116129615760405162461bcd60e51b815260206004820181905260248201527f45787069726174696f6e206d75737420626520696e207468652066757475726560448201526064016108b3565b6001600160a01b0382166129b75760405162461bcd60e51b815260206004820152601e60248201527f437573746f6d65722063616e2774206265207a65726f2061646472657373000060448201526064016108b3565b847f00000000000000000000000000000000000000000000000000000000000000006001600160a01b031663e5a6b10f6040518163ffffffff1660e01b815260040160206040518083038186803b158015612a1157600080fd5b505afa158015612a25573d6000803e3d6000fd5b505050506040513d601f19601f82011682018060405250810190612a4991906140da565b604051636eb1769f60e11b81526001600160a01b0385811660048301527f000000000000000000000000000000000000000000000000000000000000000081166024830152919091169063dd62ed3e9060440160206040518083038186803b158015612ab457600080fd5b505afa158015612ac8573d6000803e3d6000fd5b505050506040513d601f19601f82011682018060405250810190612aec91906141e9565b1015612b505760405162461bcd60e51b815260206004820152602d60248201527f596f75206d75737420616c6c6f7720454e5355524f20746f207472616e73666560448201526c7220746865207072656d69756d60981b60648201526084016108b3565b6000612b5f308789888861385f565b90506101335481606001511115612bd05760405162461bcd60e51b815260206004820152602f60248201527f5269736b4d6f64756c653a20534352206973206d6f7265207468616e206d617860448201526e696d756d2070657220706f6c69637960881b60648201526084016108b3565b80606001516101356000828254612be7919061461e565b909155505061013454610135541115612c425760405162461bcd60e51b815260206004820152601e60248201527f5269736b4d6f64756c653a20534352206c696d6974206578636565646564000060448201526064016108b3565b60405163f02839c160e01b81526000906001600160a01b037f0000000000000000000000000000000000000000000000000000000000000000169063f02839c190612c939085908890600401614563565b602060405180830381600087803b158015612cad57600080fd5b505af1158015612cc1573d6000803e3d6000fd5b505050506040513d601f19601f82011682018060405250810190612ce591906141e9565b8252509695505050505050565b60fb5460ff1615612d155760405162461bcd60e51b81526004016108b3906144af565b60fb805460ff191660011790557f62e78cea01bee320cd4e420270b5ea74000d11b0c9f74754ebdbfc544b05a2586127f73390565b6000821580612d57575081155b15612d645750600061085f565b81612d7b6002676765c793fa10079d601b1b614636565b612d8790600019614677565b612d919190614636565b831115612dec5760405162461bcd60e51b8152602060048201526024808201527f7261794d756c3a204d617468204d756c7469706c69636174696f6e204f766572604482015263666c6f7760e01b60648201526084016108b3565b676765c793fa10079d601b1b612e03600282614636565b612e0d8486614658565b612e17919061461e565b6113829190614636565b600080612e32633b9aca0084614658565b905082612e43633b9aca0083614636565b1461085f5760405162461bcd60e51b815260206004820152602660248201527f776164546f5261643a204d617468204d756c7469706c69636174696f6e204f766044820152656572666c6f7760d01b60648201526084016108b3565b600080612eb16002633b9aca00614636565b90506000612ebf848361461e565b905081811015612f115760405162461bcd60e51b815260206004820181905260248201527f726179546f5761643a204d617468204164646974696f6e204f766572666c6f7760448201526064016108b3565b612f1f633b9aca0082614636565b949350505050565b6000821580612f34575081155b15612f415750600061085f565b81612f556002670de0b6b3a7640000614636565b612f6190600019614677565b612f6b9190614636565b831115612fc65760405162461bcd60e51b8152602060048201526024808201527f7761644d756c3a204d617468204d756c7469706c69636174696f6e204f766572604482015263666c6f7760e01b60648201526084016108b3565b670de0b6b3a7640000612e03600282614636565b6000816130295760405162461bcd60e51b815260206004820152601860248201527f7261794469763a204469766973696f6e206279207a65726f000000000000000060448201526064016108b3565b6000613036600284614636565b9050676765c793fa10079d601b1b61305082600019614677565b61305a9190614636565b8411156130b55760405162461bcd60e51b8152602060048201526024808201527f7261794469763a204d617468204d756c7469706c69636174696f6e204f766572604482015263666c6f7760e01b60648201526084016108b3565b82816130cc676765c793fa10079d601b1b87614658565b6130d6919061461e565b612f1f9190614636565b606060006130ef836002614658565b6130fa90600261461e565b67ffffffffffffffff81111561311257613112614791565b6040519080825280601f01601f19166020018201604052801561313c576020820181803683370190505b509050600360fc1b816000815181106131575761315761477b565b60200101906001600160f81b031916908160001a905350600f60fb1b816001815181106131865761318661477b565b60200101906001600160f81b031916908160001a90535060006131aa846002614658565b6131b590600161461e565b90505b600181111561322d576f181899199a1a9b1b9c1cb0b131b232b360811b85600f16601081106131e9576131e961477b565b1a60f81b8282815181106131ff576131ff61477b565b60200101906001600160f81b031916908160001a90535060049490941c9361322681614703565b90506131b8565b5083156113825760405162461bcd60e51b815260206004820181905260248201527f537472696e67733a20686578206c656e67746820696e73756666696369656e7460448201526064016108b3565b6000600182601b81111561329257613292614765565b61329c91906146b4565b61012d54600160ff929092169190911b915062015180906132c49064ffffffffff164261468e565b64ffffffffff1611156133075761012d805466ffffffffffffff8316600160281b026bffffffffffffffffffffffff1990911664ffffffffff4216171790555050565b61012d54600160281b9004811666ffffffffffffff1661336b5761012d805464ffffffffff421664ffffffffff1966ffffffffffffff808616600160281b808604929092161702166bffffffffffffffffffffffff19909216919091171790555050565b60405162461bcd60e51b815260206004820152604760248201527f596f7520616c726561647920747765616b6564207468697320706172616d657460448201527f657220726563656e746c792e2057616974206265666f726520747765616b696e606482015266339030b3b0b4b760c91b608482015260a4016108b3565b6000816134385760405162461bcd60e51b815260206004820152601860248201527f7761644469763a204469766973696f6e206279207a65726f000000000000000060448201526064016108b3565b6000613445600284614636565b9050670de0b6b3a764000061345c82600019614677565b6134669190614636565b8411156134c15760405162461bcd60e51b8152602060048201526024808201527f7761644469763a204d617468204d756c7469706c69636174696f6e204f766572604482015263666c6f7760e01b60648201526084016108b3565b82816130cc670de0b6b3a764000087614658565b803b6135395760405162461bcd60e51b815260206004820152602d60248201527f455243313936373a206e657720696d706c656d656e746174696f6e206973206e60448201526c1bdd08184818dbdb9d1c9858dd609a1b60648201526084016108b3565b7f360894a13ba1a3210667c828492db98dca3e2076cc3735a920a3ca505d382bbc80546001600160a01b0319166001600160a01b0392909216919091179055565b6060823b6135d95760405162461bcd60e51b815260206004820152602660248201527f416464726573733a2064656c65676174652063616c6c20746f206e6f6e2d636f6044820152651b9d1c9858dd60d21b60648201526084016108b3565b600080846001600160a01b0316846040516135f49190614334565b600060405180830381855af49150503d806000811461362f576040519150601f19603f3d011682016040523d82523d6000602084013e613634565b606091505b509150915061365c828260405180606001604052806027815260200161480b60279139613c1d565b95945050505050565b61366e816134d5565b6040516001600160a01b038216907fbc7cd75a20ee27fd9adebab32041f755214dbc6bffa90cc0225b39da2e5c2d3b90600090a250565b600054610100900460ff16806136be575060005460ff16155b6136da5760405162461bcd60e51b81526004016108b3906144d9565b600054610100900460ff161580156136fc576000805461ffff19166101011790555b613704613c56565b61370c613c56565b613714613c56565b8015610ed1576000805461ff001916905550565b600054610100900460ff1680613741575060005460ff16155b61375d5760405162461bcd60e51b81526004016108b3906144d9565b600054610100900460ff1615801561377f576000805461ffff19166101011790555b613787613cc0565b613714613d1e565b600054610100900460ff16806137a8575060005460ff16155b6137c45760405162461bcd60e51b81526004016108b3906144d9565b600054610100900460ff161580156137e6576000805461ffff19166101011790555b87516137fa9061012e9060208b0190613e7c565b5061012f879055676765c793fa10079d601b1b61013055610131869055610132859055610133849055610134839055600061013581905561013680546001600160a01b0319166001600160a01b0385161790556138579033613d85565b6111066120d4565b613867613e04565b838511156138c25760405162461bcd60e51b815260206004820152602260248201527f5072656d69756d2063616e6e6f74206265206d6f7265207468616e207061796f6044820152611d5d60f21b60648201526084016108b3565b6138ca613e04565b6001600160a01b03871661012082018190526040808301889052602080840188905260808401879052815163bf8e934d60e01b81529151899361396f9361396893919263bf8e934d92600480840193919291829003018186803b15801561393057600080fd5b505afa158015613944573d6000803e3d6000fd5b505050506040513d601f19601f8201168201806040525081019061129c91906141e9565b8790612f27565b6139799190614677565b606082018190526139c05760405162461bcd60e51b81526020600482015260116024820152705343522063616e2774206265207a65726f60781b60448201526064016108b3565b64ffffffffff428116610140830152831661016082015260408051635342825360e01b81529051613a5c9161129c9161128d916001600160a01b038c1691635342825391600480820192602092909190829003018186803b158015613a2457600080fd5b505afa158015613a38573d6000803e3d6000fd5b505050506040513d601f19601f8201168201806040525081019061128691906141e9565b8160a0018181525050613aaf613aa4886001600160a01b031663d44499a86040518163ffffffff1660e01b815260040160206040518083038186803b15801561393057600080fd5b60a083015190612f27565b8160c0018181525050613b6a613b5f61129c6e0612d847b578e7643c28ac00000000846101400151856101600151613ae7919061468e565b64ffffffffff168b6001600160a01b0316639d90724d6040518163ffffffff1660e01b815260040160206040518083038186803b158015613b2757600080fd5b505afa158015613b3b573d6000803e3d6000fd5b505050506040513d601f19601f8201168201806040525081019061131d91906141e9565b606083015190612f27565b610100820181905260c082015160a0830151889291613b889161461e565b613b92919061461e565b1115613be05760405162461bcd60e51b815260206004820152601960248201527f5072656d69756d206c657373207468616e206d696e696d756d0000000000000060448201526064016108b3565b60c081015161010082015160a0830151613bfa9089614677565b613c049190614677565b613c0e9190614677565b60e08201529695505050505050565b60608315613c2c575081611382565b825115613c3c5782518084602001fd5b8160405162461bcd60e51b81526004016108b391906143e4565b600054610100900460ff1680613c6f575060005460ff16155b613c8b5760405162461bcd60e51b81526004016108b3906144d9565b600054610100900460ff16158015613714576000805461ffff19166101011790558015610ed1576000805461ff001916905550565b600054610100900460ff1680613cd9575060005460ff16155b613cf55760405162461bcd60e51b81526004016108b3906144d9565b600054610100900460ff16158015613704576000805461ffff191661010117905561370c613c56565b600054610100900460ff1680613d37575060005460ff16155b613d535760405162461bcd60e51b81526004016108b3906144d9565b600054610100900460ff16158015613d75576000805461ffff19166101011790555b613d7d613c56565b613714613d8f565b610e078282612411565b600054610100900460ff1680613da8575060005460ff16155b613dc45760405162461bcd60e51b81526004016108b3906144d9565b600054610100900460ff16158015613de6576000805461ffff19166101011790555b60fb805460ff191690558015610ed1576000805461ff001916905550565b60405180610180016040528060008152602001600081526020016000815260200160008152602001600081526020016000815260200160008152602001600081526020016000815260200160006001600160a01b03168152602001600064ffffffffff168152602001600064ffffffffff1681525090565b828054613e889061471a565b90600052602060002090601f016020900481019282613eaa5760008555613ef0565b82601f10613ec357805160ff1916838001178555613ef0565b82800160010185558215613ef0579182015b82811115613ef0578251825591602001919060010190613ed5565b50613efc929150613f00565b5090565b5b80821115613efc5760008155600101613f01565b600067ffffffffffffffff80841115613f3057613f30614791565b604051601f8501601f19908116603f01168101908282118183101715613f5857613f58614791565b81604052809350858152868686011115613f7157600080fd5b858560208301376000602087830101525050509392505050565b8035613f96816147a7565b919050565b60006101808284031215613fae57600080fd5b50919050565b803564ffffffffff81168114613f9657600080fd5b600060208284031215613fdb57600080fd5b8135611382816147a7565b60008060408385031215613ff957600080fd5b8235614004816147a7565b9150602083013567ffffffffffffffff81111561402057600080fd5b8301601f8101851361403157600080fd5b61404085823560208401613f15565b9150509250929050565b60006020828403121561405c57600080fd5b8151611382816147bc565b60006020828403121561407957600080fd5b5035919050565b6000806040838503121561409357600080fd5b8235915060208301356140a5816147a7565b809150509250929050565b6000602082840312156140c257600080fd5b81356001600160e01b03198116811461138257600080fd5b6000602082840312156140ec57600080fd5b8151611382816147a7565b600080600080600080600060e0888a03121561411257600080fd5b873567ffffffffffffffff81111561412957600080fd5b8801601f81018a1361413a57600080fd5b6141498a823560208401613f15565b9750506020880135955060408801359450606088013593506080880135925060a0880135915060c088013561417d816147a7565b8091505092959891949750929550565b6000806101a083850312156141a157600080fd5b6141ab8484613f9b565b91506101808301356140a5816147bc565b6000806101a083850312156141d057600080fd5b6141da8484613f9b565b94610180939093013593505050565b6000602082840312156141fb57600080fd5b5051919050565b600080600080600060a0868803121561421a57600080fd5b85359450602086013593506040860135925061423860608701613fb4565b91506080860135614248816147a7565b809150509295509295909350565b60008060006060848603121561426b57600080fd5b833592506020840135915061428260408501613fb4565b90509250925092565b803582526020810135602083015260408101356040830152606081013560608301526080810135608083015260a081013560a083015260c081013560c083015260e081013560e08301526101008082013581840152506101206142ef818301613f8b565b6001600160a01b03169083015261014061430a828201613fb4565b64ffffffffff1690830152610160614323828201613fb4565b64ffffffffff811684830152611e73565b600082516143468184602087016146d7565b9190910192915050565b7f416363657373436f6e74726f6c3a206163636f756e74200000000000000000008152600083516143888160178501602088016146d7565b7001034b99036b4b9b9b4b733903937b6329607d1b60179184019182015283516143b98160288401602088016146d7565b01602801949350505050565b92835260208301919091526001600160a01b0316604082015260600190565b60208152600082518060208401526144038160408501602087016146d7565b601f01601f19169190910160400192915050565b6020808252602c908201527f46756e6374696f6e206d7573742062652063616c6c6564207468726f7567682060408201526b19195b1959d85d1958d85b1b60a21b606082015260800190565b6020808252602c908201527f46756e6374696f6e206d7573742062652063616c6c6564207468726f7567682060408201526b6163746976652070726f787960a01b606082015260800190565b60208082526010908201526f14185d5cd8589b194e881c185d5cd95960821b604082015260600190565b6020808252602e908201527f496e697469616c697a61626c653a20636f6e747261637420697320616c72656160408201526d191e481a5b9a5d1a585b1a5e995960921b606082015260800190565b6101a08101614536828561428b565b8215156101808301529392505050565b6101a08101614555828561428b565b826101808301529392505050565b60006101a082019050835182526020840151602083015260408401516040830152606084015160608301526080840151608083015260a084015160a083015260c084015160c083015260e084015160e0830152610100808501518184015250610120808501516145dd828501826001600160a01b03169052565b50506101408481015164ffffffffff81168483015250506101608481015164ffffffffff81168483015250506001600160a01b038316610180830152611382565b600082198211156146315761463161474f565b500190565b60008261465357634e487b7160e01b600052601260045260246000fd5b500490565b60008160001904831182151516156146725761467261474f565b500290565b6000828210156146895761468961474f565b500390565b600064ffffffffff838116908316818110156146ac576146ac61474f565b039392505050565b600060ff821660ff8416808210156146ce576146ce61474f565b90039392505050565b60005b838110156146f25781810151838201526020016146da565b83811115611e735750506000910152565b6000816147125761471261474f565b506000190190565b600181811c9082168061472e57607f821691505b60208210811415613fae57634e487b7160e01b600052602260045260246000fd5b634e487b7160e01b600052601160045260246000fd5b634e487b7160e01b600052602160045260246000fd5b634e487b7160e01b600052603260045260246000fd5b634e487b7160e01b600052604160045260246000fd5b6001600160a01b0381168114610ed157600080fd5b8015158114610ed157600080fdfebf372ca3ebecfe59ac256f17697941bbe63302aced610e8b0e3646f743c7beb25ec196419322369c6bac572d883f4d990ae5ec82f7d93cdf89b85dbb05b63c27416464726573733a206c6f772d6c6576656c2064656c65676174652063616c6c206661696c6564a82e22387fca439f316d78ca566f383218ab8ae1b3e830178c9c82cbd16749c055435dd261a4b9b3364963f7738a7a662ad9c84396d64be3365284bb7f0a5041a26469706673582212208db79a14b37dc96bdd2ee4d9f42e16300eaf6587b5b38b5c8ddaa30feb17f9b664736f6c63430008060033",
  "linkReferences": {},
  "deployedLinkReferences": {}
}