{
  "_format": "hh-sol-artifact-1",
  "contractName": "EToken",
  "sourceName": "contracts/EToken.sol",
  "abi": [
    {
      "inputs": [
        {
          "internalType": "contract IPolicyPool",
          "name": "policyPool_",
          "type": "address"
        }
      ],
      "stateMutability": "nonpayable",
      "type": "constructor"
    },
    {
      "anonymous": false,
      "inputs": [
        {
          "indexed": false,
          "internalType": "address",
          "name": "previousAdmin",
          "type": "address"
        },
        {
          "indexed": false,
          "internalType": "address",
          "name": "newAdmin",
          "type": "address"
        }
      ],
      "name": "AdminChanged",
      "type": "event"
    },
    {
      "anonymous": false,
      "inputs": [
        {
          "indexed": true,
          "internalType": "address",
          "name": "owner",
          "type": "address"
        },
        {
          "indexed": true,
          "internalType": "address",
          "name": "spender",
          "type": "address"
        },
        {
          "indexed": false,
          "internalType": "uint256",
          "name": "value",
          "type": "uint256"
        }
      ],
      "name": "Approval",
      "type": "event"
    },
    {
      "anonymous": false,
      "inputs": [
        {
          "indexed": true,
          "internalType": "address",
          "name": "beacon",
          "type": "address"
        }
      ],
      "name": "BeaconUpgraded",
      "type": "event"
    },
    {
      "anonymous": false,
      "inputs": [
        {
          "indexed": true,
          "internalType": "enum IPolicyPoolConfig.GovernanceActions",
          "name": "action",
          "type": "uint8"
        },
        {
          "indexed": false,
          "internalType": "uint256",
          "name": "value",
          "type": "uint256"
        }
      ],
      "name": "GovernanceAction",
      "type": "event"
    },
    {
      "anonymous": false,
      "inputs": [
        {
          "indexed": false,
          "internalType": "address",
          "name": "account",
          "type": "address"
        }
      ],
      "name": "Paused",
      "type": "event"
    },
    {
      "anonymous": false,
      "inputs": [
        {
          "indexed": false,
          "internalType": "uint256",
          "name": "value",
          "type": "uint256"
        }
      ],
      "name": "PoolLoan",
      "type": "event"
    },
    {
      "anonymous": false,
      "inputs": [
        {
          "indexed": false,
          "internalType": "uint256",
          "name": "value",
          "type": "uint256"
        }
      ],
      "name": "PoolLoanRepaid",
      "type": "event"
    },
    {
      "anonymous": false,
      "inputs": [
        {
          "indexed": false,
          "internalType": "uint256",
          "name": "interestRate",
          "type": "uint256"
        },
        {
          "indexed": false,
          "internalType": "uint256",
          "name": "value",
          "type": "uint256"
        }
      ],
      "name": "SCRLocked",
      "type": "event"
    },
    {
      "anonymous": false,
      "inputs": [
        {
          "indexed": false,
          "internalType": "uint256",
          "name": "interestRate",
          "type": "uint256"
        },
        {
          "indexed": false,
          "internalType": "uint256",
          "name": "value",
          "type": "uint256"
        }
      ],
      "name": "SCRUnlocked",
      "type": "event"
    },
    {
      "anonymous": false,
      "inputs": [
        {
          "indexed": true,
          "internalType": "address",
          "name": "from",
          "type": "address"
        },
        {
          "indexed": true,
          "internalType": "address",
          "name": "to",
          "type": "address"
        },
        {
          "indexed": false,
          "internalType": "uint256",
          "name": "value",
          "type": "uint256"
        }
      ],
      "name": "Transfer",
      "type": "event"
    },
    {
      "anonymous": false,
      "inputs": [
        {
          "indexed": false,
          "internalType": "address",
          "name": "account",
          "type": "address"
        }
      ],
      "name": "Unpaused",
      "type": "event"
    },
    {
      "anonymous": false,
      "inputs": [
        {
          "indexed": true,
          "internalType": "address",
          "name": "implementation",
          "type": "address"
        }
      ],
      "name": "Upgraded",
      "type": "event"
    },
    {
      "inputs": [],
      "name": "GUARDIAN_ROLE",
      "outputs": [
        {
          "internalType": "bytes32",
          "name": "",
          "type": "bytes32"
        }
      ],
      "stateMutability": "view",
      "type": "function"
    },
    {
      "inputs": [],
      "name": "LEVEL1_ROLE",
      "outputs": [
        {
          "internalType": "bytes32",
          "name": "",
          "type": "bytes32"
        }
      ],
      "stateMutability": "view",
      "type": "function"
    },
    {
      "inputs": [],
      "name": "LEVEL2_ROLE",
      "outputs": [
        {
          "internalType": "bytes32",
          "name": "",
          "type": "bytes32"
        }
      ],
      "stateMutability": "view",
      "type": "function"
    },
    {
      "inputs": [],
      "name": "LEVEL3_ROLE",
      "outputs": [
        {
          "internalType": "bytes32",
          "name": "",
          "type": "bytes32"
        }
      ],
      "stateMutability": "view",
      "type": "function"
    },
    {
      "inputs": [],
      "name": "MIN_SCALE",
      "outputs": [
        {
          "internalType": "uint256",
          "name": "",
          "type": "uint256"
        }
      ],
      "stateMutability": "view",
      "type": "function"
    },
    {
      "inputs": [],
      "name": "TWEAK_EXPIRATION",
      "outputs": [
        {
          "internalType": "uint40",
          "name": "",
          "type": "uint40"
        }
      ],
      "stateMutability": "view",
      "type": "function"
    },
    {
      "inputs": [],
      "name": "acceptAllRMs",
      "outputs": [
        {
          "internalType": "bool",
          "name": "",
          "type": "bool"
        }
      ],
      "stateMutability": "view",
      "type": "function"
    },
    {
      "inputs": [
        {
          "internalType": "address",
          "name": "riskModule",
          "type": "address"
        },
        {
          "internalType": "uint40",
          "name": "policyExpiration",
          "type": "uint40"
        }
      ],
      "name": "accepts",
      "outputs": [
        {
          "internalType": "bool",
          "name": "",
          "type": "bool"
        }
      ],
      "stateMutability": "view",
      "type": "function"
    },
    {
      "inputs": [
        {
          "internalType": "address",
          "name": "owner",
          "type": "address"
        },
        {
          "internalType": "address",
          "name": "spender",
          "type": "address"
        }
      ],
      "name": "allowance",
      "outputs": [
        {
          "internalType": "uint256",
          "name": "",
          "type": "uint256"
        }
      ],
      "stateMutability": "view",
      "type": "function"
    },
    {
      "inputs": [
        {
          "internalType": "address",
          "name": "spender",
          "type": "address"
        },
        {
          "internalType": "uint256",
          "name": "amount",
          "type": "uint256"
        }
      ],
      "name": "approve",
      "outputs": [
        {
          "internalType": "bool",
          "name": "",
          "type": "bool"
        }
      ],
      "stateMutability": "nonpayable",
      "type": "function"
    },
    {
      "inputs": [
        {
          "internalType": "uint256",
          "name": "amount",
          "type": "uint256"
        },
        {
          "internalType": "bool",
          "name": "positive",
          "type": "bool"
        }
      ],
      "name": "assetEarnings",
      "outputs": [],
      "stateMutability": "nonpayable",
      "type": "function"
    },
    {
      "inputs": [
        {
          "internalType": "address",
          "name": "account",
          "type": "address"
        }
      ],
      "name": "balanceOf",
      "outputs": [
        {
          "internalType": "uint256",
          "name": "",
          "type": "uint256"
        }
      ],
      "stateMutability": "view",
      "type": "function"
    },
    {
      "inputs": [],
      "name": "currency",
      "outputs": [
        {
          "internalType": "contract IERC20Metadata",
          "name": "",
          "type": "address"
        }
      ],
      "stateMutability": "view",
      "type": "function"
    },
    {
      "inputs": [],
      "name": "decimals",
      "outputs": [
        {
          "internalType": "uint8",
          "name": "",
          "type": "uint8"
        }
      ],
      "stateMutability": "view",
      "type": "function"
    },
    {
      "inputs": [
        {
          "internalType": "address",
          "name": "spender",
          "type": "address"
        },
        {
          "internalType": "uint256",
          "name": "subtractedValue",
          "type": "uint256"
        }
      ],
      "name": "decreaseAllowance",
      "outputs": [
        {
          "internalType": "bool",
          "name": "",
          "type": "bool"
        }
      ],
      "stateMutability": "nonpayable",
      "type": "function"
    },
    {
      "inputs": [
        {
          "internalType": "address",
          "name": "provider",
          "type": "address"
        },
        {
          "internalType": "uint256",
          "name": "amount",
          "type": "uint256"
        }
      ],
      "name": "deposit",
      "outputs": [
        {
          "internalType": "uint256",
          "name": "",
          "type": "uint256"
        }
      ],
      "stateMutability": "nonpayable",
      "type": "function"
    },
    {
      "inputs": [
        {
          "internalType": "uint256",
          "name": "amount",
          "type": "uint256"
        },
        {
          "internalType": "bool",
          "name": "positive",
          "type": "bool"
        }
      ],
      "name": "discreteEarning",
      "outputs": [],
      "stateMutability": "nonpayable",
      "type": "function"
    },
    {
      "inputs": [
        {
          "internalType": "bool",
          "name": "updated",
          "type": "bool"
        }
      ],
      "name": "getCurrentScale",
      "outputs": [
        {
          "internalType": "uint256",
          "name": "",
          "type": "uint256"
        }
      ],
      "stateMutability": "view",
      "type": "function"
    },
    {
      "inputs": [],
      "name": "getInvestable",
      "outputs": [
        {
          "internalType": "uint256",
          "name": "",
          "type": "uint256"
        }
      ],
      "stateMutability": "view",
      "type": "function"
    },
    {
      "inputs": [],
      "name": "getPoolLoan",
      "outputs": [
        {
          "internalType": "uint256",
          "name": "",
          "type": "uint256"
        }
      ],
      "stateMutability": "view",
      "type": "function"
    },
    {
      "inputs": [
        {
          "internalType": "address",
          "name": "spender",
          "type": "address"
        },
        {
          "internalType": "uint256",
          "name": "addedValue",
          "type": "uint256"
        }
      ],
      "name": "increaseAllowance",
      "outputs": [
        {
          "internalType": "bool",
          "name": "",
          "type": "bool"
        }
      ],
      "stateMutability": "nonpayable",
      "type": "function"
    },
    {
      "inputs": [
        {
          "internalType": "string",
          "name": "name_",
          "type": "string"
        },
        {
          "internalType": "string",
          "name": "symbol_",
          "type": "string"
        },
        {
          "internalType": "uint40",
          "name": "expirationPeriod",
          "type": "uint40"
        },
        {
          "internalType": "uint256",
          "name": "liquidityRequirement_",
          "type": "uint256"
        },
        {
          "internalType": "uint256",
          "name": "maxUtilizationRate_",
          "type": "uint256"
        },
        {
          "internalType": "uint256",
          "name": "poolLoanInterestRate_",
          "type": "uint256"
        }
      ],
      "name": "initialize",
      "outputs": [],
      "stateMutability": "nonpayable",
      "type": "function"
    },
    {
      "inputs": [
        {
          "internalType": "address",
          "name": "riskModule",
          "type": "address"
        }
      ],
      "name": "isAcceptException",
      "outputs": [
        {
          "internalType": "bool",
          "name": "",
          "type": "bool"
        }
      ],
      "stateMutability": "view",
      "type": "function"
    },
    {
      "inputs": [],
      "name": "lastTweak",
      "outputs": [
        {
          "internalType": "uint40",
          "name": "",
          "type": "uint40"
        },
        {
          "internalType": "uint56",
          "name": "",
          "type": "uint56"
        }
      ],
      "stateMutability": "view",
      "type": "function"
    },
    {
      "inputs": [
        {
          "internalType": "uint256",
          "name": "amount",
          "type": "uint256"
        },
        {
          "internalType": "bool",
          "name": "fromOcean",
          "type": "bool"
        }
      ],
      "name": "lendToPool",
      "outputs": [
        {
          "internalType": "uint256",
          "name": "",
          "type": "uint256"
        }
      ],
      "stateMutability": "nonpayable",
      "type": "function"
    },
    {
      "inputs": [],
      "name": "liquidityRequirement",
      "outputs": [
        {
          "internalType": "uint256",
          "name": "",
          "type": "uint256"
        }
      ],
      "stateMutability": "view",
      "type": "function"
    },
    {
      "inputs": [
        {
          "internalType": "uint256",
          "name": "policyInterestRate",
          "type": "uint256"
        },
        {
          "internalType": "uint256",
          "name": "scrAmount",
          "type": "uint256"
        }
      ],
      "name": "lockScr",
      "outputs": [],
      "stateMutability": "nonpayable",
      "type": "function"
    },
    {
      "inputs": [],
      "name": "maxUtilizationRate",
      "outputs": [
        {
          "internalType": "uint256",
          "name": "",
          "type": "uint256"
        }
      ],
      "stateMutability": "view",
      "type": "function"
    },
    {
      "inputs": [],
      "name": "name",
      "outputs": [
        {
          "internalType": "string",
          "name": "",
          "type": "string"
        }
      ],
      "stateMutability": "view",
      "type": "function"
    },
    {
      "inputs": [],
      "name": "ocean",
      "outputs": [
        {
          "internalType": "uint256",
          "name": "",
          "type": "uint256"
        }
      ],
      "stateMutability": "view",
      "type": "function"
    },
    {
      "inputs": [],
      "name": "oceanForNewScr",
      "outputs": [
        {
          "internalType": "uint256",
          "name": "",
          "type": "uint256"
        }
      ],
      "stateMutability": "view",
      "type": "function"
    },
    {
      "inputs": [],
      "name": "pause",
      "outputs": [],
      "stateMutability": "nonpayable",
      "type": "function"
    },
    {
      "inputs": [],
      "name": "paused",
      "outputs": [
        {
          "internalType": "bool",
          "name": "",
          "type": "bool"
        }
      ],
      "stateMutability": "view",
      "type": "function"
    },
    {
      "inputs": [],
      "name": "policyPool",
      "outputs": [
        {
          "internalType": "contract IPolicyPool",
          "name": "",
          "type": "address"
        }
      ],
      "stateMutability": "view",
      "type": "function"
    },
    {
      "inputs": [],
      "name": "poolLoanInterestRate",
      "outputs": [
        {
          "internalType": "uint256",
          "name": "",
          "type": "uint256"
        }
      ],
      "stateMutability": "view",
      "type": "function"
    },
    {
      "inputs": [
        {
          "internalType": "uint256",
          "name": "amount",
          "type": "uint256"
        }
      ],
      "name": "repayPoolLoan",
      "outputs": [],
      "stateMutability": "nonpayable",
      "type": "function"
    },
    {
      "inputs": [],
      "name": "scr",
      "outputs": [
        {
          "internalType": "uint256",
          "name": "",
          "type": "uint256"
        }
      ],
      "stateMutability": "view",
      "type": "function"
    },
    {
      "inputs": [],
      "name": "scrInterestRate",
      "outputs": [
        {
          "internalType": "uint256",
          "name": "",
          "type": "uint256"
        }
      ],
      "stateMutability": "view",
      "type": "function"
    },
    {
      "inputs": [
        {
          "internalType": "bool",
          "name": "acceptAllRMs_",
          "type": "bool"
        }
      ],
      "name": "setAcceptAllRMs",
      "outputs": [],
      "stateMutability": "nonpayable",
      "type": "function"
    },
    {
      "inputs": [
        {
          "internalType": "address",
          "name": "riskModule",
          "type": "address"
        },
        {
          "internalType": "bool",
          "name": "isException",
          "type": "bool"
        }
      ],
      "name": "setAcceptException",
      "outputs": [],
      "stateMutability": "nonpayable",
      "type": "function"
    },
    {
      "inputs": [
        {
          "internalType": "uint256",
          "name": "newRate",
          "type": "uint256"
        }
      ],
      "name": "setLiquidityRequirement",
      "outputs": [],
      "stateMutability": "nonpayable",
      "type": "function"
    },
    {
      "inputs": [
        {
          "internalType": "uint256",
          "name": "newRate",
          "type": "uint256"
        }
      ],
      "name": "setMaxUtilizationRate",
      "outputs": [],
      "stateMutability": "nonpayable",
      "type": "function"
    },
    {
      "inputs": [
        {
          "internalType": "uint256",
          "name": "newRate",
          "type": "uint256"
        }
      ],
      "name": "setPoolLoanInterestRate",
      "outputs": [],
      "stateMutability": "nonpayable",
      "type": "function"
    },
    {
      "inputs": [],
      "name": "symbol",
      "outputs": [
        {
          "internalType": "string",
          "name": "",
          "type": "string"
        }
      ],
      "stateMutability": "view",
      "type": "function"
    },
    {
      "inputs": [],
      "name": "tokenInterestRate",
      "outputs": [
        {
          "internalType": "uint256",
          "name": "",
          "type": "uint256"
        }
      ],
      "stateMutability": "view",
      "type": "function"
    },
    {
      "inputs": [],
      "name": "totalSupply",
      "outputs": [
        {
          "internalType": "uint256",
          "name": "",
          "type": "uint256"
        }
      ],
      "stateMutability": "view",
      "type": "function"
    },
    {
      "inputs": [],
      "name": "totalWithdrawable",
      "outputs": [
        {
          "internalType": "uint256",
          "name": "",
          "type": "uint256"
        }
      ],
      "stateMutability": "view",
      "type": "function"
    },
    {
      "inputs": [
        {
          "internalType": "address",
          "name": "recipient",
          "type": "address"
        },
        {
          "internalType": "uint256",
          "name": "amount",
          "type": "uint256"
        }
      ],
      "name": "transfer",
      "outputs": [
        {
          "internalType": "bool",
          "name": "",
          "type": "bool"
        }
      ],
      "stateMutability": "nonpayable",
      "type": "function"
    },
    {
      "inputs": [
        {
          "internalType": "address",
          "name": "sender",
          "type": "address"
        },
        {
          "internalType": "address",
          "name": "recipient",
          "type": "address"
        },
        {
          "internalType": "uint256",
          "name": "amount",
          "type": "uint256"
        }
      ],
      "name": "transferFrom",
      "outputs": [
        {
          "internalType": "bool",
          "name": "",
          "type": "bool"
        }
      ],
      "stateMutability": "nonpayable",
      "type": "function"
    },
    {
      "inputs": [
        {
          "internalType": "uint256",
          "name": "policyInterestRate",
          "type": "uint256"
        },
        {
          "internalType": "uint256",
          "name": "scrAmount",
          "type": "uint256"
        }
      ],
      "name": "unlockScr",
      "outputs": [],
      "stateMutability": "nonpayable",
      "type": "function"
    },
    {
      "inputs": [],
      "name": "unpause",
      "outputs": [],
      "stateMutability": "nonpayable",
      "type": "function"
    },
    {
      "inputs": [
        {
          "internalType": "address",
          "name": "newImplementation",
          "type": "address"
        }
      ],
      "name": "upgradeTo",
      "outputs": [],
      "stateMutability": "nonpayable",
      "type": "function"
    },
    {
      "inputs": [
        {
          "internalType": "address",
          "name": "newImplementation",
          "type": "address"
        },
        {
          "internalType": "bytes",
          "name": "data",
          "type": "bytes"
        }
      ],
      "name": "upgradeToAndCall",
      "outputs": [],
      "stateMutability": "payable",
      "type": "function"
    },
    {
      "inputs": [],
      "name": "utilizationRate",
      "outputs": [
        {
          "internalType": "uint256",
          "name": "",
          "type": "uint256"
        }
      ],
      "stateMutability": "view",
      "type": "function"
    },
    {
      "inputs": [
        {
          "internalType": "address",
          "name": "provider",
          "type": "address"
        },
        {
          "internalType": "uint256",
          "name": "amount",
          "type": "uint256"
        }
      ],
      "name": "withdraw",
      "outputs": [
        {
          "internalType": "uint256",
          "name": "",
          "type": "uint256"
        }
      ],
      "stateMutability": "nonpayable",
      "type": "function"
    }
  ],
  "bytecode": "0x60c06040523060601b6080523480156200001857600080fd5b506040516200537f3803806200537f8339810160408190526200003b9162000051565b60601b6001600160601b03191660a05262000083565b6000602082840312156200006457600080fd5b81516001600160a01b03811681146200007c57600080fd5b9392505050565b60805160601c60a05160601c6152136200016c600039600081816105fd01528181610b7401528181610cf901528181610e7701528181611018015281816112cc015281816113c901528181611549015281816115b5015281816116c6015281816118e701528181611ba401528181611e5a0152818161202d01528181612135015281816123be0152818161241701528181612628015281816127740152818161292d01528181612a620152818161336d015281816137d00152818161410601526142180152600081816111a5015281816111e501528181611aad0152611aed01526152136000f3fe6080604052600436106103505760003560e01c806360a92d1c116101c6578063a6ec335f116100f7578063bd7f6cd811610095578063e5a6b10f1161006f578063e5a6b10f146109b7578063e5ae143f146109cc578063f3fef3a3146109e1578063f67b2bad14610a0157600080fd5b8063bd7f6cd81461093c578063dd62ed3e1461095c578063dfcb48bd146109a257600080fd5b8063ab600169116100d1578063ab600169146108c7578063ac226a8a146108e7578063b5df472e14610907578063ba4e8df51461092757600080fd5b8063a6ec335f14610872578063a9059cbb14610887578063aa69d74b146108a757600080fd5b80637ed5acfa1161016457806393e9ddb41161013e57806393e9ddb41461080857806395d89b41146108285780639d90724d1461083d578063a457c2d71461085257600080fd5b80637ed5acfa146107a6578063837c83a3146107d35780638456cb59146107f357600080fd5b80636c6f4542116101a05780636c6f454214610735578063706ad35d1461074a57806370a082311461076657806379d989fb1461078657600080fd5b806360a92d1c146106f657806365e29c7e1461070b5780636c321c8a1461072057600080fd5b806339509351116102a05780634d87d0ac1161023e57806352a2783b1161021857806352a2783b1461068757806352cf2a6b1461069c5780635b494dd5146106bc5780635c975abb146106de57600080fd5b80634d87d0ac146106355780634f1ef286146106555780635292edc71461066857600080fd5b8063468a8c9f1161027a578063468a8c9f1461057257806347e7ef24146105ac5780634a47a3e0146105cc5780634d15eb03146105ee57600080fd5b8063395093511461051d5780633f4ba83a1461053d5780634438bcbb1461055257600080fd5b80631c0f4f811161030d5780633073b294116102e75780633073b29414610496578063313ce567146104b657806333487154146104dd5780633659cfe6146104fd57600080fd5b80631c0f4f811461043257806323b872dd1461045457806324ea54f41461047457600080fd5b80630600a8651461035557806306fdde031461037d578063095ea7b31461039f5780630f154864146103cf578063159ec2df1461040857806318160ddd1461041d575b600080fd5b34801561036157600080fd5b5061036a610a35565b6040519081526020015b60405180910390f35b34801561038957600080fd5b50610392610aa8565b6040516103749190614dd4565b3480156103ab57600080fd5b506103bf6103ba366004614bb5565b610b3a565b6040519015158152602001610374565b3480156103db57600080fd5b506103bf6103ea366004614a8c565b6001600160a01b0316600090815260db602052604090205460ff1690565b34801561041457600080fd5b5060d45461036a565b34801561042957600080fd5b5061036a610b51565b34801561043e57600080fd5b5061045261044d366004614cfd565b610b71565b005b34801561046057600080fd5b506103bf61046f366004614ae2565b610c40565b34801561048057600080fd5b5061036a6000805160206151be83398151915281565b3480156104a257600080fd5b5061036a6104b1366004614d2f565b610cf4565b3480156104c257600080fd5b506104cb611014565b60405160ff9091168152602001610374565b3480156104e957600080fd5b506103bf6104f8366004614be1565b611117565b34801561050957600080fd5b50610452610518366004614a8c565b61119a565b34801561052957600080fd5b506103bf610538366004614bb5565b611263565b34801561054957600080fd5b5061045261129a565b34801561055e57600080fd5b5061045261056d366004614d54565b6113c6565b34801561057e57600080fd5b5060c9546040805164ffffffffff83168152600160281b90920466ffffffffffffff16602083015201610374565b3480156105b857600080fd5b5061036a6105c7366004614bb5565b611544565b3480156105d857600080fd5b5061036a60008051602061519e83398151915281565b3480156105fa57600080fd5b507f00000000000000000000000000000000000000000000000000000000000000005b6040516001600160a01b039091168152602001610374565b34801561064157600080fd5b50610452610650366004614cfd565b6118c7565b610452610663366004614b51565b611aa2565b34801561067457600080fd5b5060da54600160281b900460ff166103bf565b34801561069357600080fd5b5061036a611b58565b3480156106a857600080fd5b506104526106b7366004614cfd565b611b84565b3480156106c857600080fd5b5061036a60008051602061515783398151915281565b3480156106ea57600080fd5b5060975460ff166103bf565b34801561070257600080fd5b5060d85461036a565b34801561071757600080fd5b5061036a611d51565b34801561072c57600080fd5b5061036a611d7a565b34801561074157600080fd5b5060d25461036a565b34801561075657600080fd5b5061036a67016345785d8a000081565b34801561077257600080fd5b5061036a610781366004614a8c565b611dfc565b34801561079257600080fd5b5061036a6107a1366004614c16565b611e3a565b3480156107b257600080fd5b506107bd6201518081565b60405164ffffffffff9091168152602001610374565b3480156107df57600080fd5b506104526107ee366004614d54565b611e57565b3480156107ff57600080fd5b5061045261201c565b34801561081457600080fd5b50610452610823366004614c16565b612124565b34801561083457600080fd5b50610392612264565b34801561084957600080fd5b5060d35461036a565b34801561085e57600080fd5b506103bf61086d366004614bb5565b612273565b34801561087e57600080fd5b5061036a61230f565b34801561089357600080fd5b506103bf6108a2366004614bb5565b6123ae565b3480156108b357600080fd5b506104526108c2366004614d2f565b6123bb565b3480156108d357600080fd5b506104526108e2366004614d2f565b612415565b3480156108f357600080fd5b50610452610902366004614c6d565b61258f565b34801561091357600080fd5b50610452610922366004614b23565b612617565b34801561093357600080fd5b5060d55461036a565b34801561094857600080fd5b50610452610957366004614cfd565b612754565b34801561096857600080fd5b5061036a610977366004614aa9565b6001600160a01b03918216600090815260cb6020908152604080832093909416825291909152205490565b3480156109ae57600080fd5b5060d65461036a565b3480156109c357600080fd5b5061061d612929565b3480156109d857600080fd5b5061036a6129bc565b3480156109ed57600080fd5b5061036a6109fc366004614bb5565b612a5d565b348015610a0d57600080fd5b5061036a7fbf372ca3ebecfe59ac256f17697941bbe63302aced610e8b0e3646f743c7beb281565b600080610a79610a7460d554610a6e60d354610a59676765c793fa10079d601b1b90565b610a639190614fa4565b610a6e60d254612b3d565b90612bbb565b612c92565b90506000610a85610b51565b9050818110610a9f57610a988282615026565b9250505090565b60009250505090565b606060cd8054610ab7906150b6565b80601f0160208091040260200160405190810160405280929190818152602001828054610ae3906150b6565b8015610b305780601f10610b0557610100808354040283529160200191610b30565b820191906000526020600020905b815481529060010190602001808311610b1357829003601f168201915b5050505050905090565b6000610b47338484612d1a565b5060015b92915050565b6000610b6c610a74610b61612e42565b610a6e60cc54612b3d565b905090565b337f00000000000000000000000000000000000000000000000000000000000000006001600160a01b031614610bc25760405162461bcd60e51b8152600401610bb990614f17565b60405180910390fd5b610bca612eb9565b610bf4610a7460d954610bee84610bdf611b58565b610be99190615026565b612b3d565b90612ef4565b60d755610bff612ffa565b610c0a81600161305e565b6040518181527fa222d62c2f9d6477588b0ac3ff7d73534b85c9382fbc1393aa5fbfd01f444f7e9060200160405180910390a150565b6000610c4d8484846130dd565b6001600160a01b038416600090815260cb6020908152604080832033845290915290205482811015610cd35760405162461bcd60e51b815260206004820152602960248201527f45546f6b656e3a207472616e7366657220616d6f756e74206578636565647320604482015268616c6c6f77616e636560b81b6064820152608401610bb9565b610ce78533610ce28685615026565b612d1a565b60019150505b9392505050565b6000337f00000000000000000000000000000000000000000000000000000000000000006001600160a01b031614610d3e5760405162461bcd60e51b8152600401610bb990614f17565b818015610d515750610d4e61230f565b83115b15610d6157610d5e61230f565b92505b81158015610d755750610d72610b51565b83115b15610d8557610d82610b51565b92505b610d8d6132d1565b831115610daa57610d9c6132d1565b925082610daa575081610b4b565b60d754610de15760d7839055676765c793fa10079d601b1b60d95560da805464ffffffffff19164264ffffffffff16179055610e12565b610de9612eb9565b610dfb610a7460d954610bee86612b3d565b60d76000828254610e0c9190614fa4565b90915550505b610e1a612ffa565b610e2583600061305e565b6040518381527f3790a165ff2f50e94c75a18cb0e6c4051982eb91429bf8df117c046eb19c07cc9060200160405180910390a181158015610e6e5750610e69610b51565b60d254115b1561100d5760007f00000000000000000000000000000000000000000000000000000000000000006001600160a01b03166379502c556040518163ffffffff1660e01b815260040160206040518083038186803b158015610ece57600080fd5b505afa158015610ee2573d6000803e3d6000fd5b505050506040513d601f19601f82011682018060405250810190610f069190614c50565b6001600160a01b0316631455cd286040518163ffffffff1660e01b815260040160206040518083038186803b158015610f3e57600080fd5b505afa158015610f52573d6000803e3d6000fd5b505050506040513d601f19601f82011682018060405250810190610f769190614c50565b90506001600160a01b0381161561100b57806001600160a01b0316639950de5030610f9f610b51565b60d254610fac9190615026565b6040516001600160e01b031960e085901b1681526001600160a01b0390921660048301526024820152604401600060405180830381600087803b158015610ff257600080fd5b505af1158015611006573d6000803e3d6000fd5b505050505b505b5090919050565b60007f00000000000000000000000000000000000000000000000000000000000000006001600160a01b031663e5a6b10f6040518163ffffffff1660e01b815260040160206040518083038186803b15801561106f57600080fd5b505afa158015611083573d6000803e3d6000fd5b505050506040513d601f19601f820116820180604052508101906110a79190614c50565b6001600160a01b031663313ce5676040518163ffffffff1660e01b815260040160206040518083038186803b1580156110df57600080fd5b505afa1580156110f3573d6000803e3d6000fd5b505050506040513d601f19601f82011682018060405250810190610b6c9190614d76565b600061112560975460ff1690565b1561113257506000610b4b565b6001600160a01b038316600090815260db602052604090205460da54600160281b900460ff908116151591161515141561116e57506000610b4b565b60cf546111829064ffffffffff1642614fbc565b64ffffffffff168264ffffffffff1610905092915050565b306001600160a01b037f00000000000000000000000000000000000000000000000000000000000000001614156111e35760405162461bcd60e51b8152600401610bb990614e07565b7f00000000000000000000000000000000000000000000000000000000000000006001600160a01b031661121561330d565b6001600160a01b03161461123b5760405162461bcd60e51b8152600401610bb990614e53565b6112448161333b565b6040805160008082526020820190925261126091839190613457565b50565b33600081815260cb602090815260408083206001600160a01b03871684529091528120549091610b47918590610ce2908690614fa4565b6000805160206151be8339815191527fbf372ca3ebecfe59ac256f17697941bbe63302aced610e8b0e3646f743c7beb27f00000000000000000000000000000000000000000000000000000000000000006001600160a01b03166379502c556040518163ffffffff1660e01b815260040160206040518083038186803b15801561132357600080fd5b505afa158015611337573d6000803e3d6000fd5b505050506040513d601f19601f8201168201806040525081019061135b9190614c50565b6001600160a01b031663c5b8f5cf8383336040518463ffffffff1660e01b815260040161138a93929190614db5565b60006040518083038186803b1580156113a257600080fd5b505afa1580156113b6573d6000803e3d6000fd5b505050506113c26135a2565b5050565b337f00000000000000000000000000000000000000000000000000000000000000006001600160a01b03161461140e5760405162461bcd60e51b8152600401610bb990614f17565b60d25481111561147c5760405162461bcd60e51b815260206004820152603360248201527f43757272656e7420534352206c657373207468616e2074686520616d6f756e7460448201527220796f752077616e7420746f20756e6c6f636b60681b6064820152608401610bb9565b611484612ffa565b8060d254141561149d57600060d281905560d355611502565b60006114aa60d254612b3d565b90508160d260008282546114be9190615026565b925050819055506114fd6114d360d254612b3d565b6114e66114df85612b3d565b8690612bbb565b60d3546114f39085612bbb565b610bee9190615026565b60d355505b60408051838152602081018390527f7b9d63ccbb37347ce0fe73e3663c640d22364d8c733839777f1729e59af1967f91015b60405180910390a16113c2613635565b6000337f00000000000000000000000000000000000000000000000000000000000000006001600160a01b03161461158e5760405162461bcd60e51b8152600401610bb990614f17565b60975460ff16156115b15760405162461bcd60e51b8152600401610bb990614e9f565b60007f00000000000000000000000000000000000000000000000000000000000000006001600160a01b03166379502c556040518163ffffffff1660e01b815260040160206040518083038186803b15801561160c57600080fd5b505afa158015611620573d6000803e3d6000fd5b505050506040513d601f19601f820116820180604052508101906116449190614c50565b6001600160a01b03166363b12da86040518163ffffffff1660e01b815260040160206040518083038186803b15801561167c57600080fd5b505afa158015611690573d6000803e3d6000fd5b505050506040513d601f19601f820116820180604052508101906116b49190614c50565b6001600160a01b0316148061184d57507f00000000000000000000000000000000000000000000000000000000000000006001600160a01b03166379502c556040518163ffffffff1660e01b815260040160206040518083038186803b15801561171d57600080fd5b505afa158015611731573d6000803e3d6000fd5b505050506040513d601f19601f820116820180604052508101906117559190614c50565b6001600160a01b03166363b12da86040518163ffffffff1660e01b815260040160206040518083038186803b15801561178d57600080fd5b505afa1580156117a1573d6000803e3d6000fd5b505050506040513d601f19601f820116820180604052508101906117c59190614c50565b6040516337ee20dd60e01b81523060048201526001600160a01b0385811660248301526044820185905291909116906337ee20dd9060640160206040518083038186803b15801561181557600080fd5b505afa158015611829573d6000803e3d6000fd5b505050506040513d601f19601f8201168201806040525081019061184d9190614c33565b6118a45760405162461bcd60e51b815260206004820152602260248201527f4c69717569646974792050726f7669646572206e6f742077686974656c697374604482015261195960f21b6064820152608401610bb9565b6118ac612ffa565b6118b683836136db565b6118be613635565b610ced83611dfc565b60008051602061519e8339815191526000805160206151578339815191527f00000000000000000000000000000000000000000000000000000000000000006001600160a01b03166379502c556040518163ffffffff1660e01b815260040160206040518083038186803b15801561193e57600080fd5b505afa158015611952573d6000803e3d6000fd5b505050506040513d601f19601f820116820180604052508101906119769190614c50565b6001600160a01b031663c5b8f5cf8383336040518463ffffffff1660e01b81526004016119a593929190614db5565b60006040518083038186803b1580156119bd57600080fd5b505afa1580156119d1573d6000803e3d6000fd5b5050505060006119ee60008051602061519e8339815191526137cc565b159050801580611a115750611a1160d554856a52b7d2dcc80cd2e40000006138df565b611a835760405162461bcd60e51b815260206004820152603a60248201527f547765616b2065786365656465643a206c69717569646974795265717569726560448201527f6d656e7420747765616b73206f6e6c7920757020746f203130250000000000006064820152608401610bb9565b60d5849055611a946010858361396a565b50611a9d6139c3565b505050565b306001600160a01b037f0000000000000000000000000000000000000000000000000000000000000000161415611aeb5760405162461bcd60e51b8152600401610bb990614e07565b7f00000000000000000000000000000000000000000000000000000000000000006001600160a01b0316611b1d61330d565b6001600160a01b031614611b435760405162461bcd60e51b8152600401610bb990614e53565b611b4c8261333b565b6113c282826001613457565b600060d75460001415611b6b5750600090565b610b6c610a74611b79613b5e565b610a6e60d754612b3d565b60008051602061519e8339815191526000805160206151578339815191527f00000000000000000000000000000000000000000000000000000000000000006001600160a01b03166379502c556040518163ffffffff1660e01b815260040160206040518083038186803b158015611bfb57600080fd5b505afa158015611c0f573d6000803e3d6000fd5b505050506040513d601f19601f82011682018060405250810190611c339190614c50565b6001600160a01b031663c5b8f5cf8383336040518463ffffffff1660e01b8152600401611c6293929190614db5565b60006040518083038186803b158015611c7a57600080fd5b505afa158015611c8e573d6000803e3d6000fd5b505050506000611cab60008051602061519e8339815191526137cc565b159050801580611cce5750611cce60d654856af8277896582678ac0000006138df565b611d405760405162461bcd60e51b815260206004820152603860248201527f547765616b2065786365656465643a206d61785574696c697a6174696f6e526160448201527f746520747765616b73206f6e6c7920757020746f2033302500000000000000006064820152608401610bb9565b60d6849055611a946011858361396a565b6000611d5b611b58565b611d6361230f565b60d254611d709190614fa4565b610b6c9190614fa4565b6000610b6c610be9306001600160a01b03166318160ddd6040518163ffffffff1660e01b815260040160206040518083038186803b158015611dbb57600080fd5b505afa158015611dcf573d6000803e3d6000fd5b505050506040513d601f19601f82011682018060405250810190611df39190614d16565b60d25490613bd5565b6001600160a01b038116600090815260ca602052604081205480611e235750600092915050565b610ced610a74611e31612e42565b610a6e84612b3d565b60008115611e4a57610b4b612e42565b505060d05490565b919050565b337f00000000000000000000000000000000000000000000000000000000000000006001600160a01b031614611e9f5760405162461bcd60e51b8152600401610bb990614f17565b306001600160a01b031663a6ec335f6040518163ffffffff1660e01b815260040160206040518083038186803b158015611ed857600080fd5b505afa158015611eec573d6000803e3d6000fd5b505050506040513d601f19601f82011682018060405250810190611f109190614d16565b811115611f6a5760405162461bcd60e51b815260206004820152602260248201527f4e6f7420656e6f75676874204f4345414e20746f20636f76657220746865205360448201526121a960f11b6064820152608401610bb9565b611f72612ffa565b60d254611f885760d281905560d3829055611fe6565b6000611f9560d254612b3d565b90508160d26000828254611fa99190614fa4565b92505081905550611fe1611fbe60d254612b3d565b611fca6114df85612b3d565b60d354611fd79085612bbb565b610bee9190614fa4565b60d355505b60408051838152602081018390527f333478c2835efe2f226b0d334f71bdf18c977621845f20d21fff75321fc8ab279101611534565b6000805160206151be8339815191527f00000000000000000000000000000000000000000000000000000000000000006001600160a01b03166379502c556040518163ffffffff1660e01b815260040160206040518083038186803b15801561208457600080fd5b505afa158015612098573d6000803e3d6000fd5b505050506040513d601f19601f820116820180604052508101906120bc9190614c50565b6040516312d9a6ad60e01b8152600481018390523360248201526001600160a01b0391909116906312d9a6ad9060440160006040518083038186803b15801561210457600080fd5b505afa158015612118573d6000803e3d6000fd5b50505050611260613cc1565b60008051602061519e8339815191527f00000000000000000000000000000000000000000000000000000000000000006001600160a01b03166379502c556040518163ffffffff1660e01b815260040160206040518083038186803b15801561218c57600080fd5b505afa1580156121a0573d6000803e3d6000fd5b505050506040513d601f19601f820116820180604052508101906121c49190614c50565b6040516312d9a6ad60e01b8152600481018390523360248201526001600160a01b0391909116906312d9a6ad9060440160006040518083038186803b15801561220c57600080fd5b505afa158015612220573d6000803e3d6000fd5b505060da805465ff00000000001916600160281b861515021790555061225c905060198361224f576000612252565b60015b60ff16600061396a565b6113c26139c3565b606060ce8054610ab7906150b6565b33600090815260cb602090815260408083206001600160a01b0386168452909152812054828110156122f65760405162461bcd60e51b815260206004820152602660248201527f45546f6b656e3a2064656372656173656420616c6c6f77616e63652062656c6f60448201526577207a65726f60d01b6064820152608401610bb9565b6123053385610ce28685615026565b5060019392505050565b600080306001600160a01b03166318160ddd6040518163ffffffff1660e01b815260040160206040518083038186803b15801561234b57600080fd5b505afa15801561235f573d6000803e3d6000fd5b505050506040513d601f19601f820116820180604052508101906123839190614d16565b905060d2548111156123a25760d25461239c9082615026565b91505090565b600091505090565b5090565b6000610b473384846130dd565b337f00000000000000000000000000000000000000000000000000000000000000006001600160a01b0316146124035760405162461bcd60e51b8152600401610bb990614f17565b61240b612ffa565b6113c2828261305e565b7f00000000000000000000000000000000000000000000000000000000000000006001600160a01b03166379502c556040518163ffffffff1660e01b815260040160206040518083038186803b15801561246e57600080fd5b505afa158015612482573d6000803e3d6000fd5b505050506040513d601f19601f820116820180604052508101906124a69190614c50565b6001600160a01b03166394217ad16040518163ffffffff1660e01b815260040160206040518083038186803b1580156124de57600080fd5b505afa1580156124f2573d6000803e3d6000fd5b505050506040513d601f19601f820116820180604052508101906125169190614c50565b6001600160a01b0316336001600160a01b0316146124035760405162461bcd60e51b815260206004820152603060248201527f5468652063616c6c6572206d7573742062652074686520506f6c696379506f6f60448201526f3613b99020b9b9b2ba26b0b730b3b2b960811b6064820152608401610bb9565b600054610100900460ff16806125a8575060005460ff16155b6125c45760405162461bcd60e51b8152600401610bb990614ec9565b600054610100900460ff161580156125e6576000805461ffff19166101011790555b6125ee613d19565b6125fc878787878787613d94565b801561260e576000805461ff00191690555b50505050505050565b60008051602061519e8339815191527f00000000000000000000000000000000000000000000000000000000000000006001600160a01b03166379502c556040518163ffffffff1660e01b815260040160206040518083038186803b15801561267f57600080fd5b505afa158015612693573d6000803e3d6000fd5b505050506040513d601f19601f820116820180604052508101906126b79190614c50565b6040516312d9a6ad60e01b8152600481018390523360248201526001600160a01b0391909116906312d9a6ad9060440160006040518083038186803b1580156126ff57600080fd5b505afa158015612713573d6000803e3d6000fd5b505050506001600160a01b038316600081815260db60205260409020805460ff19168415151790558261274757600160ff1b175b611a94601a82600061396a565b60008051602061519e8339815191526000805160206151578339815191527f00000000000000000000000000000000000000000000000000000000000000006001600160a01b03166379502c556040518163ffffffff1660e01b815260040160206040518083038186803b1580156127cb57600080fd5b505afa1580156127df573d6000803e3d6000fd5b505050506040513d601f19601f820116820180604052508101906128039190614c50565b6001600160a01b031663c5b8f5cf8383336040518463ffffffff1660e01b815260040161283293929190614db5565b60006040518083038186803b15801561284a57600080fd5b505afa15801561285e573d6000803e3d6000fd5b50505050600061287b60008051602061519e8339815191526137cc565b15905080158061289e575061289e60d854856af8277896582678ac0000006138df565b6129105760405162461bcd60e51b815260206004820152603a60248201527f547765616b2065786365656465643a20706f6f6c4c6f616e496e74657265737460448201527f5261746520747765616b73206f6e6c7920757020746f203330250000000000006064820152608401610bb9565b612918612eb9565b60d8849055611a946012858361396a565b60007f00000000000000000000000000000000000000000000000000000000000000006001600160a01b031663e5a6b10f6040518163ffffffff1660e01b815260040160206040518083038186803b15801561298457600080fd5b505afa158015612998573d6000803e3d6000fd5b505050506040513d601f19601f82011682018060405250810190610b6c9190614c50565b600080306001600160a01b03166318160ddd6040518163ffffffff1660e01b815260040160206040518083038186803b1580156129f857600080fd5b505afa158015612a0c573d6000803e3d6000fd5b505050506040513d601f19601f82011682018060405250810190612a309190614d16565b905060d2548111156123a25761239c612a4a60d654612c92565b60d254612a579084615026565b90613eb8565b6000337f00000000000000000000000000000000000000000000000000000000000000006001600160a01b031614612aa75760405162461bcd60e51b8152600401610bb990614f17565b60975460ff1615612aca5760405162461bcd60e51b8152600401610bb990614e9f565b612ad2612ffa565b6000612add84611dfc565b905080612aee576000915050610b4b565b80831115612afa578092505b6000612b04610a35565b905080841115612b12578093505b83612b2257600092505050610b4b565b612b2c8585613f6b565b612b34613635565b50919392505050565b600080612b4e633b9aca0084615007565b905082612b5f633b9aca0083614fe5565b14610b4b5760405162461bcd60e51b815260206004820152602660248201527f776164546f5261643a204d617468204d756c7469706c69636174696f6e204f766044820152656572666c6f7760d01b6064820152608401610bb9565b6000821580612bc8575081155b15612bd557506000610b4b565b81612bec6002676765c793fa10079d601b1b614fe5565b612bf890600019615026565b612c029190614fe5565b831115612c5d5760405162461bcd60e51b8152602060048201526024808201527f7261794d756c3a204d617468204d756c7469706c69636174696f6e204f766572604482015263666c6f7760e01b6064820152608401610bb9565b676765c793fa10079d601b1b612c74600282614fe5565b612c7e8486615007565b612c889190614fa4565b610ced9190614fe5565b600080612ca46002633b9aca00614fe5565b90506000612cb28483614fa4565b905081811015612d045760405162461bcd60e51b815260206004820181905260248201527f726179546f5761643a204d617468204164646974696f6e204f766572666c6f776044820152606401610bb9565b612d12633b9aca0082614fe5565b949350505050565b6001600160a01b038316612d7e5760405162461bcd60e51b815260206004820152602560248201527f45546f6b656e3a20617070726f76652066726f6d20746865207a65726f206164604482015264647265737360d81b6064820152608401610bb9565b6001600160a01b038216612de05760405162461bcd60e51b815260206004820152602360248201527f45546f6b656e3a20617070726f766520746f20746865207a65726f206164647260448201526265737360e81b6064820152608401610bb9565b6001600160a01b03838116600081815260cb602090815260408083209487168084529482529182902085905590518481527f8c5be1e5ebec7d5bd14f71427d1e84f3dd0314c0f7b2291e5b200ac8c7c3b92591015b60405180910390a3505050565b60d15460009064ffffffffff9081164290911611612e61575060d05490565b60d154600090612e789064ffffffffff1642615026565b905061239c676765c793fa10079d601b1b6301e133808360d454612e9c9190615007565b612ea69190614fe5565b612eb09190614fa4565b60d05490612bbb565b60da544264ffffffffff90811691161415612ed057565b612ed8613b5e565b60d95560da805464ffffffffff19164264ffffffffff16179055565b600081612f435760405162461bcd60e51b815260206004820152601860248201527f7261794469763a204469766973696f6e206279207a65726f00000000000000006044820152606401610bb9565b6000612f50600284614fe5565b9050676765c793fa10079d601b1b612f6a82600019615026565b612f749190614fe5565b841115612fcf5760405162461bcd60e51b8152602060048201526024808201527f7261794469763a204d617468204d756c7469706c69636174696f6e204f766572604482015263666c6f7760e01b6064820152608401610bb9565b8281612fe6676765c793fa10079d601b1b87615007565b612ff09190614fa4565b612d129190614fe5565b60d1544264ffffffffff9081169116141561301157565b613019612e42565b60d081905567016345785d8a000011156130455760405162461bcd60e51b8152600401610bb990614f58565b60d1805464ffffffffff19164264ffffffffff16179055565b60008161307d578261306e610b51565b6130789190615026565b613090565b82613086610b51565b6130909190614fa4565b90506130a96130a060cc54612b3d565b610bee83612b3d565b60d081905567016345785d8a000011156130d55760405162461bcd60e51b8152600401610bb990614f58565b611a9d613635565b6001600160a01b0383166131425760405162461bcd60e51b815260206004820152602660248201527f45546f6b656e3a207472616e736665722066726f6d20746865207a65726f206160448201526564647265737360d01b6064820152608401610bb9565b6001600160a01b0382166131a45760405162461bcd60e51b8152602060048201526024808201527f45546f6b656e3a207472616e7366657220746f20746865207a65726f206164646044820152637265737360e01b6064820152608401610bb9565b6131af8383836140df565b60006131ba82614419565b6001600160a01b038516600090815260ca6020526040902054909150818110156132365760405162461bcd60e51b815260206004820152602760248201527f45546f6b656e3a207472616e7366657220616d6f756e7420657863656564732060448201526662616c616e636560c81b6064820152608401610bb9565b6132408282615026565b6001600160a01b03808716600090815260ca60205260408082209390935590861681529081208054849290613276908490614fa4565b92505081905550836001600160a01b0316856001600160a01b03167fddf252ad1be2c89b69c2b068fc378daa952ba7f163c4a11628f55a4df523b3ef856040516132c291815260200190565b60405180910390a35050505050565b6000806132dc610b51565b905060006132f9610a74610b6167016345785d8a0000600a615007565b905080821115610a9f57610a988183615026565b7f360894a13ba1a3210667c828492db98dca3e2076cc3735a920a3ca505d382bbc546001600160a01b031690565b6000805160206151be8339815191527fbf372ca3ebecfe59ac256f17697941bbe63302aced610e8b0e3646f743c7beb27f00000000000000000000000000000000000000000000000000000000000000006001600160a01b03166379502c556040518163ffffffff1660e01b815260040160206040518083038186803b1580156133c457600080fd5b505afa1580156133d8573d6000803e3d6000fd5b505050506040513d601f19601f820116820180604052508101906133fc9190614c50565b6001600160a01b031663c5b8f5cf8383336040518463ffffffff1660e01b815260040161342b93929190614db5565b60006040518083038186803b15801561344357600080fd5b505afa15801561260e573d6000803e3d6000fd5b600061346161330d565b905061346c84614432565b6000835111806134795750815b1561348a5761348884846144d7565b505b7f4910fdfa16fed3260ed0e7147f7cc6da11a60208b5b9406d12a635614ffd9143805460ff1661359b57805460ff191660011781556040516001600160a01b038316602482015261350990869060440160408051601f198184030181529190526020810180516001600160e01b0316631b2ce7f360e11b1790526144d7565b50805460ff1916815561351a61330d565b6001600160a01b0316826001600160a01b0316146135925760405162461bcd60e51b815260206004820152602f60248201527f45524331393637557067726164653a207570677261646520627265616b73206660448201526e75727468657220757067726164657360881b6064820152608401610bb9565b61359b856145c2565b5050505050565b60975460ff166135eb5760405162461bcd60e51b815260206004820152601460248201527314185d5cd8589b194e881b9bdd081c185d5cd95960621b6044820152606401610bb9565b6097805460ff191690557f5db9ee0a495bf2e6ff9c91a7834c1ba4fdd244a5e8aa4e537bd38aeae4b073aa335b6040516001600160a01b03909116815260200160405180910390a1565b60006136ab306001600160a01b03166318160ddd6040518163ffffffff1660e01b815260040160206040518083038186803b15801561367357600080fd5b505afa158015613687573d6000803e3d6000fd5b505050506040513d601f19601f82011682018060405250810190610be99190614d16565b9050806136ba57600060d45550565b6136d581610bee6136cc60d254612b3d565b60d35490612bbb565b60d45550565b6001600160a01b0382166137315760405162461bcd60e51b815260206004820181905260248201527f45546f6b656e3a206d696e7420746f20746865207a65726f20616464726573736044820152606401610bb9565b61373d600083836140df565b600061374882614419565b90508060cc600082825461375c9190614fa4565b90915550506001600160a01b038316600090815260ca602052604081208054839290613789908490614fa4565b90915550506040518281526001600160a01b038416906000907fddf252ad1be2c89b69c2b068fc378daa952ba7f163c4a11628f55a4df523b3ef90602001612e35565b60007f00000000000000000000000000000000000000000000000000000000000000006001600160a01b03166379502c556040518163ffffffff1660e01b815260040160206040518083038186803b15801561382757600080fd5b505afa15801561383b573d6000803e3d6000fd5b505050506040513d601f19601f8201168201806040525081019061385f9190614c50565b604051632474521560e21b8152600481018490523360248201526001600160a01b0391909116906391d148549060440160206040518083038186803b1580156138a757600080fd5b505afa1580156138bb573d6000803e3d6000fd5b505050506040513d601f19601f82011682018060405250810190610b4b9190614c33565b6000828414156138f157506001610ced565b8361390b5750676765c793fa10079d601b1b811015610ced565b8261391857506000610ced565b8284101561394a5781676765c793fa10079d601b1b6139378587612ef4565b6139419190615026565b11159050610ced565b816139558486612ef4565b61394190676765c793fa10079d601b1b615026565b80156139795761397983614602565b82601b81111561398b5761398b615107565b6040518381527f7bc647fe5043209e2019aa3503b79c1b0dd83eb61c56013d373a7584ff6bfb139060200160405180910390a2505050565b6b0295be96e64066972000000060d554101580156139ef57506b043355b53628a6b59400000060d55411155b613a575760405162461bcd60e51b815260206004820152603360248201527f56616c69646174696f6e3a206c6971756964697479526571756972656d656e74604482015272206d757374206265205b302e382c20312e335d60681b6064820152608401610bb9565b6b019d971e4fe8401e7400000060d65410158015613a825750676765c793fa10079d601b1b60d65411155b613ae65760405162461bcd60e51b815260206004820152602f60248201527f56616c69646174696f6e3a206d61785574696c697a6174696f6e52617465206d60448201526e757374206265205b302e352c20315d60881b6064820152608401610bb9565b6b019d971e4fe8401e7400000060d8541115613b5c5760405162461bcd60e51b815260206004820152602f60248201527f56616c69646174696f6e3a20706f6f6c4c6f616e496e7465726573745261746560448201526e206d757374206265203c3d2035302560881b6064820152608401610bb9565b565b60da5460009064ffffffffff9081164290911611613b7d575060d95490565b60da54600090613b949064ffffffffff1642615026565b905061239c676765c793fa10079d601b1b6301e133808360d854613bb89190615007565b613bc29190614fe5565b613bcc9190614fa4565b60d95490612bbb565b600081613c245760405162461bcd60e51b815260206004820152601860248201527f7761644469763a204469766973696f6e206279207a65726f00000000000000006044820152606401610bb9565b6000613c31600284614fe5565b9050670de0b6b3a7640000613c4882600019615026565b613c529190614fe5565b841115613cad5760405162461bcd60e51b8152602060048201526024808201527f7761644469763a204d617468204d756c7469706c69636174696f6e204f766572604482015263666c6f7760e01b6064820152608401610bb9565b8281612fe6670de0b6b3a764000087615007565b60975460ff1615613ce45760405162461bcd60e51b8152600401610bb990614e9f565b6097805460ff191660011790557f62e78cea01bee320cd4e420270b5ea74000d11b0c9f74754ebdbfc544b05a2586136183390565b600054610100900460ff1680613d32575060005460ff16155b613d4e5760405162461bcd60e51b8152600401610bb990614ec9565b600054610100900460ff16158015613d70576000805461ffff19166101011790555b613d7861476b565b613d806147d2565b8015611260576000805461ff001916905550565b600054610100900460ff1680613dad575060005460ff16155b613dc95760405162461bcd60e51b8152600401610bb990614ec9565b600054610100900460ff16158015613deb576000805461ffff19166101011790555b8651613dfe9060cd9060208a0190614951565b508551613e129060ce906020890190614951565b5060cf805464ffffffffff191664ffffffffff8716179055676765c793fa10079d601b1b60d05560d1805464ffffffffff19164264ffffffffff16179055600060d281905560d381905560d481905560d585905560d684905560da8054600160281b65ff00000000001990911617905560d75560d8829055676765c793fa10079d601b1b60d95560da805464ffffffffff19164264ffffffffff161790556125fc6139c3565b6000821580613ec5575081155b15613ed257506000610b4b565b81613ee66002670de0b6b3a7640000614fe5565b613ef290600019615026565b613efc9190614fe5565b831115613f575760405162461bcd60e51b8152602060048201526024808201527f7761644d756c3a204d617468204d756c7469706c69636174696f6e204f766572604482015263666c6f7760e01b6064820152608401610bb9565b670de0b6b3a7640000612c74600282614fe5565b6001600160a01b038216613fcc5760405162461bcd60e51b815260206004820152602260248201527f45546f6b656e3a206275726e2066726f6d20746865207a65726f206164647265604482015261737360f01b6064820152608401610bb9565b613fd8826000836140df565b6000613fe382614419565b6001600160a01b038416600090815260ca60205260409020549091508181101561405b5760405162461bcd60e51b815260206004820152602360248201527f45546f6b656e3a206275726e20616d6f756e7420657863656564732062616c616044820152626e636560e81b6064820152608401610bb9565b6140658282615026565b6001600160a01b038516600090815260ca602052604081209190915560cc8054849290614093908490615026565b90915550506040518381526000906001600160a01b038616907fddf252ad1be2c89b69c2b068fc378daa952ba7f163c4a11628f55a4df523b3ef9060200160405180910390a350505050565b6001600160a01b03831615806140fc57506001600160a01b038216155b80614210575060007f00000000000000000000000000000000000000000000000000000000000000006001600160a01b03166379502c556040518163ffffffff1660e01b815260040160206040518083038186803b15801561415d57600080fd5b505afa158015614171573d6000803e3d6000fd5b505050506040513d601f19601f820116820180604052508101906141959190614c50565b6001600160a01b03166363b12da86040518163ffffffff1660e01b815260040160206040518083038186803b1580156141cd57600080fd5b505afa1580156141e1573d6000803e3d6000fd5b505050506040513d601f19601f820116820180604052508101906142059190614c50565b6001600160a01b0316145b806143a757507f00000000000000000000000000000000000000000000000000000000000000006001600160a01b03166379502c556040518163ffffffff1660e01b815260040160206040518083038186803b15801561426f57600080fd5b505afa158015614283573d6000803e3d6000fd5b505050506040513d601f19601f820116820180604052508101906142a79190614c50565b6001600160a01b03166363b12da86040518163ffffffff1660e01b815260040160206040518083038186803b1580156142df57600080fd5b505afa1580156142f3573d6000803e3d6000fd5b505050506040513d601f19601f820116820180604052508101906143179190614c50565b604051635fcdca3760e01b81523060048201526001600160a01b0385811660248301528481166044830152606482018490529190911690635fcdca379060840160206040518083038186803b15801561436f57600080fd5b505afa158015614383573d6000803e3d6000fd5b505050506040513d601f19601f820116820180604052508101906143a79190614c33565b611a9d5760405162461bcd60e51b815260206004820152603960248201527f5472616e73666572206e6f7420616c6c6f776564202d204c697175696469747960448201527f2050726f7669646572206e6f742077686974656c6973746564000000000000006064820152608401610bb9565b6000610b4b610a74614429612e42565b610bee85612b3d565b803b6144965760405162461bcd60e51b815260206004820152602d60248201527f455243313936373a206e657720696d706c656d656e746174696f6e206973206e60448201526c1bdd08184818dbdb9d1c9858dd609a1b6064820152608401610bb9565b7f360894a13ba1a3210667c828492db98dca3e2076cc3735a920a3ca505d382bbc80546001600160a01b0319166001600160a01b0392909216919091179055565b6060823b6145365760405162461bcd60e51b815260206004820152602660248201527f416464726573733a2064656c65676174652063616c6c20746f206e6f6e2d636f6044820152651b9d1c9858dd60d21b6064820152608401610bb9565b600080846001600160a01b0316846040516145519190614d99565b600060405180830381855af49150503d806000811461458c576040519150601f19603f3d011682016040523d82523d6000602084013e614591565b606091505b50915091506145b9828260405180606001604052806027815260200161517760279139614839565b95945050505050565b6145cb81614432565b6040516001600160a01b038216907fbc7cd75a20ee27fd9adebab32041f755214dbc6bffa90cc0225b39da2e5c2d3b90600090a250565b6000600182601b81111561461857614618615107565b6146229190615063565b60c954600160ff929092169190911b915062015180906146499064ffffffffff164261503d565b64ffffffffff16111561468b5760c9805466ffffffffffffff8316600160281b026bffffffffffffffffffffffff1990911664ffffffffff4216171790555050565b60c954600160281b9004811666ffffffffffffff166146ed5760c9805464ffffffffff421664ffffffffff1966ffffffffffffff808616600160281b808604929092161702166bffffffffffffffffffffffff19909216919091171790555050565b60405162461bcd60e51b815260206004820152604760248201527f596f7520616c726561647920747765616b6564207468697320706172616d657460448201527f657220726563656e746c792e2057616974206265666f726520747765616b696e606482015266339030b3b0b4b760c91b608482015260a401610bb9565b600054610100900460ff1680614784575060005460ff16155b6147a05760405162461bcd60e51b8152600401610bb990614ec9565b600054610100900460ff161580156147c2576000805461ffff19166101011790555b6147ca614872565b613d80614872565b600054610100900460ff16806147eb575060005460ff16155b6148075760405162461bcd60e51b8152600401610bb990614ec9565b600054610100900460ff16158015614829576000805461ffff19166101011790555b614831614872565b613d806148dc565b60608315614848575081610ced565b8251156148585782518084602001fd5b8160405162461bcd60e51b8152600401610bb99190614dd4565b600054610100900460ff168061488b575060005460ff16155b6148a75760405162461bcd60e51b8152600401610bb990614ec9565b600054610100900460ff16158015613d80576000805461ffff19166101011790558015611260576000805461ff001916905550565b600054610100900460ff16806148f5575060005460ff16155b6149115760405162461bcd60e51b8152600401610bb990614ec9565b600054610100900460ff16158015614933576000805461ffff19166101011790555b6097805460ff191690558015611260576000805461ff001916905550565b82805461495d906150b6565b90600052602060002090601f01602090048101928261497f57600085556149c5565b82601f1061499857805160ff19168380011785556149c5565b828001600101855582156149c5579182015b828111156149c55782518255916020019190600101906149aa565b506123aa9291505b808211156123aa57600081556001016149cd565b600067ffffffffffffffff808411156149fc576149fc61511d565b604051601f8501601f19908116603f01168101908282118183101715614a2457614a2461511d565b81604052809350858152868686011115614a3d57600080fd5b858560208301376000602087830101525050509392505050565b600082601f830112614a6857600080fd5b610ced838335602085016149e1565b803564ffffffffff81168114611e5257600080fd5b600060208284031215614a9e57600080fd5b8135610ced81615133565b60008060408385031215614abc57600080fd5b8235614ac781615133565b91506020830135614ad781615133565b809150509250929050565b600080600060608486031215614af757600080fd5b8335614b0281615133565b92506020840135614b1281615133565b929592945050506040919091013590565b60008060408385031215614b3657600080fd5b8235614b4181615133565b91506020830135614ad781615148565b60008060408385031215614b6457600080fd5b8235614b6f81615133565b9150602083013567ffffffffffffffff811115614b8b57600080fd5b8301601f81018513614b9c57600080fd5b614bab858235602084016149e1565b9150509250929050565b60008060408385031215614bc857600080fd5b8235614bd381615133565b946020939093013593505050565b60008060408385031215614bf457600080fd5b8235614bff81615133565b9150614c0d60208401614a77565b90509250929050565b600060208284031215614c2857600080fd5b8135610ced81615148565b600060208284031215614c4557600080fd5b8151610ced81615148565b600060208284031215614c6257600080fd5b8151610ced81615133565b60008060008060008060c08789031215614c8657600080fd5b863567ffffffffffffffff80821115614c9e57600080fd5b614caa8a838b01614a57565b97506020890135915080821115614cc057600080fd5b50614ccd89828a01614a57565b955050614cdc60408801614a77565b9350606087013592506080870135915060a087013590509295509295509295565b600060208284031215614d0f57600080fd5b5035919050565b600060208284031215614d2857600080fd5b5051919050565b60008060408385031215614d4257600080fd5b823591506020830135614ad781615148565b60008060408385031215614d6757600080fd5b50508035926020909101359150565b600060208284031215614d8857600080fd5b815160ff81168114610ced57600080fd5b60008251614dab818460208701615086565b9190910192915050565b92835260208301919091526001600160a01b0316604082015260600190565b6020815260008251806020840152614df3816040850160208701615086565b601f01601f19169190910160400192915050565b6020808252602c908201527f46756e6374696f6e206d7573742062652063616c6c6564207468726f7567682060408201526b19195b1959d85d1958d85b1b60a21b606082015260800190565b6020808252602c908201527f46756e6374696f6e206d7573742062652063616c6c6564207468726f7567682060408201526b6163746976652070726f787960a01b606082015260800190565b60208082526010908201526f14185d5cd8589b194e881c185d5cd95960821b604082015260600190565b6020808252602e908201527f496e697469616c697a61626c653a20636f6e747261637420697320616c72656160408201526d191e481a5b9a5d1a585b1a5e995960921b606082015260800190565b60208082526021908201527f5468652063616c6c6572206d7573742062652074686520506f6c696379506f6f6040820152601b60fa1b606082015260800190565b6020808252602c908201527f5363616c6520746f6f20736d616c6c2c2063616e206c65616420746f20726f7560408201526b6e64696e67206572726f727360a01b606082015260800190565b60008219821115614fb757614fb76150f1565b500190565b600064ffffffffff808316818516808303821115614fdc57614fdc6150f1565b01949350505050565b60008261500257634e487b7160e01b600052601260045260246000fd5b500490565b6000816000190483118215151615615021576150216150f1565b500290565b600082821015615038576150386150f1565b500390565b600064ffffffffff8381169083168181101561505b5761505b6150f1565b039392505050565b600060ff821660ff84168082101561507d5761507d6150f1565b90039392505050565b60005b838110156150a1578181015183820152602001615089565b838111156150b0576000848401525b50505050565b600181811c908216806150ca57607f821691505b602082108114156150eb57634e487b7160e01b600052602260045260246000fd5b50919050565b634e487b7160e01b600052601160045260246000fd5b634e487b7160e01b600052602160045260246000fd5b634e487b7160e01b600052604160045260246000fd5b6001600160a01b038116811461126057600080fd5b801515811461126057600080fdfe5ec196419322369c6bac572d883f4d990ae5ec82f7d93cdf89b85dbb05b63c27416464726573733a206c6f772d6c6576656c2064656c65676174652063616c6c206661696c6564a82e22387fca439f316d78ca566f383218ab8ae1b3e830178c9c82cbd16749c055435dd261a4b9b3364963f7738a7a662ad9c84396d64be3365284bb7f0a5041a264697066735822122076662447badfbaf2d12e06edca1e5107cea2085087df467957fe3e495499c6c464736f6c63430008060033",
  "linkReferences": {},
  "deployedLinkReferences": {}
}