{
  "_format": "hh-sol-artifact-1",
  "contractName": "FlightDelayRiskModule",
  "sourceName": "contracts/FlightDelayRiskModule.sol",
  "abi": [
    {
      "inputs": [
        {
          "internalType": "contract IPolicyPool",
          "name": "policyPool_",
          "type": "address"
        }
      ],
      "stateMutability": "nonpayable",
      "type": "constructor"
    },
    {
      "anonymous": false,
      "inputs": [
        {
          "indexed": false,
          "internalType": "address",
          "name": "previousAdmin",
          "type": "address"
        },
        {
          "indexed": false,
          "internalType": "address",
          "name": "newAdmin",
          "type": "address"
        }
      ],
      "name": "AdminChanged",
      "type": "event"
    },
    {
      "anonymous": false,
      "inputs": [
        {
          "indexed": true,
          "internalType": "address",
          "name": "beacon",
          "type": "address"
        }
      ],
      "name": "BeaconUpgraded",
      "type": "event"
    },
    {
      "anonymous": false,
      "inputs": [
        {
          "indexed": true,
          "internalType": "bytes32",
          "name": "id",
          "type": "bytes32"
        }
      ],
      "name": "ChainlinkCancelled",
      "type": "event"
    },
    {
      "anonymous": false,
      "inputs": [
        {
          "indexed": true,
          "internalType": "bytes32",
          "name": "id",
          "type": "bytes32"
        }
      ],
      "name": "ChainlinkFulfilled",
      "type": "event"
    },
    {
      "anonymous": false,
      "inputs": [
        {
          "indexed": true,
          "internalType": "bytes32",
          "name": "id",
          "type": "bytes32"
        }
      ],
      "name": "ChainlinkRequested",
      "type": "event"
    },
    {
      "anonymous": false,
      "inputs": [
        {
          "indexed": true,
          "internalType": "enum IPolicyPoolConfig.GovernanceActions",
          "name": "action",
          "type": "uint8"
        },
        {
          "indexed": false,
          "internalType": "uint256",
          "name": "value",
          "type": "uint256"
        }
      ],
      "name": "GovernanceAction",
      "type": "event"
    },
    {
      "anonymous": false,
      "inputs": [
        {
          "indexed": false,
          "internalType": "address",
          "name": "account",
          "type": "address"
        }
      ],
      "name": "Paused",
      "type": "event"
    },
    {
      "anonymous": false,
      "inputs": [
        {
          "indexed": true,
          "internalType": "bytes32",
          "name": "role",
          "type": "bytes32"
        },
        {
          "indexed": true,
          "internalType": "bytes32",
          "name": "previousAdminRole",
          "type": "bytes32"
        },
        {
          "indexed": true,
          "internalType": "bytes32",
          "name": "newAdminRole",
          "type": "bytes32"
        }
      ],
      "name": "RoleAdminChanged",
      "type": "event"
    },
    {
      "anonymous": false,
      "inputs": [
        {
          "indexed": true,
          "internalType": "bytes32",
          "name": "role",
          "type": "bytes32"
        },
        {
          "indexed": true,
          "internalType": "address",
          "name": "account",
          "type": "address"
        },
        {
          "indexed": true,
          "internalType": "address",
          "name": "sender",
          "type": "address"
        }
      ],
      "name": "RoleGranted",
      "type": "event"
    },
    {
      "anonymous": false,
      "inputs": [
        {
          "indexed": true,
          "internalType": "bytes32",
          "name": "role",
          "type": "bytes32"
        },
        {
          "indexed": true,
          "internalType": "address",
          "name": "account",
          "type": "address"
        },
        {
          "indexed": true,
          "internalType": "address",
          "name": "sender",
          "type": "address"
        }
      ],
      "name": "RoleRevoked",
      "type": "event"
    },
    {
      "anonymous": false,
      "inputs": [
        {
          "indexed": false,
          "internalType": "address",
          "name": "account",
          "type": "address"
        }
      ],
      "name": "Unpaused",
      "type": "event"
    },
    {
      "anonymous": false,
      "inputs": [
        {
          "indexed": true,
          "internalType": "address",
          "name": "implementation",
          "type": "address"
        }
      ],
      "name": "Upgraded",
      "type": "event"
    },
    {
      "inputs": [],
      "name": "DEFAULT_ADMIN_ROLE",
      "outputs": [
        {
          "internalType": "bytes32",
          "name": "",
          "type": "bytes32"
        }
      ],
      "stateMutability": "view",
      "type": "function"
    },
    {
      "inputs": [],
      "name": "DELAY_EXPIRATION_TIMES",
      "outputs": [
        {
          "internalType": "uint40",
          "name": "",
          "type": "uint40"
        }
      ],
      "stateMutability": "view",
      "type": "function"
    },
    {
      "inputs": [],
      "name": "GUARDIAN_ROLE",
      "outputs": [
        {
          "internalType": "bytes32",
          "name": "",
          "type": "bytes32"
        }
      ],
      "stateMutability": "view",
      "type": "function"
    },
    {
      "inputs": [],
      "name": "LEVEL1_ROLE",
      "outputs": [
        {
          "internalType": "bytes32",
          "name": "",
          "type": "bytes32"
        }
      ],
      "stateMutability": "view",
      "type": "function"
    },
    {
      "inputs": [],
      "name": "LEVEL2_ROLE",
      "outputs": [
        {
          "internalType": "bytes32",
          "name": "",
          "type": "bytes32"
        }
      ],
      "stateMutability": "view",
      "type": "function"
    },
    {
      "inputs": [],
      "name": "LEVEL3_ROLE",
      "outputs": [
        {
          "internalType": "bytes32",
          "name": "",
          "type": "bytes32"
        }
      ],
      "stateMutability": "view",
      "type": "function"
    },
    {
      "inputs": [],
      "name": "ORACLE_ADMIN_ROLE",
      "outputs": [
        {
          "internalType": "bytes32",
          "name": "",
          "type": "bytes32"
        }
      ],
      "stateMutability": "view",
      "type": "function"
    },
    {
      "inputs": [],
      "name": "PRICER_ROLE",
      "outputs": [
        {
          "internalType": "bytes32",
          "name": "",
          "type": "bytes32"
        }
      ],
      "stateMutability": "view",
      "type": "function"
    },
    {
      "inputs": [],
      "name": "RM_PROVIDER_ROLE",
      "outputs": [
        {
          "internalType": "bytes32",
          "name": "",
          "type": "bytes32"
        }
      ],
      "stateMutability": "view",
      "type": "function"
    },
    {
      "inputs": [],
      "name": "TWEAK_EXPIRATION",
      "outputs": [
        {
          "internalType": "uint40",
          "name": "",
          "type": "uint40"
        }
      ],
      "stateMutability": "view",
      "type": "function"
    },
    {
      "inputs": [],
      "name": "currency",
      "outputs": [
        {
          "internalType": "contract IERC20Metadata",
          "name": "",
          "type": "address"
        }
      ],
      "stateMutability": "view",
      "type": "function"
    },
    {
      "inputs": [],
      "name": "ensuroFee",
      "outputs": [
        {
          "internalType": "uint256",
          "name": "",
          "type": "uint256"
        }
      ],
      "stateMutability": "view",
      "type": "function"
    },
    {
      "inputs": [
        {
          "internalType": "bytes32",
          "name": "queryId",
          "type": "bytes32"
        },
        {
          "internalType": "int256",
          "name": "actualArrivalDate",
          "type": "int256"
        }
      ],
      "name": "fulfill",
      "outputs": [],
      "stateMutability": "nonpayable",
      "type": "function"
    },
    {
      "inputs": [
        {
          "internalType": "uint256",
          "name": "payout",
          "type": "uint256"
        },
        {
          "internalType": "uint256",
          "name": "lossProb",
          "type": "uint256"
        },
        {
          "internalType": "uint40",
          "name": "expiration",
          "type": "uint40"
        }
      ],
      "name": "getMinimumPremium",
      "outputs": [
        {
          "internalType": "uint256",
          "name": "",
          "type": "uint256"
        }
      ],
      "stateMutability": "view",
      "type": "function"
    },
    {
      "inputs": [
        {
          "internalType": "bytes32",
          "name": "role",
          "type": "bytes32"
        }
      ],
      "name": "getRoleAdmin",
      "outputs": [
        {
          "internalType": "bytes32",
          "name": "",
          "type": "bytes32"
        }
      ],
      "stateMutability": "view",
      "type": "function"
    },
    {
      "inputs": [
        {
          "internalType": "bytes32",
          "name": "role",
          "type": "bytes32"
        },
        {
          "internalType": "address",
          "name": "account",
          "type": "address"
        }
      ],
      "name": "grantRole",
      "outputs": [],
      "stateMutability": "nonpayable",
      "type": "function"
    },
    {
      "inputs": [
        {
          "internalType": "bytes32",
          "name": "role",
          "type": "bytes32"
        },
        {
          "internalType": "address",
          "name": "account",
          "type": "address"
        }
      ],
      "name": "hasRole",
      "outputs": [
        {
          "internalType": "bool",
          "name": "",
          "type": "bool"
        }
      ],
      "stateMutability": "view",
      "type": "function"
    },
    {
      "inputs": [
        {
          "internalType": "string",
          "name": "name_",
          "type": "string"
        },
        {
          "internalType": "uint256",
          "name": "scrPercentage_",
          "type": "uint256"
        },
        {
          "internalType": "uint256",
          "name": "ensuroFee_",
          "type": "uint256"
        },
        {
          "internalType": "uint256",
          "name": "scrInterestRate_",
          "type": "uint256"
        },
        {
          "internalType": "uint256",
          "name": "maxScrPerPolicy_",
          "type": "uint256"
        },
        {
          "internalType": "uint256",
          "name": "scrLimit_",
          "type": "uint256"
        },
        {
          "internalType": "address",
          "name": "wallet_",
          "type": "address"
        },
        {
          "internalType": "address",
          "name": "linkToken_",
          "type": "address"
        },
        {
          "components": [
            {
              "internalType": "address",
              "name": "oracle",
              "type": "address"
            },
            {
              "internalType": "uint96",
              "name": "delayTime",
              "type": "uint96"
            },
            {
              "internalType": "uint256",
              "name": "fee",
              "type": "uint256"
            },
            {
              "internalType": "bytes16",
              "name": "dataJobId",
              "type": "bytes16"
            },
            {
              "internalType": "bytes16",
              "name": "sleepJobId",
              "type": "bytes16"
            }
          ],
          "internalType": "struct FlightDelayRiskModule.OracleParams",
          "name": "oracleParams_",
          "type": "tuple"
        }
      ],
      "name": "initialize",
      "outputs": [],
      "stateMutability": "nonpayable",
      "type": "function"
    },
    {
      "inputs": [],
      "name": "lastTweak",
      "outputs": [
        {
          "internalType": "uint40",
          "name": "",
          "type": "uint40"
        },
        {
          "internalType": "uint56",
          "name": "",
          "type": "uint56"
        }
      ],
      "stateMutability": "view",
      "type": "function"
    },
    {
      "inputs": [],
      "name": "maxScrPerPolicy",
      "outputs": [
        {
          "internalType": "uint256",
          "name": "",
          "type": "uint256"
        }
      ],
      "stateMutability": "view",
      "type": "function"
    },
    {
      "inputs": [],
      "name": "moc",
      "outputs": [
        {
          "internalType": "uint256",
          "name": "",
          "type": "uint256"
        }
      ],
      "stateMutability": "view",
      "type": "function"
    },
    {
      "inputs": [],
      "name": "name",
      "outputs": [
        {
          "internalType": "string",
          "name": "",
          "type": "string"
        }
      ],
      "stateMutability": "view",
      "type": "function"
    },
    {
      "inputs": [
        {
          "internalType": "string",
          "name": "flight",
          "type": "string"
        },
        {
          "internalType": "uint40",
          "name": "departure",
          "type": "uint40"
        },
        {
          "internalType": "uint40",
          "name": "expectedArrival",
          "type": "uint40"
        },
        {
          "internalType": "uint40",
          "name": "tolerance",
          "type": "uint40"
        },
        {
          "internalType": "uint256",
          "name": "payout",
          "type": "uint256"
        },
        {
          "internalType": "uint256",
          "name": "premium",
          "type": "uint256"
        },
        {
          "internalType": "uint256",
          "name": "lossProb",
          "type": "uint256"
        },
        {
          "internalType": "address",
          "name": "customer",
          "type": "address"
        }
      ],
      "name": "newPolicy",
      "outputs": [
        {
          "internalType": "uint256",
          "name": "",
          "type": "uint256"
        }
      ],
      "stateMutability": "nonpayable",
      "type": "function"
    },
    {
      "inputs": [],
      "name": "oracleParams",
      "outputs": [
        {
          "components": [
            {
              "internalType": "address",
              "name": "oracle",
              "type": "address"
            },
            {
              "internalType": "uint96",
              "name": "delayTime",
              "type": "uint96"
            },
            {
              "internalType": "uint256",
              "name": "fee",
              "type": "uint256"
            },
            {
              "internalType": "bytes16",
              "name": "dataJobId",
              "type": "bytes16"
            },
            {
              "internalType": "bytes16",
              "name": "sleepJobId",
              "type": "bytes16"
            }
          ],
          "internalType": "struct FlightDelayRiskModule.OracleParams",
          "name": "",
          "type": "tuple"
        }
      ],
      "stateMutability": "view",
      "type": "function"
    },
    {
      "inputs": [],
      "name": "pause",
      "outputs": [],
      "stateMutability": "nonpayable",
      "type": "function"
    },
    {
      "inputs": [],
      "name": "paused",
      "outputs": [
        {
          "internalType": "bool",
          "name": "",
          "type": "bool"
        }
      ],
      "stateMutability": "view",
      "type": "function"
    },
    {
      "inputs": [],
      "name": "policyPool",
      "outputs": [
        {
          "internalType": "contract IPolicyPool",
          "name": "",
          "type": "address"
        }
      ],
      "stateMutability": "view",
      "type": "function"
    },
    {
      "inputs": [
        {
          "internalType": "bytes32",
          "name": "role",
          "type": "bytes32"
        },
        {
          "internalType": "address",
          "name": "account",
          "type": "address"
        }
      ],
      "name": "renounceRole",
      "outputs": [],
      "stateMutability": "nonpayable",
      "type": "function"
    },
    {
      "inputs": [
        {
          "internalType": "uint256",
          "name": "policyId",
          "type": "uint256"
        }
      ],
      "name": "resolvePolicy",
      "outputs": [
        {
          "internalType": "uint256",
          "name": "",
          "type": "uint256"
        }
      ],
      "stateMutability": "nonpayable",
      "type": "function"
    },
    {
      "inputs": [
        {
          "internalType": "bytes32",
          "name": "role",
          "type": "bytes32"
        },
        {
          "internalType": "address",
          "name": "account",
          "type": "address"
        }
      ],
      "name": "revokeRole",
      "outputs": [],
      "stateMutability": "nonpayable",
      "type": "function"
    },
    {
      "inputs": [],
      "name": "scrInterestRate",
      "outputs": [
        {
          "internalType": "uint256",
          "name": "",
          "type": "uint256"
        }
      ],
      "stateMutability": "view",
      "type": "function"
    },
    {
      "inputs": [],
      "name": "scrLimit",
      "outputs": [
        {
          "internalType": "uint256",
          "name": "",
          "type": "uint256"
        }
      ],
      "stateMutability": "view",
      "type": "function"
    },
    {
      "inputs": [],
      "name": "scrPercentage",
      "outputs": [
        {
          "internalType": "uint256",
          "name": "",
          "type": "uint256"
        }
      ],
      "stateMutability": "view",
      "type": "function"
    },
    {
      "inputs": [
        {
          "internalType": "uint256",
          "name": "newEnsuroFee",
          "type": "uint256"
        }
      ],
      "name": "setEnsuroFee",
      "outputs": [],
      "stateMutability": "nonpayable",
      "type": "function"
    },
    {
      "inputs": [
        {
          "internalType": "uint256",
          "name": "newMaxScrPerPolicy",
          "type": "uint256"
        }
      ],
      "name": "setMaxScrPerPolicy",
      "outputs": [],
      "stateMutability": "nonpayable",
      "type": "function"
    },
    {
      "inputs": [
        {
          "internalType": "uint256",
          "name": "newMoc",
          "type": "uint256"
        }
      ],
      "name": "setMoc",
      "outputs": [],
      "stateMutability": "nonpayable",
      "type": "function"
    },
    {
      "inputs": [
        {
          "components": [
            {
              "internalType": "address",
              "name": "oracle",
              "type": "address"
            },
            {
              "internalType": "uint96",
              "name": "delayTime",
              "type": "uint96"
            },
            {
              "internalType": "uint256",
              "name": "fee",
              "type": "uint256"
            },
            {
              "internalType": "bytes16",
              "name": "dataJobId",
              "type": "bytes16"
            },
            {
              "internalType": "bytes16",
              "name": "sleepJobId",
              "type": "bytes16"
            }
          ],
          "internalType": "struct FlightDelayRiskModule.OracleParams",
          "name": "newParams",
          "type": "tuple"
        }
      ],
      "name": "setOracleParams",
      "outputs": [],
      "stateMutability": "nonpayable",
      "type": "function"
    },
    {
      "inputs": [
        {
          "internalType": "uint256",
          "name": "newScrInterestRate",
          "type": "uint256"
        }
      ],
      "name": "setScrInterestRate",
      "outputs": [],
      "stateMutability": "nonpayable",
      "type": "function"
    },
    {
      "inputs": [
        {
          "internalType": "uint256",
          "name": "newScrLimit",
          "type": "uint256"
        }
      ],
      "name": "setScrLimit",
      "outputs": [],
      "stateMutability": "nonpayable",
      "type": "function"
    },
    {
      "inputs": [
        {
          "internalType": "uint256",
          "name": "newScrPercentage",
          "type": "uint256"
        }
      ],
      "name": "setScrPercentage",
      "outputs": [],
      "stateMutability": "nonpayable",
      "type": "function"
    },
    {
      "inputs": [
        {
          "internalType": "address",
          "name": "wallet_",
          "type": "address"
        }
      ],
      "name": "setWallet",
      "outputs": [],
      "stateMutability": "nonpayable",
      "type": "function"
    },
    {
      "inputs": [
        {
          "internalType": "bytes4",
          "name": "interfaceId",
          "type": "bytes4"
        }
      ],
      "name": "supportsInterface",
      "outputs": [
        {
          "internalType": "bool",
          "name": "",
          "type": "bool"
        }
      ],
      "stateMutability": "view",
      "type": "function"
    },
    {
      "inputs": [],
      "name": "totalScr",
      "outputs": [
        {
          "internalType": "uint256",
          "name": "",
          "type": "uint256"
        }
      ],
      "stateMutability": "view",
      "type": "function"
    },
    {
      "inputs": [],
      "name": "unpause",
      "outputs": [],
      "stateMutability": "nonpayable",
      "type": "function"
    },
    {
      "inputs": [
        {
          "internalType": "address",
          "name": "newImplementation",
          "type": "address"
        }
      ],
      "name": "upgradeTo",
      "outputs": [],
      "stateMutability": "nonpayable",
      "type": "function"
    },
    {
      "inputs": [
        {
          "internalType": "address",
          "name": "newImplementation",
          "type": "address"
        },
        {
          "internalType": "bytes",
          "name": "data",
          "type": "bytes"
        }
      ],
      "name": "upgradeToAndCall",
      "outputs": [],
      "stateMutability": "payable",
      "type": "function"
    },
    {
      "inputs": [],
      "name": "wallet",
      "outputs": [
        {
          "internalType": "address",
          "name": "",
          "type": "address"
        }
      ],
      "stateMutability": "view",
      "type": "function"
    }
  ],
  "bytecode": "0x60c06040523060601b6080523480156200001857600080fd5b5060405162005cf638038062005cf68339810160408190526200003b9162000051565b60601b6001600160601b03191660a05262000083565b6000602082840312156200006457600080fd5b81516001600160a01b03811681146200007c57600080fd5b9392505050565b60805160601c60a05160601c615bc262000134600039600081816104bd01528181610a6f01528181610c43015281816110b00152818161126d015281816114c80152818161185701528181611caf01528181611eba01528181611f6e0152818161214f01528181612334015281816124db01528181612d80015281816137ab015281816138590152613a4d015260008181610f2c01528181610f6c015281816111b101526111f10152615bc26000f3fe6080604052600436106102885760003560e01c80638003a94f1161015a578063ced2f285116100c1578063deaa59df1161007a578063deaa59df146108ba578063e5a6b10f146108da578063e61735c0146108ef578063f33323a41461090f578063f67b2bad1461092f578063fbb812791461095157600080fd5b8063ced2f2851461072e578063cf0d248314610743578063cf0e55f614610844578063d44499a814610864578063d547741f1461087a578063dab5d88d1461089a57600080fd5b8063a9a24f2711610113578063a9a24f271461066e578063b9ea870a146106a2578063bda71d04146106c2578063bf8e934d146106e2578063c999c4e8146106f8578063ca996de31461071857600080fd5b80638003a94f146105ba5780638456cb59146105ee5780638bac3a241461060357806391d14854146106235780639d90724d14610643578063a217fddf1461065957600080fd5b80633f4ba83a116101fe578063521eb273116101b7578063521eb2731461050857806353428253146105275780635b494dd51461053d5780635c975abb1461055f5780635d505fe7146105775780637ed5acfa1461058d57600080fd5b80633f4ba83a1461042657806341ea6a0f1461043b578063468a8c9f146104515780634a47a3e01461048c5780634d15eb03146104ae5780634f1ef286146104f557600080fd5b806324ea54f41161025057806324ea54f4146103645780632f2ff15d1461038657806330a01b8b146103a657806336568abe146103c65780633659cfe6146103e65780633b24223c1461040657600080fd5b806301ffc9a71461028d57806306fdde03146102c2578063089a8504146102e457806322875d6314610306578063248a9ca314610326575b600080fd5b34801561029957600080fd5b506102ad6102a8366004615228565b610985565b60405190151581526020015b60405180910390f35b3480156102ce57600080fd5b506102d76109bc565b6040516102b9919061558a565b3480156102f057600080fd5b506103046102ff3660046151bd565b610a4f565b005b34801561031257600080fd5b506103046103213660046151bd565b610c23565b34801561033257600080fd5b506103566103413660046151bd565b600090815260c9602052604090206001015490565b6040519081526020016102b9565b34801561037057600080fd5b50610356600080516020615b6d83398151915281565b34801561039257600080fd5b506103046103a13660046151d6565b610de7565b3480156103b257600080fd5b506103046103c136600461526f565b610e0d565b3480156103d257600080fd5b506103046103e13660046151d6565b610ea3565b3480156103f257600080fd5b5061030461040136600461511a565b610f21565b34801561041257600080fd5b506103566104213660046151bd565b610fea565b34801561043257600080fd5b50610304611090565b34801561044757600080fd5b5061013454610356565b34801561045d57600080fd5b5061012d546040805164ffffffffff83168152600160281b90920466ffffffffffffff166020830152016102b9565b34801561049857600080fd5b50610356600080516020615b4d83398151915281565b3480156104ba57600080fd5b507f00000000000000000000000000000000000000000000000000000000000000005b6040516001600160a01b0390911681526020016102b9565b610304610503366004615137565b6111a6565b34801561051457600080fd5b50610136546001600160a01b03166104dd565b34801561053357600080fd5b5061013054610356565b34801561054957600080fd5b50610356600080516020615b0683398151915281565b34801561056b57600080fd5b5060fb5460ff166102ad565b34801561058357600080fd5b5061013354610356565b34801561059957600080fd5b506105a46201518081565b60405164ffffffffff90911681526020016102b9565b3480156105c657600080fd5b506103567fc307c44629779eb8fc0b85f224c3d22f5876a6c84de0ee42d481eb7814f0d3a881565b3480156105fa57600080fd5b5061030461125c565b34801561060f57600080fd5b5061035661061e3660046153ea565b611364565b34801561062f57600080fd5b506102ad61063e3660046151d6565b61147d565b34801561064f57600080fd5b5061013254610356565b34801561066557600080fd5b50610356600081565b34801561067a57600080fd5b506103567f0df0a8869cf58168a14cd7ac426ff1b8c6ff5d5c800c6f44803f3431dcb3bad181565b3480156106ae57600080fd5b506103046106bd3660046151bd565b6114a8565b3480156106ce57600080fd5b506103046106dd366004615206565b611663565b3480156106ee57600080fd5b5061012f54610356565b34801561070457600080fd5b50610356610713366004615314565b6118bc565b34801561072457600080fd5b5061013554610356565b34801561073a57600080fd5b506105a4600581565b34801561074f57600080fd5b506107e56040805160a081018252600080825260208201819052918101829052606081018290526080810191909152506040805160a08101825261013d546001600160a01b03811682526001600160601b03600160a01b90910416602082015261013e549181019190915261013f546001600160801b0319608082811b82166060850152600160801b909204821b169082015290565b6040516102b9919081516001600160a01b031681526020808301516001600160601b031690820152604080830151908201526060808301516001600160801b031990811691830191909152608092830151169181019190915260a00190565b34801561085057600080fd5b5061030461085f3660046153b5565b611bf2565b34801561087057600080fd5b5061013154610356565b34801561088657600080fd5b506103046108953660046151d6565b611c69565b3480156108a657600080fd5b506103046108b53660046151bd565b611c8f565b3480156108c657600080fd5b506103046108d536600461511a565b611e56565b3480156108e657600080fd5b506104dd611eb6565b3480156108fb57600080fd5b5061030461090a3660046151bd565b611f4e565b34801561091b57600080fd5b5061030461092a3660046151bd565b612113565b34801561093b57600080fd5b50610356600080516020615ae683398151915281565b34801561095d57600080fd5b506103567fc6823861ee2bb2198ce6b1fd6faf4c8f44f745bc804aca4a762f67e0d507fd8a81565b60006001600160e01b03198216637965db0b60e01b14806109b657506301ffc9a760e01b6001600160e01b03198316145b92915050565b606061012e80546109cc90615a19565b80601f01602080910402602001604051908101604052809291908181526020018280546109f890615a19565b8015610a455780601f10610a1a57610100808354040283529160200191610a45565b820191906000526020600020905b815481529060010190602001808311610a2857829003601f168201915b5050505050905090565b600080516020615b4d833981519152600080516020615b068339815191527f00000000000000000000000000000000000000000000000000000000000000006001600160a01b03166379502c556040518163ffffffff1660e01b815260040160206040518083038186803b158015610ac657600080fd5b505afa158015610ada573d6000803e3d6000fd5b505050506040513d601f19601f82011682018060405250810190610afe9190615252565b6001600160a01b031663c5b8f5cf8383336040518463ffffffff1660e01b8152600401610b2d9392919061556b565b60006040518083038186803b158015610b4557600080fd5b505afa158015610b59573d6000803e3d6000fd5b505050506000610b76600080516020615b4d8339815191526124d7565b159050801580610b9a5750610b9a61013154856af8277896582678ac0000006125ea565b610c035760405162461bcd60e51b815260206004820152602f60248201527f547765616b2065786365656465643a20656e7375726f46656520747765616b7360448201526e206f6e6c7920757020746f2033302560881b60648201526084015b60405180910390fd5b610131849055610c15600a8583612675565b50610c1e6126ce565b505050565b600080516020615b4d833981519152600080516020615b068339815191527f00000000000000000000000000000000000000000000000000000000000000006001600160a01b03166379502c556040518163ffffffff1660e01b815260040160206040518083038186803b158015610c9a57600080fd5b505afa158015610cae573d6000803e3d6000fd5b505050506040513d601f19601f82011682018060405250810190610cd29190615252565b6001600160a01b031663c5b8f5cf8383336040518463ffffffff1660e01b8152600401610d019392919061556b565b60006040518083038186803b158015610d1957600080fd5b505afa158015610d2d573d6000803e3d6000fd5b505050506000610d4a600080516020615b4d8339815191526124d7565b159050801580610d6b5750610d6b6101335485670429d069189e000061299c565b610dd55760405162461bcd60e51b815260206004820152603560248201527f547765616b2065786365656465643a206d6178536372506572506f6c69637920604482015274747765616b73206f6e6c7920757020746f2033302560581b6064820152608401610bfa565b610133849055610c15600b8583612675565b600082815260c96020526040902060010154610e038133612a0b565b610c1e8383612a6f565b600054610100900460ff1680610e26575060005460ff16155b610e425760405162461bcd60e51b8152600401610bfa90615635565b600054610100900460ff16158015610e64576000805461ffff19166101011790555b610e738a8a8a8a8a8a8a612af5565b610e7b612b87565b610e858383612bf8565b8015610e97576000805461ff00191690555b50505050505050505050565b6001600160a01b0381163314610f135760405162461bcd60e51b815260206004820152602f60248201527f416363657373436f6e74726f6c3a2063616e206f6e6c792072656e6f756e636560448201526e103937b632b9903337b91039b2b63360891b6064820152608401610bfa565b610f1d8282612ccb565b5050565b306001600160a01b037f0000000000000000000000000000000000000000000000000000000000000000161415610f6a5760405162461bcd60e51b8152600401610bfa9061559d565b7f00000000000000000000000000000000000000000000000000000000000000006001600160a01b0316610f9c612d32565b6001600160a01b031614610fc25760405162461bcd60e51b8152600401610bfa906155e9565b610fcb81612d60565b60408051600080825260208201909252610fe791839190612e73565b50565b60007fc6823861ee2bb2198ce6b1fd6faf4c8f44f745bc804aca4a762f67e0d507fd8a6110178133612a0b565b600083815261014160205260409020600b810154600160281b900464ffffffffff166110795760405162461bcd60e51b8152602060048201526011602482015270506f6c696379206e6f7420666f756e642160781b6044820152606401610bfa565b61108584826000612fb7565b839250505b50919050565b600080516020615b6d833981519152600080516020615ae68339815191527f00000000000000000000000000000000000000000000000000000000000000006001600160a01b03166379502c556040518163ffffffff1660e01b815260040160206040518083038186803b15801561110757600080fd5b505afa15801561111b573d6000803e3d6000fd5b505050506040513d601f19601f8201168201806040525081019061113f9190615252565b6001600160a01b031663c5b8f5cf8383336040518463ffffffff1660e01b815260040161116e9392919061556b565b60006040518083038186803b15801561118657600080fd5b505afa15801561119a573d6000803e3d6000fd5b50505050610f1d6131b4565b306001600160a01b037f00000000000000000000000000000000000000000000000000000000000000001614156111ef5760405162461bcd60e51b8152600401610bfa9061559d565b7f00000000000000000000000000000000000000000000000000000000000000006001600160a01b0316611221612d32565b6001600160a01b0316146112475760405162461bcd60e51b8152600401610bfa906155e9565b61125082612d60565b610f1d82826001612e73565b600080516020615b6d8339815191527f00000000000000000000000000000000000000000000000000000000000000006001600160a01b03166379502c556040518163ffffffff1660e01b815260040160206040518083038186803b1580156112c457600080fd5b505afa1580156112d8573d6000803e3d6000fd5b505050506040513d601f19601f820116820180604052508101906112fc9190615252565b6040516312d9a6ad60e01b8152600481018390523360248201526001600160a01b0391909116906312d9a6ad9060440160006040518083038186803b15801561134457600080fd5b505afa158015611358573d6000803e3d6000fd5b50505050610fe7613247565b60008061139561139061138161137a6101305490565b87906132c2565b61138a88613399565b906132c2565b613417565b905060006113b06113a96113906101315490565b839061349f565b9050600081836113cd6113c661139061012f5490565b8a9061349f565b6113d79190615976565b6113e19190615976565b905060006114216113906e0612d847b578e7643c28ac0000000061140c4264ffffffffff8b16615976565b610132545b61141b919061592a565b90613552565b905061142d828261349f565b6114379083615976565b91506000611445838361349f565b905061146e670de27d72f9c740008261145e87896157ea565b61146891906157ea565b9061349f565b955050505050505b9392505050565b600091825260c9602090815260408084206001600160a01b0393909316845291905290205460ff1690565b600080516020615b4d833981519152600080516020615b068339815191527f00000000000000000000000000000000000000000000000000000000000000006001600160a01b03166379502c556040518163ffffffff1660e01b815260040160206040518083038186803b15801561151f57600080fd5b505afa158015611533573d6000803e3d6000fd5b505050506040513d601f19601f820116820180604052508101906115579190615252565b6001600160a01b031663c5b8f5cf8383336040518463ffffffff1660e01b81526004016115869392919061556b565b60006040518083038186803b15801561159e57600080fd5b505afa1580156115b2573d6000803e3d6000fd5b5050505060006115cf600080516020615b4d8339815191526124d7565b1590508015806115f357506115f361013054856a52b7d2dcc80cd2e40000006125ea565b6116515760405162461bcd60e51b815260206004820152602960248201527f547765616b2065786365656465643a206d6f6320747765616b73206f6e6c7920604482015268757020746f2031302560b81b6064820152608401610bfa565b610130849055610c1560088583612675565b600082815261013c602052604090205482906001600160a01b031633146116dd5760405162461bcd60e51b815260206004820152602860248201527f536f75726365206d75737420626520746865206f7261636c65206f6620746865604482015267081c995c5d595cdd60c21b6064820152608401610bfa565b600081815261013c602052604080822080546001600160a01b03191690555182917f7cc135e0cebb02c3480ae5d74d377283180a2601f8f644edf7987b009316c63a91a260008381526101406020526040902054806117735760405162461bcd60e51b815260206004820152601260248201527171756572794964206e6f7420666f756e642160701b6044820152606401610bfa565b6000818152610141602052604090208361180157600b8101546117ad9064ffffffffff600160501b8204811691600160281b900416615802565b64ffffffffff164211156117fa57600b8101546117e19064ffffffffff600160501b8204811691600160281b900416615802565b6117ec906001615802565b64ffffffffff169350611801565b5050505050565b6000808513158061183d5750600b8201546118339064ffffffffff600160501b8204811691600160281b900416615802565b64ffffffffff1685115b604051630336ed0760e11b81529091506001600160a01b037f0000000000000000000000000000000000000000000000000000000000000000169063066dda0e9061188e908590859060040161573e565b600060405180830381600087803b1580156118a857600080fd5b505af1158015610e97573d6000803e3d6000fd5b60007fc6823861ee2bb2198ce6b1fd6faf4c8f44f745bc804aca4a762f67e0d507fd8a6118e98133612a0b565b428864ffffffffff161161194b5760405162461bcd60e51b8152602060048201526024808201527f65787065637465644172726976616c2063616e277420626520696e20746865206044820152631c185cdd60e21b6064820152608401610bfa565b64ffffffffff89161580159061196e57508864ffffffffff168864ffffffffff16115b6119ba5760405162461bcd60e51b815260206004820152601d60248201527f65787065637465644172726976616c203c3d20646570617274757265210000006044820152606401610bfa565b61013d546000906119dd90600590600160a01b90046001600160601b0316615949565b6119e7898b615802565b6119f19190615802565b90506000611a028888888589613658565b9050600061014160008360000151815260200190815260200160002090508181600001600082015181600001556020820151816001015560408201518160020155606082015181600301556080820151816004015560a0820151816005015560c0820151816006015560e0820151816007015561010082015181600801556101208201518160090160006101000a8154816001600160a01b0302191690836001600160a01b031602179055506101408201518160090160146101000a81548164ffffffffff021916908364ffffffffff1602179055506101608201518160090160196101000a81548164ffffffffff021916908364ffffffffff1602179055509050508c81600a019080519060200190611b1d929190614e6c565b508b81600b0160006101000a81548164ffffffffff021916908364ffffffffff1602179055508a81600b0160056101000a81548164ffffffffff021916908364ffffffffff1602179055508981600b01600a6101000a81548164ffffffffff021916908364ffffffffff160217905550600061013d60000160149054906101000a90046001600160601b03166001600160601b03168b8d611bbe9190615802565b64ffffffffff16611bcf91906157ea565b9050611be083600001518383612fb7565b5050519b9a5050505050505050505050565b7fc307c44629779eb8fc0b85f224c3d22f5876a6c84de0ee42d481eb7814f0d3a8611c1d8133612a0b565b50805160208201516001600160601b0316600160a01b026001600160a01b039091161761013d55604081015161013e556060810151608091820151821c600160801b02911c1761013f55565b600082815260c96020526040902060010154611c858133612a0b565b610c1e8383612ccb565b600080516020615b4d833981519152600080516020615b068339815191527f00000000000000000000000000000000000000000000000000000000000000006001600160a01b03166379502c556040518163ffffffff1660e01b815260040160206040518083038186803b158015611d0657600080fd5b505afa158015611d1a573d6000803e3d6000fd5b505050506040513d601f19601f82011682018060405250810190611d3e9190615252565b6001600160a01b031663c5b8f5cf8383336040518463ffffffff1660e01b8152600401611d6d9392919061556b565b60006040518083038186803b158015611d8557600080fd5b505afa158015611d99573d6000803e3d6000fd5b505050506000611db6600080516020615b4d8339815191526124d7565b159050801580611dda5750611dda61013254856af8277896582678ac0000006125ea565b611e445760405162461bcd60e51b815260206004820152603560248201527f547765616b2065786365656465643a20736372496e7465726573745261746520604482015274747765616b73206f6e6c7920757020746f2033302560581b6064820152608401610bfa565b610132849055610c1560098583612675565b7f0df0a8869cf58168a14cd7ac426ff1b8c6ff5d5c800c6f44803f3431dcb3bad1611e818133612a0b565b61013680546001600160a01b0319166001600160a01b038416908117909155611eae90600f906000612675565b610f1d6126ce565b60007f00000000000000000000000000000000000000000000000000000000000000006001600160a01b031663e5a6b10f6040518163ffffffff1660e01b815260040160206040518083038186803b158015611f1157600080fd5b505afa158015611f25573d6000803e3d6000fd5b505050506040513d601f19601f82011682018060405250810190611f499190615252565b905090565b600080516020615b4d833981519152600080516020615b068339815191527f00000000000000000000000000000000000000000000000000000000000000006001600160a01b03166379502c556040518163ffffffff1660e01b815260040160206040518083038186803b158015611fc557600080fd5b505afa158015611fd9573d6000803e3d6000fd5b505050506040513d601f19601f82011682018060405250810190611ffd9190615252565b6001600160a01b031663c5b8f5cf8383336040518463ffffffff1660e01b815260040161202c9392919061556b565b60006040518083038186803b15801561204457600080fd5b505afa158015612058573d6000803e3d6000fd5b505050506000612075600080516020615b4d8339815191526124d7565b159050801580612099575061209961012f54856a52b7d2dcc80cd2e40000006125ea565b6121015760405162461bcd60e51b815260206004820152603360248201527f547765616b2065786365656465643a2073637250657263656e7461676520747760448201527265616b73206f6e6c7920757020746f2031302560681b6064820152608401610bfa565b61012f849055610c1560078583612675565b600080516020615ae6833981519152600080516020615b4d833981519152600080516020615b06833981519152612149836124d7565b61223e577f00000000000000000000000000000000000000000000000000000000000000006001600160a01b03166379502c556040518163ffffffff1660e01b815260040160206040518083038186803b1580156121a657600080fd5b505afa1580156121ba573d6000803e3d6000fd5b505050506040513d601f19601f820116820180604052508101906121de9190615252565b6001600160a01b031663c5b8f5cf8383336040518463ffffffff1660e01b815260040161220d9392919061556b565b60006040518083038186803b15801561222557600080fd5b505afa158015612239573d6000803e3d6000fd5b505050505b6000612257600080516020615b4d8339815191526124d7565b1580156122785750612276600080516020615ae68339815191526124d7565b155b90508015806122985750612298610134548667016345785d8a000061299c565b6122fb5760405162461bcd60e51b815260206004820152602e60248201527f547765616b2065786365656465643a207363724c696d697420747765616b732060448201526d6f6e6c7920757020746f2031302560901b6064820152608401610bfa565b610134548511158061231f575061231f600080516020615ae68339815191526124d7565b806123c55750846123c367016345785d8a00007f00000000000000000000000000000000000000000000000000000000000000006001600160a01b031663b77ddfea6040518163ffffffff1660e01b815260040160206040518083038186803b15801561238b57600080fd5b505afa15801561239f573d6000803e3d6000fd5b505050506040513d601f19601f8201168201806040525081019061146891906153d1565b115b61244c5760405162461bcd60e51b815260206004820152604c60248201527f547765616b2065786365656465643a20496e6372656173652c203e3d3130252060448201527f6f662074686520746f74616c206c69717569646974792c20726571756972657360648201526b204c4556454c315f524f4c4560a01b608482015260a401610bfa565b610135548510156124b65760405162461bcd60e51b815260206004820152602e60248201527f43616e27742073657420534352206c657373207468616e2063757272656e742060448201526d29a1a91030b63637b1b0ba34b7b760911b6064820152608401610bfa565b6101348590556124c8600c8683612675565b506124d16126ce565b50505050565b60007f00000000000000000000000000000000000000000000000000000000000000006001600160a01b03166379502c556040518163ffffffff1660e01b815260040160206040518083038186803b15801561253257600080fd5b505afa158015612546573d6000803e3d6000fd5b505050506040513d601f19601f8201168201806040525081019061256a9190615252565b604051632474521560e21b8152600481018490523360248201526001600160a01b0391909116906391d148549060440160206040518083038186803b1580156125b257600080fd5b505afa1580156125c6573d6000803e3d6000fd5b505050506040513d601f19601f820116820180604052508101906109b6919061519b565b6000828414156125fc57506001611476565b836126165750676765c793fa10079d601b1b811015611476565b8261262357506000611476565b828410156126555781676765c793fa10079d601b1b6126428587613552565b61264c9190615976565b11159050611476565b816126608486613552565b61264c90676765c793fa10079d601b1b615976565b80156126845761268483613ae3565b82601b81111561269657612696615a8e565b6040518381527f7bc647fe5043209e2019aa3503b79c1b0dd83eb61c56013d373a7584ff6bfb139060200160405180910390a2505050565b676765c793fa10079d601b1b61012f54111580156126ef5750600061012f54115b6127495760405162461bcd60e51b815260206004820152602560248201527f56616c69646174696f6e3a2073637250657263656e74616765206d757374206260448201526465203c3d3160d81b6064820152608401610bfa565b61275f676765c793fa10079d601b1b600261592a565b610130541115801561278957506127826002676765c793fa10079d601b1b61582b565b6101305410155b6127d55760405162461bcd60e51b815260206004820181905260248201527f56616c69646174696f6e3a206d6f63206d757374206265205b302e352c20325d6044820152606401610bfa565b676765c793fa10079d601b1b61013154111561283e5760405162461bcd60e51b815260206004820152602260248201527f56616c69646174696f6e3a20656e7375726f466565206d757374206265203c3d604482015261203160f01b6064820152608401610bfa565b676765c793fa10079d601b1b6101325411156128b45760405162461bcd60e51b815260206004820152602f60248201527f56616c69646174696f6e3a20736372496e74657265737452617465206d75737460448201526e206265203c3d20312028313030252960881b6064820152608401610bfa565b610135546101345410156129305760405162461bcd60e51b815260206004820152603760248201527f56616c69646174696f6e3a207363724c696d69742063616e2774206265206c6560448201527f7373207468616e2061637475616c20746f74616c5363720000000000000000006064820152608401610bfa565b610136546001600160a01b031661299a5760405162461bcd60e51b815260206004820152602860248201527f56616c69646174696f6e3a2057616c6c65742063616e2774206265207a65726f604482015267206164647265737360c01b6064820152608401610bfa565b565b6000828414156129ae57506001611476565b836129c55750670de0b6b3a7640000811015611476565b826129d257506000611476565b828410156129ee5781670de0b6b3a76400006126428587613c46565b816129f98486613c46565b61264c90670de0b6b3a7640000615976565b612a15828261147d565b610f1d57612a2d816001600160a01b03166014613d32565b612a38836020613d32565b604051602001612a49929190615467565b60408051601f198184030181529082905262461bcd60e51b8252610bfa9160040161558a565b612a79828261147d565b610f1d57600082815260c9602090815260408083206001600160a01b03851684529091529020805460ff19166001179055612ab13390565b6001600160a01b0316816001600160a01b0316837f2f8788117e7eff1d82e926ec794901d17c78024a50270940304540a733656f0d60405160405180910390a45050565b600054610100900460ff1680612b0e575060005460ff16155b612b2a5760405162461bcd60e51b8152600401610bfa90615635565b600054610100900460ff16158015612b4c576000805461ffff19166101011790555b612b54613ece565b612b5c613f51565b612b6b88888888888888613fb8565b8015612b7d576000805461ff00191690555b5050505050505050565b600054610100900460ff1680612ba0575060005460ff16155b612bbc5760405162461bcd60e51b8152600401610bfa90615635565b600054610100900460ff16158015612bde576000805461ffff19166101011790555b600161013b558015610fe7576000805461ff001916905550565b600054610100900460ff1680612c11575060005460ff16155b612c2d5760405162461bcd60e51b8152600401610bfa90615635565b600054610100900460ff16158015612c4f576000805461ffff19166101011790555b61013980546001600160a01b0319166001600160a01b038516179055815160208301516001600160601b0316600160a01b026001600160a01b039091161761013d55604082015161013e556060820151608080840151811c600160801b0291901c1761013f558015610c1e576000805461ff0019169055505050565b612cd5828261147d565b15610f1d57600082815260c9602090815260408083206001600160a01b0385168085529252808320805460ff1916905551339285917ff6391f5c32d9c69d2a47ea670b442974b53935d1edc7fd64eb21e047a839171b9190a45050565b7f360894a13ba1a3210667c828492db98dca3e2076cc3735a920a3ca505d382bbc546001600160a01b031690565b600080516020615b6d833981519152600080516020615ae68339815191527f00000000000000000000000000000000000000000000000000000000000000006001600160a01b03166379502c556040518163ffffffff1660e01b815260040160206040518083038186803b158015612dd757600080fd5b505afa158015612deb573d6000803e3d6000fd5b505050506040513d601f19601f82011682018060405250810190612e0f9190615252565b6001600160a01b031663c5b8f5cf8383336040518463ffffffff1660e01b8152600401612e3e9392919061556b565b60006040518083038186803b158015612e5657600080fd5b505afa158015612e6a573d6000803e3d6000fd5b50505050505050565b6000612e7d612d32565b9050612e8884614088565b600083511180612e955750815b15612ea657612ea4848461412d565b505b7f4910fdfa16fed3260ed0e7147f7cc6da11a60208b5b9406d12a635614ffd9143805460ff166117fa57805460ff191660011781556040516001600160a01b0383166024820152612f2590869060440160408051601f198184030181529190526020810180516001600160e01b0316631b2ce7f360e11b17905261412d565b50805460ff19168155612f36612d32565b6001600160a01b0316826001600160a01b031614612fae5760405162461bcd60e51b815260206004820152602f60248201527f45524331393637557067726164653a207570677261646520627265616b73206660448201526e75727468657220757067726164657360881b6064820152608401610bfa565b6117fa85614218565b6000612ff58215612fd55761013f54600160801b900460801b612fdd565b61013f5460801b5b6001600160801b03191630632f69c74160e21b614258565b90506130b660405180604001604052806006815260200165199b1a59da1d60d21b81525084600a01805461302890615a19565b80601f016020809104026020016040519081016040528092919081815260200182805461305490615a19565b80156130a15780601f10613076576101008083540402835291602001916130a1565b820191906000526020600020905b81548152906001019060200180831161308457829003601f168201915b5050505050836142749092919063ffffffff16565b61311460405180604001604052806008815260200167195b991c1bda5b9d60c21b8152506040518060400160405280601181526020017061637475616c6172726976616c6461746560781b815250836142749092919063ffffffff16565b60408051808201909152600981526864657061727475726560b81b6020820152600b84015461314b91839164ffffffffff16614292565b8115613179576040805180820190915260058152641d5b9d1a5b60da1b602082015261317990829084614292565b61013d5461013e5460009161319b916001600160a01b039091169084906142b0565b6000908152610140602052604090209490945550505050565b60fb5460ff166131fd5760405162461bcd60e51b815260206004820152601460248201527314185d5cd8589b194e881b9bdd081c185d5cd95960621b6044820152606401610bfa565b60fb805460ff191690557f5db9ee0a495bf2e6ff9c91a7834c1ba4fdd244a5e8aa4e537bd38aeae4b073aa335b6040516001600160a01b03909116815260200160405180910390a1565b60fb5460ff161561328d5760405162461bcd60e51b815260206004820152601060248201526f14185d5cd8589b194e881c185d5cd95960821b6044820152606401610bfa565b60fb805460ff191660011790557f62e78cea01bee320cd4e420270b5ea74000d11b0c9f74754ebdbfc544b05a25861322a3390565b60008215806132cf575081155b156132dc575060006109b6565b816132f36002676765c793fa10079d601b1b61582b565b6132ff90600019615976565b613309919061582b565b8311156133645760405162461bcd60e51b8152602060048201526024808201527f7261794d756c3a204d617468204d756c7469706c69636174696f6e204f766572604482015263666c6f7760e01b6064820152608401610bfa565b676765c793fa10079d601b1b61337b60028261582b565b613385848661592a565b61338f91906157ea565b611476919061582b565b6000806133aa633b9aca008461592a565b9050826133bb633b9aca008361582b565b146109b65760405162461bcd60e51b815260206004820152602660248201527f776164546f5261643a204d617468204d756c7469706c69636174696f6e204f766044820152656572666c6f7760d01b6064820152608401610bfa565b6000806134296002633b9aca0061582b565b9050600061343784836157ea565b9050818110156134895760405162461bcd60e51b815260206004820181905260248201527f726179546f5761643a204d617468204164646974696f6e204f766572666c6f776044820152606401610bfa565b613497633b9aca008261582b565b949350505050565b60008215806134ac575081155b156134b9575060006109b6565b816134cd6002670de0b6b3a764000061582b565b6134d990600019615976565b6134e3919061582b565b83111561353e5760405162461bcd60e51b8152602060048201526024808201527f7761644d756c3a204d617468204d756c7469706c69636174696f6e204f766572604482015263666c6f7760e01b6064820152608401610bfa565b670de0b6b3a764000061337b60028261582b565b6000816135a15760405162461bcd60e51b815260206004820152601860248201527f7261794469763a204469766973696f6e206279207a65726f00000000000000006044820152606401610bfa565b60006135ae60028461582b565b9050676765c793fa10079d601b1b6135c882600019615976565b6135d2919061582b565b84111561362d5760405162461bcd60e51b8152602060048201526024808201527f7261794469763a204d617468204d756c7469706c69636174696f6e204f766572604482015263666c6f7760e01b6064820152608401610bfa565b8281613644676765c793fa10079d601b1b8761592a565b61364e91906157ea565b613497919061582b565b613660614ef0565b60fb5460ff16156136a65760405162461bcd60e51b815260206004820152601060248201526f14185d5cd8589b194e881c185d5cd95960821b6044820152606401610bfa565b8585106136f55760405162461bcd60e51b815260206004820181905260248201527f5072656d69756d206d757374206265206c657373207468616e207061796f75746044820152606401610bfa565b4264ffffffffff168364ffffffffff16116137525760405162461bcd60e51b815260206004820181905260248201527f45787069726174696f6e206d75737420626520696e20746865206675747572656044820152606401610bfa565b6001600160a01b0382166137a85760405162461bcd60e51b815260206004820152601e60248201527f437573746f6d65722063616e2774206265207a65726f206164647265737300006044820152606401610bfa565b847f00000000000000000000000000000000000000000000000000000000000000006001600160a01b031663e5a6b10f6040518163ffffffff1660e01b815260040160206040518083038186803b15801561380257600080fd5b505afa158015613816573d6000803e3d6000fd5b505050506040513d601f19601f8201168201806040525081019061383a9190615252565b604051636eb1769f60e11b81526001600160a01b0385811660048301527f000000000000000000000000000000000000000000000000000000000000000081166024830152919091169063dd62ed3e9060440160206040518083038186803b1580156138a557600080fd5b505afa1580156138b9573d6000803e3d6000fd5b505050506040513d601f19601f820116820180604052508101906138dd91906153d1565b10156139415760405162461bcd60e51b815260206004820152602d60248201527f596f75206d75737420616c6c6f7720454e5355524f20746f207472616e73666560448201526c7220746865207072656d69756d60981b6064820152608401610bfa565b600061395030878988886142c7565b905061013354816060015111156139c15760405162461bcd60e51b815260206004820152602f60248201527f5269736b4d6f64756c653a20534352206973206d6f7265207468616e206d617860448201526e696d756d2070657220706f6c69637960881b6064820152608401610bfa565b806060015161013560008282546139d891906157ea565b909155505061013454610135541115613a335760405162461bcd60e51b815260206004820152601e60248201527f5269736b4d6f64756c653a20534352206c696d697420657863656564656400006044820152606401610bfa565b60405163f02839c160e01b81526000906001600160a01b037f0000000000000000000000000000000000000000000000000000000000000000169063f02839c190613a849085908890600401615683565b602060405180830381600087803b158015613a9e57600080fd5b505af1158015613ab2573d6000803e3d6000fd5b505050506040513d601f19601f82011682018060405250810190613ad691906153d1565b8252509695505050505050565b6000600182601b811115613af957613af9615a8e565b613b0391906159b3565b61012d54600160ff929092169190911b91506201518090613b2b9064ffffffffff164261598d565b64ffffffffff161115613b695761012d805466ffffffffffffff8316600160281b026001600160601b031990911664ffffffffff4216171790555050565b61012d54600160281b9004811666ffffffffffffff16613bc85761012d805464ffffffffff421664ffffffffff1966ffffffffffffff808616600160281b808604929092161702166001600160601b0319909216919091171790555050565b60405162461bcd60e51b815260206004820152604760248201527f596f7520616c726561647920747765616b6564207468697320706172616d657460448201527f657220726563656e746c792e2057616974206265666f726520747765616b696e606482015266339030b3b0b4b760c91b608482015260a401610bfa565b600081613c955760405162461bcd60e51b815260206004820152601860248201527f7761644469763a204469766973696f6e206279207a65726f00000000000000006044820152606401610bfa565b6000613ca260028461582b565b9050670de0b6b3a7640000613cb982600019615976565b613cc3919061582b565b841115613d1e5760405162461bcd60e51b8152602060048201526024808201527f7761644469763a204d617468204d756c7469706c69636174696f6e204f766572604482015263666c6f7760e01b6064820152608401610bfa565b8281613644670de0b6b3a76400008761592a565b60606000613d4183600261592a565b613d4c9060026157ea565b67ffffffffffffffff811115613d6457613d64615aba565b6040519080825280601f01601f191660200182016040528015613d8e576020820181803683370190505b509050600360fc1b81600081518110613da957613da9615aa4565b60200101906001600160f81b031916908160001a905350600f60fb1b81600181518110613dd857613dd8615aa4565b60200101906001600160f81b031916908160001a9053506000613dfc84600261592a565b613e079060016157ea565b90505b6001811115613e7f576f181899199a1a9b1b9c1cb0b131b232b360811b85600f1660108110613e3b57613e3b615aa4565b1a60f81b828281518110613e5157613e51615aa4565b60200101906001600160f81b031916908160001a90535060049490941c93613e7881615a02565b9050613e0a565b5083156114765760405162461bcd60e51b815260206004820181905260248201527f537472696e67733a20686578206c656e67746820696e73756666696369656e746044820152606401610bfa565b600054610100900460ff1680613ee7575060005460ff16155b613f035760405162461bcd60e51b8152600401610bfa90615635565b600054610100900460ff16158015613f25576000805461ffff19166101011790555b613f2d614685565b613f35614685565b613f3d614685565b8015610fe7576000805461ff001916905550565b600054610100900460ff1680613f6a575060005460ff16155b613f865760405162461bcd60e51b8152600401610bfa90615635565b600054610100900460ff16158015613fa8576000805461ffff19166101011790555b613fb06146ef565b613f3d61474d565b600054610100900460ff1680613fd1575060005460ff16155b613fed5760405162461bcd60e51b8152600401610bfa90615635565b600054610100900460ff1615801561400f576000805461ffff19166101011790555b87516140239061012e9060208b0190614e6c565b5061012f879055676765c793fa10079d601b1b61013055610131869055610132859055610133849055610134839055600061013581905561013680546001600160a01b0319166001600160a01b03851617905561408090336147b4565b612b6b6126ce565b803b6140ec5760405162461bcd60e51b815260206004820152602d60248201527f455243313936373a206e657720696d706c656d656e746174696f6e206973206e60448201526c1bdd08184818dbdb9d1c9858dd609a1b6064820152608401610bfa565b7f360894a13ba1a3210667c828492db98dca3e2076cc3735a920a3ca505d382bbc80546001600160a01b0319166001600160a01b0392909216919091179055565b6060823b61418c5760405162461bcd60e51b815260206004820152602660248201527f416464726573733a2064656c65676174652063616c6c20746f206e6f6e2d636f6044820152651b9d1c9858dd60d21b6064820152608401610bfa565b600080846001600160a01b0316846040516141a7919061544b565b600060405180830381855af49150503d80600081146141e2576040519150601f19603f3d011682016040523d82523d6000602084013e6141e7565b606091505b509150915061420f8282604051806060016040528060278152602001615b26602791396147be565b95945050505050565b61422181614088565b6040516001600160a01b038216907fbc7cd75a20ee27fd9adebab32041f755214dbc6bffa90cc0225b39da2e5c2d3b90600090a250565b614260614f68565b614268614f68565b61420f818686866147f7565b60808301516142839083614834565b6080830151610c1e9082614834565b60808301516142a19083614834565b6080830151610c1e908261484b565b600061349784848460016320214ca360e11b614857565b6142cf614ef0565b8385111561432a5760405162461bcd60e51b815260206004820152602260248201527f5072656d69756d2063616e6e6f74206265206d6f7265207468616e207061796f6044820152611d5d60f21b6064820152608401610bfa565b614332614ef0565b6001600160a01b03871661012082018190526040808301889052602080840188905260808401879052815163bf8e934d60e01b8152915189936143d7936143d093919263bf8e934d92600480840193919291829003018186803b15801561439857600080fd5b505afa1580156143ac573d6000803e3d6000fd5b505050506040513d601f19601f8201168201806040525081019061139091906153d1565b879061349f565b6143e19190615976565b606082018190526144285760405162461bcd60e51b81526020600482015260116024820152705343522063616e2774206265207a65726f60781b6044820152606401610bfa565b64ffffffffff428116610140830152831661016082015260408051635342825360e01b815290516144c49161139091611381916001600160a01b038c1691635342825391600480820192602092909190829003018186803b15801561448c57600080fd5b505afa1580156144a0573d6000803e3d6000fd5b505050506040513d601f19601f8201168201806040525081019061137a91906153d1565b8160a001818152505061451761450c886001600160a01b031663d44499a86040518163ffffffff1660e01b815260040160206040518083038186803b15801561439857600080fd5b60a08301519061349f565b8160c00181815250506145d26145c76113906e0612d847b578e7643c28ac0000000084610140015185610160015161454f919061598d565b64ffffffffff168b6001600160a01b0316639d90724d6040518163ffffffff1660e01b815260040160206040518083038186803b15801561458f57600080fd5b505afa1580156145a3573d6000803e3d6000fd5b505050506040513d601f19601f8201168201806040525081019061141191906153d1565b60608301519061349f565b610100820181905260c082015160a08301518892916145f0916157ea565b6145fa91906157ea565b11156146485760405162461bcd60e51b815260206004820152601960248201527f5072656d69756d206c657373207468616e206d696e696d756d000000000000006044820152606401610bfa565b60c081015161010082015160a08301516146629089615976565b61466c9190615976565b6146769190615976565b60e08201529695505050505050565b600054610100900460ff168061469e575060005460ff16155b6146ba5760405162461bcd60e51b8152600401610bfa90615635565b600054610100900460ff16158015613f3d576000805461ffff19166101011790558015610fe7576000805461ff001916905550565b600054610100900460ff1680614708575060005460ff16155b6147245760405162461bcd60e51b8152600401610bfa90615635565b600054610100900460ff16158015613f2d576000805461ffff1916610101179055613f35614685565b600054610100900460ff1680614766575060005460ff16155b6147825760405162461bcd60e51b8152600401610bfa90615635565b600054610100900460ff161580156147a4576000805461ffff19166101011790555b6147ac614685565b613f3d614a63565b610f1d8282612a6f565b606083156147cd575081611476565b8251156147dd5782518084602001fd5b8160405162461bcd60e51b8152600401610bfa919061558a565b6147ff614f68565b61480f8560800151610100614ad8565b50509183526001600160a01b031660208301526001600160e01b031916604082015290565b6148418260038351614b3d565b610c1e8282614c0b565b610f1d82600083614b3d565b61013b546040516001600160601b03193060601b166020820152603481019190915260009060540160408051808303601f19018152918152815160209283012061013b546060890152600081815261013c90935281832080546001600160a01b0319166001600160a01b038b16179055905190925082917fb5e6e01e79f91267dc17b4e6314d5d4d03593d2ceee0fbb452b750bd70ea5af991a2600082600080886000015189602001518a604001518b606001518a8d608001516000015160405160240161492c9897969594939291906154dc565b60408051601f198184030181529181526020820180516001600160e01b03166001600160e01b031990941693909317909252610139549151630200057560e51b81529092506001600160a01b0390911690634000aea090614995908a9089908690600401615544565b602060405180830381600087803b1580156149af57600080fd5b505af11580156149c3573d6000803e3d6000fd5b505050506040513d601f19601f820116820180604052508101906149e7919061519b565b614a3f5760405162461bcd60e51b815260206004820152602360248201527f756e61626c6520746f207472616e73666572416e6443616c6c20746f206f7261604482015262636c6560e81b6064820152608401610bfa565b600161013b6000828254614a5391906157ea565b9091555091979650505050505050565b600054610100900460ff1680614a7c575060005460ff16155b614a985760405162461bcd60e51b8152600401610bfa90615635565b600054610100900460ff16158015614aba576000805461ffff19166101011790555b60fb805460ff191690558015610fe7576000805461ff001916905550565b604080518082019091526060815260006020820152614af8602083615a4e565b15614b2057614b08602083615a4e565b614b13906020615976565b614b1d90836157ea565b91505b506020828101829052604080518085526000815290920101905290565b60178111614b58576124d18360e0600585901b168317614c32565b60ff8111614b8257614b75836018611fe0600586901b1617614c32565b506124d183826001614c57565b61ffff8111614bad57614ba0836019611fe0600586901b1617614c32565b506124d183826002614c57565b63ffffffff8111614bda57614bcd83601a611fe0600586901b1617614c32565b506124d183826004614c57565b67ffffffffffffffff8111610c1e57614bfe83601b611fe0600586901b1617614c32565b506124d183826008614c57565b60408051808201909152606081526000602082015261147683846000015151848551614c7d565b6040805180820190915260608152600060208201526114768384600001515184614d67565b604080518082019091526060815260006020820152613497848560000151518585614dc3565b6040805180820190915260608152600060208201528251821115614ca057600080fd5b6020850151614caf83866157ea565b1115614ce257614ce285614cd287602001518786614ccd91906157ea565b614e44565b614cdd90600261592a565b614e55565b600080865180518760208301019350808887011115614d015787860182525b505050602084015b60208410614d415780518252614d206020836157ea565b9150614d2d6020826157ea565b9050614d3a602085615976565b9350614d09565b51815160001960208690036101000a019081169019919091161790525083949350505050565b60408051808201909152606081526000602082015283602001518310614d9c57614d9c8485602001516002614cdd919061592a565b835180516020858301018481535080851415614db9576001810182525b5093949350505050565b6040805180820190915260608152600060208201526020850151614de785846157ea565b1115614dfb57614dfb85614cd286856157ea565b60006001614e0b84610100615882565b614e159190615976565b9050855183868201018583198251161781525080518487011115614e395783860181525b509495945050505050565b60008183111561108a5750816109b6565b8151614e618383614ad8565b506124d18382614c0b565b828054614e7890615a19565b90600052602060002090601f016020900481019282614e9a5760008555614ee0565b82601f10614eb357805160ff1916838001178555614ee0565b82800160010185558215614ee0579182015b82811115614ee0578251825591602001919060010190614ec5565b50614eec929150614fa3565b5090565b60405180610180016040528060008152602001600081526020016000815260200160008152602001600081526020016000815260200160008152602001600081526020016000815260200160006001600160a01b03168152602001600064ffffffffff168152602001600064ffffffffff1681525090565b6040805160a0810182526000808252602080830182905282840182905260608084018390528451808601909552845283015290608082015290565b5b80821115614eec5760008155600101614fa4565b600067ffffffffffffffff80841115614fd357614fd3615aba565b604051601f8501601f19908116603f01168101908282118183101715614ffb57614ffb615aba565b8160405280935085815286868601111561501457600080fd5b858560208301376000602087830101525050509392505050565b80356001600160801b03198116811461504657600080fd5b919050565b600082601f83011261505c57600080fd5b61147683833560208501614fb8565b600060a0828403121561507d57600080fd5b60405160a0810181811067ffffffffffffffff821117156150a0576150a0615aba565b60405290508082356150b181615ad0565b815260208301356001600160601b03811681146150cd57600080fd5b6020820152604083810135908201526150e86060840161502e565b60608201526150f96080840161502e565b60808201525092915050565b803564ffffffffff8116811461504657600080fd5b60006020828403121561512c57600080fd5b813561147681615ad0565b6000806040838503121561514a57600080fd5b823561515581615ad0565b9150602083013567ffffffffffffffff81111561517157600080fd5b8301601f8101851361518257600080fd5b61519185823560208401614fb8565b9150509250929050565b6000602082840312156151ad57600080fd5b8151801515811461147657600080fd5b6000602082840312156151cf57600080fd5b5035919050565b600080604083850312156151e957600080fd5b8235915060208301356151fb81615ad0565b809150509250929050565b6000806040838503121561521957600080fd5b50508035926020909101359150565b60006020828403121561523a57600080fd5b81356001600160e01b03198116811461147657600080fd5b60006020828403121561526457600080fd5b815161147681615ad0565b60008060008060008060008060006101a08a8c03121561528e57600080fd5b893567ffffffffffffffff8111156152a557600080fd5b6152b18c828d0161504b565b99505060208a0135975060408a0135965060608a0135955060808a0135945060a08a0135935060c08a01356152e581615ad0565b925060e08a01356152f581615ad0565b91506153058b6101008c0161506b565b90509295985092959850929598565b600080600080600080600080610100898b03121561533157600080fd5b883567ffffffffffffffff81111561534857600080fd5b6153548b828c0161504b565b98505061536360208a01615105565b965061537160408a01615105565b955061537f60608a01615105565b94506080890135935060a0890135925060c0890135915060e08901356153a481615ad0565b809150509295985092959890939650565b600060a082840312156153c757600080fd5b611476838361506b565b6000602082840312156153e357600080fd5b5051919050565b6000806000606084860312156153ff57600080fd5b833592506020840135915061541660408501615105565b90509250925092565b600081518084526154378160208601602086016159d6565b601f01601f19169290920160200192915050565b6000825161545d8184602087016159d6565b9190910192915050565b7f416363657373436f6e74726f6c3a206163636f756e742000000000000000000081526000835161549f8160178501602088016159d6565b7001034b99036b4b9b9b4b733903937b6329607d1b60179184019182015283516154d08160288401602088016159d6565b01602801949350505050565b6001600160a01b0389811682526020820189905260408201889052861660608201526001600160e01b03198516608082015260a0810184905260c0810183905261010060e082018190526000906155358382018561541f565b9b9a5050505050505050505050565b60018060a01b038416815282602082015260606040820152600061420f606083018461541f565b92835260208301919091526001600160a01b0316604082015260600190565b602081526000611476602083018461541f565b6020808252602c908201527f46756e6374696f6e206d7573742062652063616c6c6564207468726f7567682060408201526b19195b1959d85d1958d85b1b60a21b606082015260800190565b6020808252602c908201527f46756e6374696f6e206d7573742062652063616c6c6564207468726f7567682060408201526b6163746976652070726f787960a01b606082015260800190565b6020808252602e908201527f496e697469616c697a61626c653a20636f6e747261637420697320616c72656160408201526d191e481a5b9a5d1a585b1a5e995960921b606082015260800190565b60006101a082019050835182526020840151602083015260408401516040830152606084015160608301526080840151608083015260a084015160a083015260c084015160c083015260e084015160e0830152610100808501518184015250610120808501516156fd828501826001600160a01b03169052565b50506101408481015164ffffffffff81168483015250506101608481015164ffffffffff81168483015250506001600160a01b038316610180830152611476565b8254815260018301546020820152600283015460408201526003830154606082015260048301546080820152600583015460a0820152600683015460c0820152600783015460e0820152600883015461010082015260098301546001600160a01b0381166101208301526101a082019064ffffffffff60a082901c81166101408501526157da6101608501828460c81c1664ffffffffff169052565b5050821515610180830152611476565b600082198211156157fd576157fd615a62565b500190565b600064ffffffffff80831681851680830382111561582257615822615a62565b01949350505050565b60008261583a5761583a615a78565b500490565b600181815b8085111561587a57816000190482111561586057615860615a62565b8085161561586d57918102915b93841c9390800290615844565b509250929050565b60006114768383600082615898575060016109b6565b816158a5575060006109b6565b81600181146158bb57600281146158c5576158e1565b60019150506109b6565b60ff8411156158d6576158d6615a62565b50506001821b6109b6565b5060208310610133831016604e8410600b8410161715615904575081810a6109b6565b61590e838361583f565b806000190482111561592257615922615a62565b029392505050565b600081600019048311821515161561594457615944615a62565b500290565b600064ffffffffff8083168185168183048111821515161561596d5761596d615a62565b02949350505050565b60008282101561598857615988615a62565b500390565b600064ffffffffff838116908316818110156159ab576159ab615a62565b039392505050565b600060ff821660ff8416808210156159cd576159cd615a62565b90039392505050565b60005b838110156159f15781810151838201526020016159d9565b838111156124d15750506000910152565b600081615a1157615a11615a62565b506000190190565b600181811c90821680615a2d57607f821691505b6020821081141561108a57634e487b7160e01b600052602260045260246000fd5b600082615a5d57615a5d615a78565b500690565b634e487b7160e01b600052601160045260246000fd5b634e487b7160e01b600052601260045260246000fd5b634e487b7160e01b600052602160045260246000fd5b634e487b7160e01b600052603260045260246000fd5b634e487b7160e01b600052604160045260246000fd5b6001600160a01b0381168114610fe757600080fdfebf372ca3ebecfe59ac256f17697941bbe63302aced610e8b0e3646f743c7beb25ec196419322369c6bac572d883f4d990ae5ec82f7d93cdf89b85dbb05b63c27416464726573733a206c6f772d6c6576656c2064656c65676174652063616c6c206661696c6564a82e22387fca439f316d78ca566f383218ab8ae1b3e830178c9c82cbd16749c055435dd261a4b9b3364963f7738a7a662ad9c84396d64be3365284bb7f0a5041a2646970667358221220d1c5270ad46c012b57138a47af0c0dcb8854bdc0789461a663bfc4d8fcefeefd64736f6c63430008060033",
  "linkReferences": {},
  "deployedLinkReferences": {}
}