{
  "_format": "hh-sol-artifact-1",
  "contractName": "PolicyNFT",
  "sourceName": "contracts/PolicyNFT.sol",
  "abi": [
    {
      "anonymous": false,
      "inputs": [
        {
          "indexed": false,
          "internalType": "address",
          "name": "previousAdmin",
          "type": "address"
        },
        {
          "indexed": false,
          "internalType": "address",
          "name": "newAdmin",
          "type": "address"
        }
      ],
      "name": "AdminChanged",
      "type": "event"
    },
    {
      "anonymous": false,
      "inputs": [
        {
          "indexed": true,
          "internalType": "address",
          "name": "owner",
          "type": "address"
        },
        {
          "indexed": true,
          "internalType": "address",
          "name": "approved",
          "type": "address"
        },
        {
          "indexed": true,
          "internalType": "uint256",
          "name": "tokenId",
          "type": "uint256"
        }
      ],
      "name": "Approval",
      "type": "event"
    },
    {
      "anonymous": false,
      "inputs": [
        {
          "indexed": true,
          "internalType": "address",
          "name": "owner",
          "type": "address"
        },
        {
          "indexed": true,
          "internalType": "address",
          "name": "operator",
          "type": "address"
        },
        {
          "indexed": false,
          "internalType": "bool",
          "name": "approved",
          "type": "bool"
        }
      ],
      "name": "ApprovalForAll",
      "type": "event"
    },
    {
      "anonymous": false,
      "inputs": [
        {
          "indexed": true,
          "internalType": "address",
          "name": "beacon",
          "type": "address"
        }
      ],
      "name": "BeaconUpgraded",
      "type": "event"
    },
    {
      "anonymous": false,
      "inputs": [
        {
          "indexed": false,
          "internalType": "address",
          "name": "account",
          "type": "address"
        }
      ],
      "name": "Paused",
      "type": "event"
    },
    {
      "anonymous": false,
      "inputs": [
        {
          "indexed": true,
          "internalType": "address",
          "name": "from",
          "type": "address"
        },
        {
          "indexed": true,
          "internalType": "address",
          "name": "to",
          "type": "address"
        },
        {
          "indexed": true,
          "internalType": "uint256",
          "name": "tokenId",
          "type": "uint256"
        }
      ],
      "name": "Transfer",
      "type": "event"
    },
    {
      "anonymous": false,
      "inputs": [
        {
          "indexed": false,
          "internalType": "address",
          "name": "account",
          "type": "address"
        }
      ],
      "name": "Unpaused",
      "type": "event"
    },
    {
      "anonymous": false,
      "inputs": [
        {
          "indexed": true,
          "internalType": "address",
          "name": "implementation",
          "type": "address"
        }
      ],
      "name": "Upgraded",
      "type": "event"
    },
    {
      "inputs": [],
      "name": "GUARDIAN_ROLE",
      "outputs": [
        {
          "internalType": "bytes32",
          "name": "",
          "type": "bytes32"
        }
      ],
      "stateMutability": "view",
      "type": "function"
    },
    {
      "inputs": [],
      "name": "LEVEL1_ROLE",
      "outputs": [
        {
          "internalType": "bytes32",
          "name": "",
          "type": "bytes32"
        }
      ],
      "stateMutability": "view",
      "type": "function"
    },
    {
      "inputs": [
        {
          "internalType": "address",
          "name": "to",
          "type": "address"
        },
        {
          "internalType": "uint256",
          "name": "tokenId",
          "type": "uint256"
        }
      ],
      "name": "approve",
      "outputs": [],
      "stateMutability": "nonpayable",
      "type": "function"
    },
    {
      "inputs": [
        {
          "internalType": "address",
          "name": "owner",
          "type": "address"
        }
      ],
      "name": "balanceOf",
      "outputs": [
        {
          "internalType": "uint256",
          "name": "",
          "type": "uint256"
        }
      ],
      "stateMutability": "view",
      "type": "function"
    },
    {
      "inputs": [],
      "name": "connect",
      "outputs": [],
      "stateMutability": "nonpayable",
      "type": "function"
    },
    {
      "inputs": [
        {
          "internalType": "uint256",
          "name": "tokenId",
          "type": "uint256"
        }
      ],
      "name": "getApproved",
      "outputs": [
        {
          "internalType": "address",
          "name": "",
          "type": "address"
        }
      ],
      "stateMutability": "view",
      "type": "function"
    },
    {
      "inputs": [
        {
          "internalType": "string",
          "name": "name_",
          "type": "string"
        },
        {
          "internalType": "string",
          "name": "symbol_",
          "type": "string"
        },
        {
          "internalType": "contract IPolicyPool",
          "name": "policyPool_",
          "type": "address"
        }
      ],
      "name": "initialize",
      "outputs": [],
      "stateMutability": "nonpayable",
      "type": "function"
    },
    {
      "inputs": [
        {
          "internalType": "address",
          "name": "owner",
          "type": "address"
        },
        {
          "internalType": "address",
          "name": "operator",
          "type": "address"
        }
      ],
      "name": "isApprovedForAll",
      "outputs": [
        {
          "internalType": "bool",
          "name": "",
          "type": "bool"
        }
      ],
      "stateMutability": "view",
      "type": "function"
    },
    {
      "inputs": [],
      "name": "name",
      "outputs": [
        {
          "internalType": "string",
          "name": "",
          "type": "string"
        }
      ],
      "stateMutability": "view",
      "type": "function"
    },
    {
      "inputs": [],
      "name": "nextId",
      "outputs": [
        {
          "internalType": "uint256",
          "name": "",
          "type": "uint256"
        }
      ],
      "stateMutability": "view",
      "type": "function"
    },
    {
      "inputs": [
        {
          "internalType": "uint256",
          "name": "tokenId",
          "type": "uint256"
        }
      ],
      "name": "ownerOf",
      "outputs": [
        {
          "internalType": "address",
          "name": "",
          "type": "address"
        }
      ],
      "stateMutability": "view",
      "type": "function"
    },
    {
      "inputs": [],
      "name": "pause",
      "outputs": [],
      "stateMutability": "nonpayable",
      "type": "function"
    },
    {
      "inputs": [],
      "name": "paused",
      "outputs": [
        {
          "internalType": "bool",
          "name": "",
          "type": "bool"
        }
      ],
      "stateMutability": "view",
      "type": "function"
    },
    {
      "inputs": [
        {
          "internalType": "address",
          "name": "to",
          "type": "address"
        }
      ],
      "name": "safeMint",
      "outputs": [
        {
          "internalType": "uint256",
          "name": "",
          "type": "uint256"
        }
      ],
      "stateMutability": "nonpayable",
      "type": "function"
    },
    {
      "inputs": [
        {
          "internalType": "address",
          "name": "from",
          "type": "address"
        },
        {
          "internalType": "address",
          "name": "to",
          "type": "address"
        },
        {
          "internalType": "uint256",
          "name": "tokenId",
          "type": "uint256"
        }
      ],
      "name": "safeTransferFrom",
      "outputs": [],
      "stateMutability": "nonpayable",
      "type": "function"
    },
    {
      "inputs": [
        {
          "internalType": "address",
          "name": "from",
          "type": "address"
        },
        {
          "internalType": "address",
          "name": "to",
          "type": "address"
        },
        {
          "internalType": "uint256",
          "name": "tokenId",
          "type": "uint256"
        },
        {
          "internalType": "bytes",
          "name": "_data",
          "type": "bytes"
        }
      ],
      "name": "safeTransferFrom",
      "outputs": [],
      "stateMutability": "nonpayable",
      "type": "function"
    },
    {
      "inputs": [
        {
          "internalType": "address",
          "name": "operator",
          "type": "address"
        },
        {
          "internalType": "bool",
          "name": "approved",
          "type": "bool"
        }
      ],
      "name": "setApprovalForAll",
      "outputs": [],
      "stateMutability": "nonpayable",
      "type": "function"
    },
    {
      "inputs": [
        {
          "internalType": "bytes4",
          "name": "interfaceId",
          "type": "bytes4"
        }
      ],
      "name": "supportsInterface",
      "outputs": [
        {
          "internalType": "bool",
          "name": "",
          "type": "bool"
        }
      ],
      "stateMutability": "view",
      "type": "function"
    },
    {
      "inputs": [],
      "name": "symbol",
      "outputs": [
        {
          "internalType": "string",
          "name": "",
          "type": "string"
        }
      ],
      "stateMutability": "view",
      "type": "function"
    },
    {
      "inputs": [
        {
          "internalType": "uint256",
          "name": "tokenId",
          "type": "uint256"
        }
      ],
      "name": "tokenURI",
      "outputs": [
        {
          "internalType": "string",
          "name": "",
          "type": "string"
        }
      ],
      "stateMutability": "view",
      "type": "function"
    },
    {
      "inputs": [
        {
          "internalType": "address",
          "name": "from",
          "type": "address"
        },
        {
          "internalType": "address",
          "name": "to",
          "type": "address"
        },
        {
          "internalType": "uint256",
          "name": "tokenId",
          "type": "uint256"
        }
      ],
      "name": "transferFrom",
      "outputs": [],
      "stateMutability": "nonpayable",
      "type": "function"
    },
    {
      "inputs": [],
      "name": "unpause",
      "outputs": [],
      "stateMutability": "nonpayable",
      "type": "function"
    },
    {
      "inputs": [
        {
          "internalType": "address",
          "name": "newImplementation",
          "type": "address"
        }
      ],
      "name": "upgradeTo",
      "outputs": [],
      "stateMutability": "nonpayable",
      "type": "function"
    },
    {
      "inputs": [
        {
          "internalType": "address",
          "name": "newImplementation",
          "type": "address"
        },
        {
          "internalType": "bytes",
          "name": "data",
          "type": "bytes"
        }
      ],
      "name": "upgradeToAndCall",
      "outputs": [],
      "stateMutability": "payable",
      "type": "function"
    }
  ],
  "bytecode": "0x60a06040523060601b60805234801561001757600080fd5b5060805160601c6127ef61004b600039600081816107e80152818161082801528181610ab10152610af101526127ef6000f3fe60806040526004361061014b5760003560e01c80635c975abb116100b657806395d89b411161006f57806395d89b4114610390578063a22cb465146103a5578063b88d4fde146103c5578063c87b56dd146103e5578063e985e9c514610405578063f67b2bad1461044e57600080fd5b80635c975abb146102f957806361b8ce8c146103115780636352211e1461032657806370a08231146103465780638456cb5914610366578063948cb7191461037b57600080fd5b806324ea54f41161010857806324ea54f4146102415780633659cfe6146102715780633f4ba83a1461029157806340d097c3146102a657806342842e0e146102c65780634f1ef286146102e657600080fd5b806301ffc9a71461015057806306fdde0314610185578063077f224a146101a7578063081812fc146101c9578063095ea7b31461020157806323b872dd14610221575b600080fd5b34801561015c57600080fd5b5061017061016b3660046122b4565b610482565b60405190151581526020015b60405180910390f35b34801561019157600080fd5b5061019a6104d4565b60405161017c9190612450565b3480156101b357600080fd5b506101c76101c236600461230b565b610566565b005b3480156101d557600080fd5b506101e96101e4366004612383565b610601565b6040516001600160a01b03909116815260200161017c565b34801561020d57600080fd5b506101c761021c366004612288565b610696565b34801561022d57600080fd5b506101c761023c366004612158565b6107ac565b34801561024d57600080fd5b5061026360008051602061279a83398151915281565b60405190815260200161017c565b34801561027d57600080fd5b506101c761028c366004612102565b6107dd565b34801561029d57600080fd5b506101c76108a6565b3480156102b257600080fd5b506102636102c1366004612102565b6109d0565b3480156102d257600080fd5b506101c76102e1366004612158565b610a8b565b6101c76102f4366004612238565b610aa6565b34801561030557600080fd5b5060fb5460ff16610170565b34801561031d57600080fd5b50610263610b5c565b34801561033257600080fd5b506101e9610341366004612383565b610b6d565b34801561035257600080fd5b50610263610361366004612102565b610be4565b34801561037257600080fd5b506101c7610c6b565b34801561038757600080fd5b506101c7610d5e565b34801561039c57600080fd5b5061019a610de3565b3480156103b157600080fd5b506101c76103c0366004612205565b610df2565b3480156103d157600080fd5b506101c76103e0366004612199565b610eb7565b3480156103f157600080fd5b5061019a610400366004612383565b610ee9565b34801561041157600080fd5b5061017061042036600461211f565b6001600160a01b03918216600090815260ce6020908152604080832093909416825291909152205460ff1690565b34801561045a57600080fd5b506102637fbf372ca3ebecfe59ac256f17697941bbe63302aced610e8b0e3646f743c7beb281565b60006001600160e01b031982166380ac58cd60e01b14806104b357506001600160e01b03198216635b5e139f60e01b145b806104ce57506301ffc9a760e01b6001600160e01b03198316145b92915050565b606060c980546104e390612685565b80601f016020809104026020016040519081016040528092919081815260200182805461050f90612685565b801561055c5780601f106105315761010080835404028352916020019161055c565b820191906000526020600020905b81548152906001019060200180831161053f57829003601f168201915b5050505050905090565b600054610100900460ff168061057f575060005460ff16155b6105a45760405162461bcd60e51b815260040161059b90612577565b60405180910390fd5b600054610100900460ff161580156105c6576000805461ffff19166101011790555b6105ce610fd1565b6105d661104c565b6105e084846110b3565b6105e98261113a565b80156105fb576000805461ff00191690555b50505050565b600081815260cb60205260408120546001600160a01b031661067a5760405162461bcd60e51b815260206004820152602c60248201527f4552433732313a20617070726f76656420717565727920666f72206e6f6e657860448201526b34b9ba32b73a103a37b5b2b760a11b606482015260840161059b565b50600090815260cd60205260409020546001600160a01b031690565b60006106a182610b6d565b9050806001600160a01b0316836001600160a01b0316141561070f5760405162461bcd60e51b815260206004820152602160248201527f4552433732313a20617070726f76616c20746f2063757272656e74206f776e656044820152603960f91b606482015260840161059b565b336001600160a01b038216148061072b575061072b8133610420565b61079d5760405162461bcd60e51b815260206004820152603860248201527f4552433732313a20617070726f76652063616c6c6572206973206e6f74206f7760448201527f6e6572206e6f7220617070726f76656420666f7220616c6c0000000000000000606482015260840161059b565b6107a783836111cc565b505050565b6107b6338261123a565b6107d25760405162461bcd60e51b815260040161059b906125c5565b6107a7838383611331565b306001600160a01b037f00000000000000000000000000000000000000000000000000000000000000001614156108265760405162461bcd60e51b815260040161059b906124b5565b7f00000000000000000000000000000000000000000000000000000000000000006001600160a01b03166108586114dc565b6001600160a01b03161461087e5760405162461bcd60e51b815260040161059b90612501565b6108878161150a565b604080516000808252602082019092526108a39183919061162d565b50565b60008051602061279a8339815191527fbf372ca3ebecfe59ac256f17697941bbe63302aced610e8b0e3646f743c7beb261012e60009054906101000a90046001600160a01b03166001600160a01b03166379502c556040518163ffffffff1660e01b815260040160206040518083038186803b15801561092557600080fd5b505afa158015610939573d6000803e3d6000fd5b505050506040513d601f19601f8201168201806040525081019061095d91906122ee565b60405163c5b8f5cf60e01b815260048101849052602481018390523360448201526001600160a01b03919091169063c5b8f5cf9060640160006040518083038186803b1580156109ac57600080fd5b505afa1580156109c0573d6000803e3d6000fd5b505050506109cc611778565b5050565b61012e546000906001600160a01b0316336001600160a01b031614610a415760405162461bcd60e51b815260206004820152602160248201527f5468652063616c6c6572206d7573742062652074686520506f6c696379506f6f6044820152601b60fa1b606482015260840161059b565b60fb5460ff1615610a645760405162461bcd60e51b815260040161059b9061254d565b6000610a7061012d5490565b9050610a7c838261180b565b6104ce61012d80546001019055565b6107a783838360405180602001604052806000815250610eb7565b306001600160a01b037f0000000000000000000000000000000000000000000000000000000000000000161415610aef5760405162461bcd60e51b815260040161059b906124b5565b7f00000000000000000000000000000000000000000000000000000000000000006001600160a01b0316610b216114dc565b6001600160a01b031614610b475760405162461bcd60e51b815260040161059b90612501565b610b508261150a565b6109cc8282600161162d565b6000610b6861012d5490565b905090565b600081815260cb60205260408120546001600160a01b0316806104ce5760405162461bcd60e51b815260206004820152602960248201527f4552433732313a206f776e657220717565727920666f72206e6f6e657869737460448201526832b73a103a37b5b2b760b91b606482015260840161059b565b60006001600160a01b038216610c4f5760405162461bcd60e51b815260206004820152602a60248201527f4552433732313a2062616c616e636520717565727920666f7220746865207a65604482015269726f206164647265737360b01b606482015260840161059b565b506001600160a01b0316600090815260cc602052604090205490565b61012e54604080516379502c5560e01b8152905160008051602061279a833981519152926001600160a01b0316916379502c55916004808301926020929190829003018186803b158015610cbe57600080fd5b505afa158015610cd2573d6000803e3d6000fd5b505050506040513d601f19601f82011682018060405250810190610cf691906122ee565b6040516312d9a6ad60e01b8152600481018390523360248201526001600160a01b0391909116906312d9a6ad9060440160006040518083038186803b158015610d3e57600080fd5b505afa158015610d52573d6000803e3d6000fd5b505050506108a3611825565b61012e546001600160a01b03161580610d82575061012e546001600160a01b031633145b610dce5760405162461bcd60e51b815260206004820152601c60248201527f506f6c696379506f6f6c20616c726561647920636f6e6e656374656400000000604482015260640161059b565b61012e80546001600160a01b03191633179055565b606060ca80546104e390612685565b6001600160a01b038216331415610e4b5760405162461bcd60e51b815260206004820152601960248201527f4552433732313a20617070726f766520746f2063616c6c657200000000000000604482015260640161059b565b33600081815260ce602090815260408083206001600160a01b03871680855290835292819020805460ff191686151590811790915590519081529192917f17307eab39ab6107e8899845ad3d59bd9653f200f220920489ca2b5937696c31910160405180910390a35050565b610ec1338361123a565b610edd5760405162461bcd60e51b815260040161059b906125c5565b6105fb8484848461187d565b600081815260cb60205260409020546060906001600160a01b0316610f685760405162461bcd60e51b815260206004820152602f60248201527f4552433732314d657461646174613a2055524920717565727920666f72206e6f60448201526e3732bc34b9ba32b73a103a37b5b2b760891b606482015260840161059b565b6000610f7f60408051602081019091526000815290565b90506000815111610f9f5760405180602001604052806000815250610fca565b80610fa9846118b0565b604051602001610fba9291906123e4565b6040516020818303038152906040525b9392505050565b600054610100900460ff1680610fea575060005460ff16155b6110065760405162461bcd60e51b815260040161059b90612577565b600054610100900460ff16158015611028576000805461ffff19166101011790555b6110306119ae565b6110386119ae565b80156108a3576000805461ff001916905550565b600054610100900460ff1680611065575060005460ff16155b6110815760405162461bcd60e51b815260040161059b90612577565b600054610100900460ff161580156110a3576000805461ffff19166101011790555b6110ab6119ae565b611038611a18565b600054610100900460ff16806110cc575060005460ff16155b6110e85760405162461bcd60e51b815260040161059b90612577565b600054610100900460ff1615801561110a576000805461ffff19166101011790555b6111126119ae565b61111a6119ae565b6111248383611a8d565b80156107a7576000805461ff0019169055505050565b600054610100900460ff1680611153575060005460ff16155b61116f5760405162461bcd60e51b815260040161059b90612577565b600054610100900460ff16158015611191576000805461ffff19166101011790555b61012e80546001600160a01b0319166001600160a01b03841617905561012d8054600101905580156109cc576000805461ff00191690555050565b600081815260cd6020526040902080546001600160a01b0319166001600160a01b038416908117909155819061120182610b6d565b6001600160a01b03167f8c5be1e5ebec7d5bd14f71427d1e84f3dd0314c0f7b2291e5b200ac8c7c3b92560405160405180910390a45050565b600081815260cb60205260408120546001600160a01b03166112b35760405162461bcd60e51b815260206004820152602c60248201527f4552433732313a206f70657261746f7220717565727920666f72206e6f6e657860448201526b34b9ba32b73a103a37b5b2b760a11b606482015260840161059b565b60006112be83610b6d565b9050806001600160a01b0316846001600160a01b031614806112f95750836001600160a01b03166112ee84610601565b6001600160a01b0316145b8061132957506001600160a01b03808216600090815260ce602090815260408083209388168352929052205460ff165b949350505050565b826001600160a01b031661134482610b6d565b6001600160a01b0316146113ac5760405162461bcd60e51b815260206004820152602960248201527f4552433732313a207472616e73666572206f6620746f6b656e2074686174206960448201526839903737ba1037bbb760b91b606482015260840161059b565b6001600160a01b03821661140e5760405162461bcd60e51b8152602060048201526024808201527f4552433732313a207472616e7366657220746f20746865207a65726f206164646044820152637265737360e01b606482015260840161059b565b611419838383611b22565b6114246000826111cc565b6001600160a01b038316600090815260cc6020526040812080546001929061144d908490612642565b90915550506001600160a01b038216600090815260cc6020526040812080546001929061147b908490612616565b9091555050600081815260cb602052604080822080546001600160a01b0319166001600160a01b0386811691821790925591518493918716917fddf252ad1be2c89b69c2b068fc378daa952ba7f163c4a11628f55a4df523b3ef91a4505050565b7f360894a13ba1a3210667c828492db98dca3e2076cc3735a920a3ca505d382bbc546001600160a01b031690565b60008051602061279a8339815191527fbf372ca3ebecfe59ac256f17697941bbe63302aced610e8b0e3646f743c7beb261012e60009054906101000a90046001600160a01b03166001600160a01b03166379502c556040518163ffffffff1660e01b815260040160206040518083038186803b15801561158957600080fd5b505afa15801561159d573d6000803e3d6000fd5b505050506040513d601f19601f820116820180604052508101906115c191906122ee565b60405163c5b8f5cf60e01b815260048101849052602481018390523360448201526001600160a01b03919091169063c5b8f5cf9060640160006040518083038186803b15801561161057600080fd5b505afa158015611624573d6000803e3d6000fd5b50505050505050565b60006116376114dc565b905061164284611b45565b60008351118061164f5750815b156116605761165e8484611bea565b505b7f4910fdfa16fed3260ed0e7147f7cc6da11a60208b5b9406d12a635614ffd9143805460ff1661177157805460ff191660011781556040516001600160a01b03831660248201526116df90869060440160408051601f198184030181529190526020810180516001600160e01b0316631b2ce7f360e11b179052611bea565b50805460ff191681556116f06114dc565b6001600160a01b0316826001600160a01b0316146117685760405162461bcd60e51b815260206004820152602f60248201527f45524331393637557067726164653a207570677261646520627265616b73206660448201526e75727468657220757067726164657360881b606482015260840161059b565b61177185611cd5565b5050505050565b60fb5460ff166117c15760405162461bcd60e51b815260206004820152601460248201527314185d5cd8589b194e881b9bdd081c185d5cd95960621b604482015260640161059b565b60fb805460ff191690557f5db9ee0a495bf2e6ff9c91a7834c1ba4fdd244a5e8aa4e537bd38aeae4b073aa335b6040516001600160a01b03909116815260200160405180910390a1565b6109cc828260405180602001604052806000815250611d15565b60fb5460ff16156118485760405162461bcd60e51b815260040161059b9061254d565b60fb805460ff191660011790557f62e78cea01bee320cd4e420270b5ea74000d11b0c9f74754ebdbfc544b05a2586117ee3390565b611888848484611331565b61189484848484611d48565b6105fb5760405162461bcd60e51b815260040161059b90612463565b6060816118d45750506040805180820190915260018152600360fc1b602082015290565b8160005b81156118fe57806118e8816126c0565b91506118f79050600a8361262e565b91506118d8565b60008167ffffffffffffffff81111561191957611919612731565b6040519080825280601f01601f191660200182016040528015611943576020820181803683370190505b5090505b841561132957611958600183612642565b9150611965600a866126db565b611970906030612616565b60f81b8183815181106119855761198561271b565b60200101906001600160f81b031916908160001a9053506119a7600a8661262e565b9450611947565b600054610100900460ff16806119c7575060005460ff16155b6119e35760405162461bcd60e51b815260040161059b90612577565b600054610100900460ff16158015611038576000805461ffff191661010117905580156108a3576000805461ff001916905550565b600054610100900460ff1680611a31575060005460ff16155b611a4d5760405162461bcd60e51b815260040161059b90612577565b600054610100900460ff16158015611a6f576000805461ffff19166101011790555b60fb805460ff1916905580156108a3576000805461ff001916905550565b600054610100900460ff1680611aa6575060005460ff16155b611ac25760405162461bcd60e51b815260040161059b90612577565b600054610100900460ff16158015611ae4576000805461ffff19166101011790555b8251611af79060c9906020860190611fdc565b508151611b0b9060ca906020850190611fdc565b5080156107a7576000805461ff0019169055505050565b60fb5460ff16156107a75760405162461bcd60e51b815260040161059b9061254d565b803b611ba95760405162461bcd60e51b815260206004820152602d60248201527f455243313936373a206e657720696d706c656d656e746174696f6e206973206e60448201526c1bdd08184818dbdb9d1c9858dd609a1b606482015260840161059b565b7f360894a13ba1a3210667c828492db98dca3e2076cc3735a920a3ca505d382bbc80546001600160a01b0319166001600160a01b0392909216919091179055565b6060823b611c495760405162461bcd60e51b815260206004820152602660248201527f416464726573733a2064656c65676174652063616c6c20746f206e6f6e2d636f6044820152651b9d1c9858dd60d21b606482015260840161059b565b600080846001600160a01b031684604051611c6491906123c8565b600060405180830381855af49150503d8060008114611c9f576040519150601f19603f3d011682016040523d82523d6000602084013e611ca4565b606091505b5091509150611ccc828260405180606001604052806027815260200161277360279139611e55565b95945050505050565b611cde81611b45565b6040516001600160a01b038216907fbc7cd75a20ee27fd9adebab32041f755214dbc6bffa90cc0225b39da2e5c2d3b90600090a250565b611d1f8383611e8e565b611d2c6000848484611d48565b6107a75760405162461bcd60e51b815260040161059b90612463565b60006001600160a01b0384163b15611e4a57604051630a85bd0160e11b81526001600160a01b0385169063150b7a0290611d8c903390899088908890600401612413565b602060405180830381600087803b158015611da657600080fd5b505af1925050508015611dd6575060408051601f3d908101601f19168201909252611dd3918101906122d1565b60015b611e30573d808015611e04576040519150601f19603f3d011682016040523d82523d6000602084013e611e09565b606091505b508051611e285760405162461bcd60e51b815260040161059b90612463565b805181602001fd5b6001600160e01b031916630a85bd0160e11b149050611329565b506001949350505050565b60608315611e64575081610fca565b825115611e745782518084602001fd5b8160405162461bcd60e51b815260040161059b9190612450565b6001600160a01b038216611ee45760405162461bcd60e51b815260206004820181905260248201527f4552433732313a206d696e7420746f20746865207a65726f2061646472657373604482015260640161059b565b600081815260cb60205260409020546001600160a01b031615611f495760405162461bcd60e51b815260206004820152601c60248201527f4552433732313a20746f6b656e20616c7265616479206d696e74656400000000604482015260640161059b565b611f5560008383611b22565b6001600160a01b038216600090815260cc60205260408120805460019290611f7e908490612616565b9091555050600081815260cb602052604080822080546001600160a01b0319166001600160a01b03861690811790915590518392907fddf252ad1be2c89b69c2b068fc378daa952ba7f163c4a11628f55a4df523b3ef908290a45050565b828054611fe890612685565b90600052602060002090601f01602090048101928261200a5760008555612050565b82601f1061202357805160ff1916838001178555612050565b82800160010185558215612050579182015b82811115612050578251825591602001919060010190612035565b5061205c929150612060565b5090565b5b8082111561205c5760008155600101612061565b600082601f83011261208657600080fd5b813567ffffffffffffffff808211156120a1576120a1612731565b604051601f8301601f19908116603f011681019082821181831017156120c9576120c9612731565b816040528381528660208588010111156120e257600080fd5b836020870160208301376000602085830101528094505050505092915050565b60006020828403121561211457600080fd5b8135610fca81612747565b6000806040838503121561213257600080fd5b823561213d81612747565b9150602083013561214d81612747565b809150509250929050565b60008060006060848603121561216d57600080fd5b833561217881612747565b9250602084013561218881612747565b929592945050506040919091013590565b600080600080608085870312156121af57600080fd5b84356121ba81612747565b935060208501356121ca81612747565b925060408501359150606085013567ffffffffffffffff8111156121ed57600080fd5b6121f987828801612075565b91505092959194509250565b6000806040838503121561221857600080fd5b823561222381612747565b91506020830135801515811461214d57600080fd5b6000806040838503121561224b57600080fd5b823561225681612747565b9150602083013567ffffffffffffffff81111561227257600080fd5b61227e85828601612075565b9150509250929050565b6000806040838503121561229b57600080fd5b82356122a681612747565b946020939093013593505050565b6000602082840312156122c657600080fd5b8135610fca8161275c565b6000602082840312156122e357600080fd5b8151610fca8161275c565b60006020828403121561230057600080fd5b8151610fca81612747565b60008060006060848603121561232057600080fd5b833567ffffffffffffffff8082111561233857600080fd5b61234487838801612075565b9450602086013591508082111561235a57600080fd5b5061236786828701612075565b925050604084013561237881612747565b809150509250925092565b60006020828403121561239557600080fd5b5035919050565b600081518084526123b4816020860160208601612659565b601f01601f19169290920160200192915050565b600082516123da818460208701612659565b9190910192915050565b600083516123f6818460208801612659565b83519083019061240a818360208801612659565b01949350505050565b6001600160a01b03858116825284166020820152604081018390526080606082018190526000906124469083018461239c565b9695505050505050565b602081526000610fca602083018461239c565b60208082526032908201527f4552433732313a207472616e7366657220746f206e6f6e20455243373231526560408201527131b2b4bb32b91034b6b83632b6b2b73a32b960711b606082015260800190565b6020808252602c908201527f46756e6374696f6e206d7573742062652063616c6c6564207468726f7567682060408201526b19195b1959d85d1958d85b1b60a21b606082015260800190565b6020808252602c908201527f46756e6374696f6e206d7573742062652063616c6c6564207468726f7567682060408201526b6163746976652070726f787960a01b606082015260800190565b60208082526010908201526f14185d5cd8589b194e881c185d5cd95960821b604082015260600190565b6020808252602e908201527f496e697469616c697a61626c653a20636f6e747261637420697320616c72656160408201526d191e481a5b9a5d1a585b1a5e995960921b606082015260800190565b60208082526031908201527f4552433732313a207472616e736665722063616c6c6572206973206e6f74206f6040820152701ddb995c881b9bdc88185c1c1c9bdd9959607a1b606082015260800190565b60008219821115612629576126296126ef565b500190565b60008261263d5761263d612705565b500490565b600082821015612654576126546126ef565b500390565b60005b8381101561267457818101518382015260200161265c565b838111156105fb5750506000910152565b600181811c9082168061269957607f821691505b602082108114156126ba57634e487b7160e01b600052602260045260246000fd5b50919050565b60006000198214156126d4576126d46126ef565b5060010190565b6000826126ea576126ea612705565b500690565b634e487b7160e01b600052601160045260246000fd5b634e487b7160e01b600052601260045260246000fd5b634e487b7160e01b600052603260045260246000fd5b634e487b7160e01b600052604160045260246000fd5b6001600160a01b03811681146108a357600080fd5b6001600160e01b0319811681146108a357600080fdfe416464726573733a206c6f772d6c6576656c2064656c65676174652063616c6c206661696c656455435dd261a4b9b3364963f7738a7a662ad9c84396d64be3365284bb7f0a5041a2646970667358221220963dfbfb5c6ae728ae22e45f0a2cd1d2425690e8ec85045be2add11b1b56048a64736f6c63430008060033",
  "linkReferences": {},
  "deployedLinkReferences": {}
}