{
  "_format": "hh-sol-artifact-1",
  "contractName": "PolicyPoolMock",
  "sourceName": "contracts/mocks/PolicyPoolMock.sol",
  "abi": [
    {
      "inputs": [
        {
          "internalType": "contract IERC20Metadata",
          "name": "currency_",
          "type": "address"
        },
        {
          "internalType": "contract IPolicyPoolConfig",
          "name": "config_",
          "type": "address"
        }
      ],
      "stateMutability": "nonpayable",
      "type": "constructor"
    },
    {
      "anonymous": false,
      "inputs": [
        {
          "indexed": true,
          "internalType": "contract IRiskModule",
          "name": "riskModule",
          "type": "address"
        },
        {
          "components": [
            {
              "internalType": "uint256",
              "name": "id",
              "type": "uint256"
            },
            {
              "internalType": "uint256",
              "name": "payout",
              "type": "uint256"
            },
            {
              "internalType": "uint256",
              "name": "premium",
              "type": "uint256"
            },
            {
              "internalType": "uint256",
              "name": "scr",
              "type": "uint256"
            },
            {
              "internalType": "uint256",
              "name": "lossProb",
              "type": "uint256"
            },
            {
              "internalType": "uint256",
              "name": "purePremium",
              "type": "uint256"
            },
            {
              "internalType": "uint256",
              "name": "premiumForEnsuro",
              "type": "uint256"
            },
            {
              "internalType": "uint256",
              "name": "premiumForRm",
              "type": "uint256"
            },
            {
              "internalType": "uint256",
              "name": "premiumForLps",
              "type": "uint256"
            },
            {
              "internalType": "contract IRiskModule",
              "name": "riskModule",
              "type": "address"
            },
            {
              "internalType": "uint40",
              "name": "start",
              "type": "uint40"
            },
            {
              "internalType": "uint40",
              "name": "expiration",
              "type": "uint40"
            }
          ],
          "indexed": false,
          "internalType": "struct Policy.PolicyData",
          "name": "policy",
          "type": "tuple"
        }
      ],
      "name": "NewPolicy",
      "type": "event"
    },
    {
      "anonymous": false,
      "inputs": [
        {
          "indexed": true,
          "internalType": "contract IRiskModule",
          "name": "riskModule",
          "type": "address"
        },
        {
          "indexed": true,
          "internalType": "uint256",
          "name": "policyId",
          "type": "uint256"
        },
        {
          "indexed": false,
          "internalType": "uint256",
          "name": "payout",
          "type": "uint256"
        }
      ],
      "name": "PolicyResolved",
      "type": "event"
    },
    {
      "inputs": [],
      "name": "MAX_INT",
      "outputs": [
        {
          "internalType": "uint256",
          "name": "",
          "type": "uint256"
        }
      ],
      "stateMutability": "view",
      "type": "function"
    },
    {
      "inputs": [
        {
          "internalType": "uint256",
          "name": "",
          "type": "uint256"
        },
        {
          "internalType": "bool",
          "name": "",
          "type": "bool"
        }
      ],
      "name": "assetEarnings",
      "outputs": [],
      "stateMutability": "pure",
      "type": "function"
    },
    {
      "inputs": [],
      "name": "config",
      "outputs": [
        {
          "internalType": "contract IPolicyPoolConfig",
          "name": "",
          "type": "address"
        }
      ],
      "stateMutability": "view",
      "type": "function"
    },
    {
      "inputs": [],
      "name": "currency",
      "outputs": [
        {
          "internalType": "contract IERC20Metadata",
          "name": "",
          "type": "address"
        }
      ],
      "stateMutability": "view",
      "type": "function"
    },
    {
      "inputs": [
        {
          "internalType": "contract IEToken",
          "name": "",
          "type": "address"
        },
        {
          "internalType": "uint256",
          "name": "",
          "type": "uint256"
        }
      ],
      "name": "deposit",
      "outputs": [],
      "stateMutability": "pure",
      "type": "function"
    },
    {
      "inputs": [
        {
          "internalType": "uint256",
          "name": "",
          "type": "uint256"
        }
      ],
      "name": "getETokenAt",
      "outputs": [
        {
          "internalType": "contract IEToken",
          "name": "",
          "type": "address"
        }
      ],
      "stateMutability": "pure",
      "type": "function"
    },
    {
      "inputs": [],
      "name": "getETokenCount",
      "outputs": [
        {
          "internalType": "uint256",
          "name": "",
          "type": "uint256"
        }
      ],
      "stateMutability": "pure",
      "type": "function"
    },
    {
      "inputs": [],
      "name": "getInvestable",
      "outputs": [
        {
          "internalType": "uint256",
          "name": "",
          "type": "uint256"
        }
      ],
      "stateMutability": "pure",
      "type": "function"
    },
    {
      "inputs": [
        {
          "components": [
            {
              "internalType": "uint256",
              "name": "id",
              "type": "uint256"
            },
            {
              "internalType": "uint256",
              "name": "payout",
              "type": "uint256"
            },
            {
              "internalType": "uint256",
              "name": "premium",
              "type": "uint256"
            },
            {
              "internalType": "uint256",
              "name": "scr",
              "type": "uint256"
            },
            {
              "internalType": "uint256",
              "name": "lossProb",
              "type": "uint256"
            },
            {
              "internalType": "uint256",
              "name": "purePremium",
              "type": "uint256"
            },
            {
              "internalType": "uint256",
              "name": "premiumForEnsuro",
              "type": "uint256"
            },
            {
              "internalType": "uint256",
              "name": "premiumForRm",
              "type": "uint256"
            },
            {
              "internalType": "uint256",
              "name": "premiumForLps",
              "type": "uint256"
            },
            {
              "internalType": "contract IRiskModule",
              "name": "riskModule",
              "type": "address"
            },
            {
              "internalType": "uint40",
              "name": "start",
              "type": "uint40"
            },
            {
              "internalType": "uint40",
              "name": "expiration",
              "type": "uint40"
            }
          ],
          "internalType": "struct Policy.PolicyData",
          "name": "policy",
          "type": "tuple"
        },
        {
          "internalType": "address",
          "name": "",
          "type": "address"
        }
      ],
      "name": "newPolicy",
      "outputs": [
        {
          "internalType": "uint256",
          "name": "",
          "type": "uint256"
        }
      ],
      "stateMutability": "nonpayable",
      "type": "function"
    },
    {
      "inputs": [],
      "name": "policyCount",
      "outputs": [
        {
          "internalType": "uint256",
          "name": "",
          "type": "uint256"
        }
      ],
      "stateMutability": "view",
      "type": "function"
    },
    {
      "inputs": [],
      "name": "policyNFT",
      "outputs": [
        {
          "internalType": "address",
          "name": "",
          "type": "address"
        }
      ],
      "stateMutability": "pure",
      "type": "function"
    },
    {
      "inputs": [
        {
          "internalType": "uint256",
          "name": "",
          "type": "uint256"
        }
      ],
      "name": "receiveGrant",
      "outputs": [],
      "stateMutability": "pure",
      "type": "function"
    },
    {
      "inputs": [
        {
          "components": [
            {
              "internalType": "uint256",
              "name": "id",
              "type": "uint256"
            },
            {
              "internalType": "uint256",
              "name": "payout",
              "type": "uint256"
            },
            {
              "internalType": "uint256",
              "name": "premium",
              "type": "uint256"
            },
            {
              "internalType": "uint256",
              "name": "scr",
              "type": "uint256"
            },
            {
              "internalType": "uint256",
              "name": "lossProb",
              "type": "uint256"
            },
            {
              "internalType": "uint256",
              "name": "purePremium",
              "type": "uint256"
            },
            {
              "internalType": "uint256",
              "name": "premiumForEnsuro",
              "type": "uint256"
            },
            {
              "internalType": "uint256",
              "name": "premiumForRm",
              "type": "uint256"
            },
            {
              "internalType": "uint256",
              "name": "premiumForLps",
              "type": "uint256"
            },
            {
              "internalType": "contract IRiskModule",
              "name": "riskModule",
              "type": "address"
            },
            {
              "internalType": "uint40",
              "name": "start",
              "type": "uint40"
            },
            {
              "internalType": "uint40",
              "name": "expiration",
              "type": "uint40"
            }
          ],
          "internalType": "struct Policy.PolicyData",
          "name": "policy",
          "type": "tuple"
        },
        {
          "internalType": "uint256",
          "name": "payout",
          "type": "uint256"
        }
      ],
      "name": "resolvePolicy",
      "outputs": [],
      "stateMutability": "nonpayable",
      "type": "function"
    },
    {
      "inputs": [
        {
          "components": [
            {
              "internalType": "uint256",
              "name": "id",
              "type": "uint256"
            },
            {
              "internalType": "uint256",
              "name": "payout",
              "type": "uint256"
            },
            {
              "internalType": "uint256",
              "name": "premium",
              "type": "uint256"
            },
            {
              "internalType": "uint256",
              "name": "scr",
              "type": "uint256"
            },
            {
              "internalType": "uint256",
              "name": "lossProb",
              "type": "uint256"
            },
            {
              "internalType": "uint256",
              "name": "purePremium",
              "type": "uint256"
            },
            {
              "internalType": "uint256",
              "name": "premiumForEnsuro",
              "type": "uint256"
            },
            {
              "internalType": "uint256",
              "name": "premiumForRm",
              "type": "uint256"
            },
            {
              "internalType": "uint256",
              "name": "premiumForLps",
              "type": "uint256"
            },
            {
              "internalType": "contract IRiskModule",
              "name": "riskModule",
              "type": "address"
            },
            {
              "internalType": "uint40",
              "name": "start",
              "type": "uint40"
            },
            {
              "internalType": "uint40",
              "name": "expiration",
              "type": "uint40"
            }
          ],
          "internalType": "struct Policy.PolicyData",
          "name": "policy",
          "type": "tuple"
        },
        {
          "internalType": "bool",
          "name": "customerWon",
          "type": "bool"
        }
      ],
      "name": "resolvePolicyFullPayout",
      "outputs": [],
      "stateMutability": "nonpayable",
      "type": "function"
    },
    {
      "inputs": [
        {
          "internalType": "contract IAssetManager",
          "name": "newAssetManager",
          "type": "address"
        }
      ],
      "name": "setAssetManager",
      "outputs": [],
      "stateMutability": "nonpayable",
      "type": "function"
    },
    {
      "inputs": [
        {
          "internalType": "uint256",
          "name": "value",
          "type": "uint256"
        }
      ],
      "name": "setTotalETokenSupply",
      "outputs": [],
      "stateMutability": "nonpayable",
      "type": "function"
    },
    {
      "inputs": [],
      "name": "totalETokenSupply",
      "outputs": [
        {
          "internalType": "uint256",
          "name": "",
          "type": "uint256"
        }
      ],
      "stateMutability": "view",
      "type": "function"
    },
    {
      "inputs": [
        {
          "internalType": "contract IEToken",
          "name": "",
          "type": "address"
        },
        {
          "internalType": "uint256",
          "name": "",
          "type": "uint256"
        }
      ],
      "name": "withdraw",
      "outputs": [
        {
          "internalType": "uint256",
          "name": "",
          "type": "uint256"
        }
      ],
      "stateMutability": "pure",
      "type": "function"
    }
  ],
  "bytecode": "0x60806040523480156200001157600080fd5b506040516200104a3803806200104a8339810160408190526200003491620001fc565b600080546001600160a01b038085166001600160a01b03199283161783556002839055600180549185169190921681179091556040805163948cb71960e01b81529051919263948cb7199260048084019382900301818387803b1580156200009b57600080fd5b505af1158015620000b0573d6000803e3d6000fd5b5050600154604080516394217ad160e01b81529051600094506001600160a01b0390921692506394217ad1916004808301926020929190829003018186803b158015620000fc57600080fd5b505afa15801562000111573d6000803e3d6000fd5b505050506040513d601f19601f82011682018060405250810190620001379190620001d5565b6001600160a01b031614620001b85760405162461bcd60e51b815260206004820152603a60248201527f41737365744d616e616765722063616e277420626520736574206265666f726560448201527f20506f6c696379506f6f6c20696e697469616c697a6174696f6e000000000000606482015260840160405180910390fd5b5050701d6329f1c35ca4bfabb9f561000000000060035562000254565b600060208284031215620001e857600080fd5b8151620001f5816200023b565b9392505050565b600080604083850312156200021057600080fd5b82516200021d816200023b565b602084015190925062000230816200023b565b809150509250929050565b6001600160a01b03811681146200025157600080fd5b50565b610de680620002646000396000f3fe608060405234801561001057600080fd5b50600436106101165760003560e01c8063ab600169116100a2578063de54d42911610071578063de54d42914610208578063dea167d514610185578063e5a6b10f14610211578063f02839c114610222578063f3fef3a31461023557600080fd5b8063ab600169146101d7578063af02808a146101e5578063b0ec4bcf146101ec578063b77ddfea1461020057600080fd5b806347e7ef24116100e957806347e7ef241461017257806365e29c7e1461018557806379502c551461018c57806381ced71f146101b15780639e556b2b146101c457600080fd5b8063066dda0e1461011b578063098d3228146101305780631440912b1461014c578063430602371461015f575b600080fd5b61012e610129366004610b95565b610248565b005b61013960001981565b6040519081526020015b60405180910390f35b61012e61015a366004610c48565b600355565b61012e61016d366004610b2f565b610274565b61012e610180366004610b69565b6105f5565b6000610139565b6001546001600160a01b03165b6040516001600160a01b039091168152602001610143565b61012e6101bf366004610c48565b61063d565b61012e6101d2366004610bcf565b610677565b61012e6101bf366004610c61565b6000610199565b6101996101fa366004610c48565b50600090565b600354610139565b61013960025481565b6000546001600160a01b0316610199565b610139610230366004610c19565b61068f565b610139610243366004610b69565b6107db565b61027061025a36849003840184610bfc565b82610266576000610826565b8360200135610826565b5050565b6001546001600160a01b031633146102ed5760405162461bcd60e51b815260206004820152603160248201527f4f6e6c792074686520506f6c696379506f6f6c436f6e6669672063616e20636860448201527030b733b29030b9b9b2ba26b0b730b3b2b960791b60648201526084015b60405180910390fd5b600154604080516394217ad160e01b815290516000926001600160a01b0316916394217ad1916004808301926020929190829003018186803b15801561033257600080fd5b505afa158015610346573d6000803e3d6000fd5b505050506040513d601f19601f8201168201806040525081019061036a9190610b4c565b6001600160a01b03161461055c57600160009054906101000a90046001600160a01b03166001600160a01b03166394217ad16040518163ffffffff1660e01b815260040160206040518083038186803b1580156103c657600080fd5b505afa1580156103da573d6000803e3d6000fd5b505050506040513d601f19601f820116820180604052508101906103fe9190610b4c565b6001600160a01b031663cec16f3f6040518163ffffffff1660e01b8152600401600060405180830381600087803b15801561043857600080fd5b505af115801561044c573d6000803e3d6000fd5b5050600054600154604080516394217ad160e01b815290516001600160a01b03938416955063095ea7b3945091909216916394217ad1916004808301926020929190829003018186803b1580156104a257600080fd5b505afa1580156104b6573d6000803e3d6000fd5b505050506040513d601f19601f820116820180604052508101906104da9190610b4c565b6040516001600160e01b031960e084901b1681526001600160a01b03909116600482015260006024820152604401602060405180830381600087803b15801561052257600080fd5b505af1158015610536573d6000803e3d6000fd5b505050506040513d601f19601f8201168201806040525081019061055a9190610b0b565b505b6001600160a01b038116156105f25760005460405163095ea7b360e01b81526001600160a01b03838116600483015260001960248301529091169063095ea7b390604401602060405180830381600087803b1580156105ba57600080fd5b505af11580156105ce573d6000803e3d6000fd5b505050506040513d601f19601f820116820180604052508101906102709190610b0b565b50565b60405162461bcd60e51b815260206004820152601760248201527f4e6f7420496d706c656d656e746564206465706f73697400000000000000000060448201526064016102e4565b60405162461bcd60e51b815260206004820152600f60248201526e139bdd08125b5c1b195b595b9d1959608a1b60448201526064016102e4565b61027061068936849003840184610bfc565b82610826565b60028054600091826106a083610d64565b90915550506002805480855260009081526004602081815260408084208851815591880151600183015580880151828601556060880151600383015560808801519282019290925560a0870151600582015560c0870151600682015560e087015160078201556101008701516008820155610120870151600990910180546101408901516101608a01516001600160a01b039094166001600160c81b031990921691909117600160a01b64ffffffffff928316021764ffffffffff60c81b1916600160c81b9190931602919091179055915480825291902055610782836109ee565b60025460009081526005602052604090819020919091555133907ff8da20dc84e4c9850943fcd1a0587142b2bac3fef70840ccee41f5edd22bc477906107c9908690610c86565b60405180910390a25060025492915050565b60405162461bcd60e51b815260206004820152601860248201527f4e6f7420496d706c656d656e746564207769746864726177000000000000000060448201526000906064016102e4565b81516108675760405162461bcd60e51b815260206004820152601060248201526f141bdb1a58de481b9bdd08199bdd5b9960821b60448201526064016102e4565b8151600090815260056020526040902054610881836109ee565b146108c35760405162461bcd60e51b8152602060048201526012602482015271090c2e6d040c8decae6dc4ee840dac2e8c6d60731b60448201526064016102e4565b8161012001516001600160a01b0316336001600160a01b0316146109455760405162461bcd60e51b815260206004820152603360248201527f4f6e6c79207269736b4d6f64756c6520697320617574686f72697a656420746f604482015272207265736f6c76652074686520706f6c69637960681b60648201526084016102e4565b815160009081526004602081815260408084208481556001810185905560028101859055600381018590559283018490556005808401859055600684018590556007840185905560088401859055600990930180546001600160f01b0319169055855184529181528183209290925583519051838152909133917f54f4a270ea08f88dc23b2520d6b063fecb24d956c4496f447926d736338f545e910160405180910390a35050565b600081604051602001610a019190610c86565b604051602081830303815290604052805190602001209050919050565b8035610a2981610d8d565b919050565b60006101808284031215610a4157600080fd5b50919050565b60006101808284031215610a5a57600080fd5b610a62610d2c565b9050813581526020820135602082015260408201356040820152606082013560608201526080820135608082015260a082013560a082015260c082013560c082015260e082013560e0820152610100808301358183015250610120610ac8818401610a1e565b90820152610140610ada838201610af6565b90820152610160610aec838201610af6565b9082015292915050565b803564ffffffffff81168114610a2957600080fd5b600060208284031215610b1d57600080fd5b8151610b2881610da2565b9392505050565b600060208284031215610b4157600080fd5b8135610b2881610d8d565b600060208284031215610b5e57600080fd5b8151610b2881610d8d565b60008060408385031215610b7c57600080fd5b8235610b8781610d8d565b946020939093013593505050565b6000806101a08385031215610ba957600080fd5b610bb38484610a2e565b9150610180830135610bc481610da2565b809150509250929050565b6000806101a08385031215610be357600080fd5b610bed8484610a2e565b94610180939093013593505050565b60006101808284031215610c0f57600080fd5b610b288383610a47565b6000806101a08385031215610c2d57600080fd5b610c378484610a47565b9150610180830135610bc481610d8d565b600060208284031215610c5a57600080fd5b5035919050565b60008060408385031215610c7457600080fd5b823591506020830135610bc481610da2565b600061018082019050825182526020830151602083015260408301516040830152606083015160608301526080830151608083015260a083015160a083015260c083015160c083015260e083015160e083015261010080840151818401525061012080840151610d00828501826001600160a01b03169052565b50506101408381015164ffffffffff908116918401919091526101609384015116929091019190915290565b604051610180810167ffffffffffffffff81118282101715610d5e57634e487b7160e01b600052604160045260246000fd5b60405290565b6000600019821415610d8657634e487b7160e01b600052601160045260246000fd5b5060010190565b6001600160a01b03811681146105f257600080fd5b80151581146105f257600080fdfea2646970667358221220c09d8e1f9fb46e3cde0dd29effd5033071c7ce48982590430d9814741177b2ce64736f6c63430008060033",
  "linkReferences": {},
  "deployedLinkReferences": {}
}